{"abi":[{"inputs":[],"stateMutability":"nonpayable","type":"constructor"},{"inputs":[],"name":"campaignFactoryManager","outputs":[{"internalType":"address","name":"","type":"address"}],"stateMutability":"view","type":"function"},{"inputs":[{"internalType":"address","name":"","type":"address"}],"name":"campaignManagerMapper","outputs":[{"internalType":"address","name":"","type":"address"}],"stateMutability":"view","type":"function"},{"inputs":[{"internalType":"uint256","name":"minContrib","type":"uint256"},{"internalType":"string","name":"campaignTitle","type":"string"},{"internalType":"string","name":"campaignDescription","type":"string"}],"name":"createCampaign","outputs":[],"stateMutability":"nonpayable","type":"function"},{"inputs":[{"internalType":"uint256","name":"","type":"uint256"}],"name":"deployedCampaigns","outputs":[{"internalType":"address","name":"","type":"address"}],"stateMutability":"view","type":"function"},{"inputs":[{"internalType":"address","name":"manager","type":"address"}],"name":"getCampaignsByManager","outputs":[{"internalType":"address[]","name":"","type":"address[]"}],"stateMutability":"view","type":"function"},{"inputs":[],"name":"getDeployedCampaigns","outputs":[{"internalType":"address[]","name":"","type":"address[]"}],"stateMutability":"view","type":"function"},{"inputs":[{"internalType":"address","name":"campaign","type":"address"}],"name":"getManagerByCampaign","outputs":[{"internalType":"address","name":"","type":"address"}],"stateMutability":"view","type":"function"},{"inputs":[{"internalType":"address","name":"","type":"address"},{"internalType":"uint256","name":"","type":"uint256"}],"name":"managerCampaignsMapper","outputs":[{"internalType":"address","name":"","type":"address"}],"stateMutability":"view","type":"function"}],"devdoc":{"kind":"dev","methods":{},"version":1},"evm":{"assembly":"    /* \"Campaign.sol\":393:1854  contract CampaignFactory{... */\n  mstore(0x40, 0x80)\n    /* \"Campaign.sol\":717:782  constructor(){... */\n  callvalue\n  dup1\n  iszero\n  tag_1\n  jumpi\n  0x00\n  dup1\n  revert\ntag_1:\n  pop\n    /* \"Campaign.sol\":765:775  msg.sender */\n  caller\n    /* \"Campaign.sol\":740:762  campaignFactoryManager */\n  0x01\n  0x00\n    /* \"Campaign.sol\":740:775  campaignFactoryManager = msg.sender */\n  0x0100\n  exp\n  dup2\n  sload\n  dup2\n  0xffffffffffffffffffffffffffffffffffffffff\n  mul\n  not\n  and\n  swap1\n  dup4\n  0xffffffffffffffffffffffffffffffffffffffff\n  and\n  mul\n  or\n  swap1\n  sstore\n  pop\n    /* \"Campaign.sol\":393:1854  contract CampaignFactory{... */\n  dataSize(sub_0)\n  dup1\n  dataOffset(sub_0)\n  0x00\n  codecopy\n  0x00\n  return\nstop\n\nsub_0: assembly {\n        /* \"Campaign.sol\":393:1854  contract CampaignFactory{... */\n      mstore(0x40, 0x80)\n      callvalue\n      dup1\n      iszero\n      tag_1\n      jumpi\n      0x00\n      dup1\n      revert\n    tag_1:\n      pop\n      jumpi(tag_2, lt(calldatasize, 0x04))\n      shr(0xe0, calldataload(0x00))\n      dup1\n      0xb5608396\n      gt\n      tag_11\n      jumpi\n      dup1\n      0xb5608396\n      eq\n      tag_7\n      jumpi\n      dup1\n      0xbed21344\n      eq\n      tag_8\n      jumpi\n      dup1\n      0xd4b7d4a0\n      eq\n      tag_9\n      jumpi\n      dup1\n      0xfad4dee3\n      eq\n      tag_10\n      jumpi\n      jump(tag_2)\n    tag_11:\n      dup1\n      0x25c501ff\n      eq\n      tag_3\n      jumpi\n      dup1\n      0x2d0d8a5d\n      eq\n      tag_4\n      jumpi\n      dup1\n      0x339d50a5\n      eq\n      tag_5\n      jumpi\n      dup1\n      0x4acb9d4f\n      eq\n      tag_6\n      jumpi\n    tag_2:\n      0x00\n      dup1\n      revert\n        /* \"Campaign.sol\":1543:1688  function getCampaignsByManager (address manager) public view returns (address [] memory){... */\n    tag_3:\n      tag_12\n      0x04\n      dup1\n      calldatasize\n      sub\n      dup2\n      add\n      swap1\n      tag_13\n      swap2\n      swap1\n      tag_14\n      jump\t// in\n    tag_13:\n      tag_15\n      jump\t// in\n    tag_12:\n      mload(0x40)\n      tag_16\n      swap2\n      swap1\n      tag_17\n      jump\t// in\n    tag_16:\n      mload(0x40)\n      dup1\n      swap2\n      sub\n      swap1\n      return\n        /* \"Campaign.sol\":609:665  mapping (address=> address) public campaignManagerMapper */\n    tag_4:\n      tag_18\n      0x04\n      dup1\n      calldatasize\n      sub\n      dup2\n      add\n      swap1\n      tag_19\n      swap2\n      swap1\n      tag_14\n      jump\t// in\n    tag_19:\n      tag_20\n      jump\t// in\n    tag_18:\n      mload(0x40)\n      tag_21\n      swap2\n      swap1\n      tag_22\n      jump\t// in\n    tag_21:\n      mload(0x40)\n      dup1\n      swap2\n      sub\n      swap1\n      return\n        /* \"Campaign.sol\":423:458  address [] public deployedCampaigns */\n    tag_5:\n      tag_23\n      0x04\n      dup1\n      calldatasize\n      sub\n      dup2\n      add\n      swap1\n      tag_24\n      swap2\n      swap1\n      tag_25\n      jump\t// in\n    tag_24:\n      tag_26\n      jump\t// in\n    tag_23:\n      mload(0x40)\n      tag_27\n      swap2\n      swap1\n      tag_22\n      jump\t// in\n    tag_27:\n      mload(0x40)\n      dup1\n      swap2\n      sub\n      swap1\n      return\n        /* \"Campaign.sol\":1415:1528  function getDeployedCampaigns () public view returns (address [] memory){... */\n    tag_6:\n      tag_28\n      tag_29\n      jump\t// in\n    tag_28:\n      mload(0x40)\n      tag_30\n      swap2\n      swap1\n      tag_17\n      jump\t// in\n    tag_30:\n      mload(0x40)\n      dup1\n      swap2\n      sub\n      swap1\n      return\n        /* \"Campaign.sol\":464:501  address public campaignFactoryManager */\n    tag_7:\n      tag_31\n      tag_32\n      jump\t// in\n    tag_31:\n      mload(0x40)\n      tag_33\n      swap2\n      swap1\n      tag_22\n      jump\t// in\n    tag_33:\n      mload(0x40)\n      dup1\n      swap2\n      sub\n      swap1\n      return\n        /* \"Campaign.sol\":1705:1839  function getManagerByCampaign (address campaign) public view returns(address){... */\n    tag_8:\n      tag_34\n      0x04\n      dup1\n      calldatasize\n      sub\n      dup2\n      add\n      swap1\n      tag_35\n      swap2\n      swap1\n      tag_14\n      jump\t// in\n    tag_35:\n      tag_36\n      jump\t// in\n    tag_34:\n      mload(0x40)\n      tag_37\n      swap2\n      swap1\n      tag_22\n      jump\t// in\n    tag_37:\n      mload(0x40)\n      dup1\n      swap2\n      sub\n      swap1\n      return\n        /* \"Campaign.sol\":507:566  mapping (address=> address[]) public managerCampaignsMapper */\n    tag_9:\n      tag_38\n      0x04\n      dup1\n      calldatasize\n      sub\n      dup2\n      add\n      swap1\n      tag_39\n      swap2\n      swap1\n      tag_40\n      jump\t// in\n    tag_39:\n      tag_41\n      jump\t// in\n    tag_38:\n      mload(0x40)\n      tag_42\n      swap2\n      swap1\n      tag_22\n      jump\t// in\n    tag_42:\n      mload(0x40)\n      dup1\n      swap2\n      sub\n      swap1\n      return\n        /* \"Campaign.sol\":797:1400  function createCampaign(uint minContrib, string memory campaignTitle, string memory campaignDescription) public {... */\n    tag_10:\n      tag_43\n      0x04\n      dup1\n      calldatasize\n      sub\n      dup2\n      add\n      swap1\n      tag_44\n      swap2\n      swap1\n      tag_45\n      jump\t// in\n    tag_44:\n      tag_46\n      jump\t// in\n    tag_43:\n      stop\n        /* \"Campaign.sol\":1543:1688  function getCampaignsByManager (address manager) public view returns (address [] memory){... */\n    tag_15:\n        /* \"Campaign.sol\":1613:1630  address [] memory */\n      0x60\n        /* \"Campaign.sol\":1649:1671  managerCampaignsMapper */\n      0x02\n        /* \"Campaign.sol\":1649:1680  managerCampaignsMapper[manager] */\n      0x00\n        /* \"Campaign.sol\":1672:1679  manager */\n      dup4\n        /* \"Campaign.sol\":1649:1680  managerCampaignsMapper[manager] */\n      0xffffffffffffffffffffffffffffffffffffffff\n      and\n      0xffffffffffffffffffffffffffffffffffffffff\n      and\n      dup2\n      mstore\n      0x20\n      add\n      swap1\n      dup2\n      mstore\n      0x20\n      add\n      0x00\n      keccak256\n        /* \"Campaign.sol\":1642:1680  return managerCampaignsMapper[manager] */\n      dup1\n      sload\n      dup1\n      0x20\n      mul\n      0x20\n      add\n      mload(0x40)\n      swap1\n      dup2\n      add\n      0x40\n      mstore\n      dup1\n      swap3\n      swap2\n      swap1\n      dup2\n      dup2\n      mstore\n      0x20\n      add\n      dup3\n      dup1\n      sload\n      dup1\n      iszero\n      tag_48\n      jumpi\n      0x20\n      mul\n      dup3\n      add\n      swap2\n      swap1\n      0x00\n      mstore\n      keccak256(0x00, 0x20)\n      swap1\n    tag_49:\n      dup2\n      0x00\n      swap1\n      sload\n      swap1\n      0x0100\n      exp\n      swap1\n      div\n      0xffffffffffffffffffffffffffffffffffffffff\n      and\n      0xffffffffffffffffffffffffffffffffffffffff\n      and\n      dup2\n      mstore\n      0x20\n      add\n      swap1\n      0x01\n      add\n      swap1\n      dup1\n      dup4\n      gt\n      tag_49\n      jumpi\n    tag_48:\n      pop\n      pop\n      pop\n      pop\n      pop\n      swap1\n      pop\n        /* \"Campaign.sol\":1543:1688  function getCampaignsByManager (address manager) public view returns (address [] memory){... */\n      swap2\n      swap1\n      pop\n      jump\t// out\n        /* \"Campaign.sol\":609:665  mapping (address=> address) public campaignManagerMapper */\n    tag_20:\n      mstore(0x20, 0x03)\n      dup1\n      0x00\n      mstore\n      keccak256(0x00, 0x40)\n      0x00\n      swap2\n      pop\n      sload\n      swap1\n      0x0100\n      exp\n      swap1\n      div\n      0xffffffffffffffffffffffffffffffffffffffff\n      and\n      dup2\n      jump\t// out\n        /* \"Campaign.sol\":423:458  address [] public deployedCampaigns */\n    tag_26:\n      0x00\n      dup2\n      dup2\n      sload\n      dup2\n      lt\n      tag_50\n      jumpi\n      0x00\n      dup1\n      revert\n    tag_50:\n      swap1\n      0x00\n      mstore\n      keccak256(0x00, 0x20)\n      add\n      0x00\n      swap2\n      pop\n      sload\n      swap1\n      0x0100\n      exp\n      swap1\n      div\n      0xffffffffffffffffffffffffffffffffffffffff\n      and\n      dup2\n      jump\t// out\n        /* \"Campaign.sol\":1415:1528  function getDeployedCampaigns () public view returns (address [] memory){... */\n    tag_29:\n        /* \"Campaign.sol\":1469:1486  address [] memory */\n      0x60\n        /* \"Campaign.sol\":1504:1521  deployedCampaigns */\n      0x00\n        /* \"Campaign.sol\":1497:1521  return deployedCampaigns */\n      dup1\n      sload\n      dup1\n      0x20\n      mul\n      0x20\n      add\n      mload(0x40)\n      swap1\n      dup2\n      add\n      0x40\n      mstore\n      dup1\n      swap3\n      swap2\n      swap1\n      dup2\n      dup2\n      mstore\n      0x20\n      add\n      dup3\n      dup1\n      sload\n      dup1\n      iszero\n      tag_53\n      jumpi\n      0x20\n      mul\n      dup3\n      add\n      swap2\n      swap1\n      0x00\n      mstore\n      keccak256(0x00, 0x20)\n      swap1\n    tag_54:\n      dup2\n      0x00\n      swap1\n      sload\n      swap1\n      0x0100\n      exp\n      swap1\n      div\n      0xffffffffffffffffffffffffffffffffffffffff\n      and\n      0xffffffffffffffffffffffffffffffffffffffff\n      and\n      dup2\n      mstore\n      0x20\n      add\n      swap1\n      0x01\n      add\n      swap1\n      dup1\n      dup4\n      gt\n      tag_54\n      jumpi\n    tag_53:\n      pop\n      pop\n      pop\n      pop\n      pop\n      swap1\n      pop\n        /* \"Campaign.sol\":1415:1528  function getDeployedCampaigns () public view returns (address [] memory){... */\n      swap1\n      jump\t// out\n        /* \"Campaign.sol\":464:501  address public campaignFactoryManager */\n    tag_32:\n      0x01\n      0x00\n      swap1\n      sload\n      swap1\n      0x0100\n      exp\n      swap1\n      div\n      0xffffffffffffffffffffffffffffffffffffffff\n      and\n      dup2\n      jump\t// out\n        /* \"Campaign.sol\":1705:1839  function getManagerByCampaign (address campaign) public view returns(address){... */\n    tag_36:\n        /* \"Campaign.sol\":1774:1781  address */\n      0x00\n        /* \"Campaign.sol\":1800:1821  campaignManagerMapper */\n      0x03\n        /* \"Campaign.sol\":1800:1831  campaignManagerMapper[campaign] */\n      0x00\n        /* \"Campaign.sol\":1822:1830  campaign */\n      dup4\n        /* \"Campaign.sol\":1800:1831  campaignManagerMapper[campaign] */\n      0xffffffffffffffffffffffffffffffffffffffff\n      and\n      0xffffffffffffffffffffffffffffffffffffffff\n      and\n      dup2\n      mstore\n      0x20\n      add\n      swap1\n      dup2\n      mstore\n      0x20\n      add\n      0x00\n      keccak256\n      0x00\n      swap1\n      sload\n      swap1\n      0x0100\n      exp\n      swap1\n      div\n      0xffffffffffffffffffffffffffffffffffffffff\n      and\n        /* \"Campaign.sol\":1793:1831  return campaignManagerMapper[campaign] */\n      swap1\n      pop\n        /* \"Campaign.sol\":1705:1839  function getManagerByCampaign (address campaign) public view returns(address){... */\n      swap2\n      swap1\n      pop\n      jump\t// out\n        /* \"Campaign.sol\":507:566  mapping (address=> address[]) public managerCampaignsMapper */\n    tag_41:\n      mstore(0x20, 0x02)\n      dup2\n      0x00\n      mstore\n      keccak256(0x00, 0x40)\n      dup2\n      dup2\n      sload\n      dup2\n      lt\n      tag_56\n      jumpi\n      0x00\n      dup1\n      revert\n    tag_56:\n      swap1\n      0x00\n      mstore\n      keccak256(0x00, 0x20)\n      add\n      0x00\n      swap2\n      pop\n      swap2\n      pop\n      swap1\n      sload\n      swap1\n      0x0100\n      exp\n      swap1\n      div\n      0xffffffffffffffffffffffffffffffffffffffff\n      and\n      dup2\n      jump\t// out\n        /* \"Campaign.sol\":797:1400  function createCampaign(uint minContrib, string memory campaignTitle, string memory campaignDescription) public {... */\n    tag_46:\n        /* \"Campaign.sol\":919:945  address newCampaignAddress */\n      0x00\n        /* \"Campaign.sol\":969:979  minContrib */\n      dup4\n        /* \"Campaign.sol\":981:994  campaignTitle */\n      dup4\n        /* \"Campaign.sol\":996:1015  campaignDescription */\n      dup4\n        /* \"Campaign.sol\":1017:1027  msg.sender */\n      caller\n        /* \"Campaign.sol\":956:1028  new Campaign(minContrib, campaignTitle, campaignDescription, msg.sender) */\n      mload(0x40)\n      tag_59\n      swap1\n      tag_60\n      jump\t// in\n    tag_59:\n      tag_61\n      swap5\n      swap4\n      swap3\n      swap2\n      swap1\n      tag_62\n      jump\t// in\n    tag_61:\n      mload(0x40)\n      dup1\n      swap2\n      sub\n      swap1\n      0x00\n      create\n      dup1\n      iszero\n      dup1\n      iszero\n      tag_63\n      jumpi\n      returndatasize\n      0x00\n      dup1\n      returndatacopy\n      revert(0x00, returndatasize)\n    tag_63:\n      pop\n        /* \"Campaign.sol\":919:1029  address newCampaignAddress = address(new Campaign(minContrib, campaignTitle, campaignDescription, msg.sender)) */\n      swap1\n      pop\n        /* \"Campaign.sol\":1084:1101  deployedCampaigns */\n      0x00\n        /* \"Campaign.sol\":1107:1125  newCampaignAddress */\n      dup2\n        /* \"Campaign.sol\":1084:1126  deployedCampaigns.push(newCampaignAddress) */\n      swap1\n      dup1\n      0x01\n      dup2\n      sload\n      add\n      dup1\n      dup3\n      sstore\n      dup1\n      swap2\n      pop\n      pop\n      0x01\n      swap1\n      sub\n      swap1\n      0x00\n      mstore\n      keccak256(0x00, 0x20)\n      add\n      0x00\n      swap1\n      swap2\n      swap1\n      swap2\n      swap1\n      swap2\n      0x0100\n      exp\n      dup2\n      sload\n      dup2\n      0xffffffffffffffffffffffffffffffffffffffff\n      mul\n      not\n      and\n      swap1\n      dup4\n      0xffffffffffffffffffffffffffffffffffffffff\n      and\n      mul\n      or\n      swap1\n      sstore\n      pop\n        /* \"Campaign.sol\":1210:1232  managerCampaignsMapper */\n      0x02\n        /* \"Campaign.sol\":1210:1244  managerCampaignsMapper[msg.sender] */\n      0x00\n        /* \"Campaign.sol\":1233:1243  msg.sender */\n      caller\n        /* \"Campaign.sol\":1210:1244  managerCampaignsMapper[msg.sender] */\n      0xffffffffffffffffffffffffffffffffffffffff\n      and\n      0xffffffffffffffffffffffffffffffffffffffff\n      and\n      dup2\n      mstore\n      0x20\n      add\n      swap1\n      dup2\n      mstore\n      0x20\n      add\n      0x00\n      keccak256\n        /* \"Campaign.sol\":1250:1268  newCampaignAddress */\n      dup2\n        /* \"Campaign.sol\":1210:1269  managerCampaignsMapper[msg.sender].push(newCampaignAddress) */\n      swap1\n      dup1\n      0x01\n      dup2\n      sload\n      add\n      dup1\n      dup3\n      sstore\n      dup1\n      swap2\n      pop\n      pop\n      0x01\n      swap1\n      sub\n      swap1\n      0x00\n      mstore\n      keccak256(0x00, 0x20)\n      add\n      0x00\n      swap1\n      swap2\n      swap1\n      swap2\n      swap1\n      swap2\n      0x0100\n      exp\n      dup2\n      sload\n      dup2\n      0xffffffffffffffffffffffffffffffffffffffff\n      mul\n      not\n      and\n      swap1\n      dup4\n      0xffffffffffffffffffffffffffffffffffffffff\n      and\n      mul\n      or\n      swap1\n      sstore\n      pop\n        /* \"Campaign.sol\":1383:1393  msg.sender */\n      caller\n        /* \"Campaign.sol\":1339:1360  campaignManagerMapper */\n      0x03\n        /* \"Campaign.sol\":1339:1380  campaignManagerMapper[newCampaignAddress] */\n      0x00\n        /* \"Campaign.sol\":1361:1379  newCampaignAddress */\n      dup4\n        /* \"Campaign.sol\":1339:1380  campaignManagerMapper[newCampaignAddress] */\n      0xffffffffffffffffffffffffffffffffffffffff\n      and\n      0xffffffffffffffffffffffffffffffffffffffff\n      and\n      dup2\n      mstore\n      0x20\n      add\n      swap1\n      dup2\n      mstore\n      0x20\n      add\n      0x00\n      keccak256\n      0x00\n        /* \"Campaign.sol\":1339:1393  campaignManagerMapper[newCampaignAddress] = msg.sender */\n      0x0100\n      exp\n      dup2\n      sload\n      dup2\n      0xffffffffffffffffffffffffffffffffffffffff\n      mul\n      not\n      and\n      swap1\n      dup4\n      0xffffffffffffffffffffffffffffffffffffffff\n      and\n      mul\n      or\n      swap1\n      sstore\n      pop\n        /* \"Campaign.sol\":797:1400  function createCampaign(uint minContrib, string memory campaignTitle, string memory campaignDescription) public {... */\n      pop\n      pop\n      pop\n      pop\n      jump\t// out\n    tag_60:\n      dataSize(sub_0)\n      dup1\n      dataOffset(sub_0)\n      dup4\n      codecopy\n      add\n      swap1\n      jump\t// out\n        /* \"#utility.yul\":7:352   */\n    tag_67:\n        /* \"#utility.yul\":85:90   */\n      0x00\n        /* \"#utility.yul\":110:176   */\n      tag_69\n        /* \"#utility.yul\":126:175   */\n      tag_70\n        /* \"#utility.yul\":168:174   */\n      dup5\n        /* \"#utility.yul\":126:175   */\n      tag_71\n      jump\t// in\n    tag_70:\n        /* \"#utility.yul\":110:176   */\n      tag_72\n      jump\t// in\n    tag_69:\n        /* \"#utility.yul\":101:176   */\n      swap1\n      pop\n        /* \"#utility.yul\":199:205   */\n      dup3\n        /* \"#utility.yul\":192:197   */\n      dup2\n        /* \"#utility.yul\":185:206   */\n      mstore\n        /* \"#utility.yul\":237:241   */\n      0x20\n        /* \"#utility.yul\":230:235   */\n      dup2\n        /* \"#utility.yul\":226:242   */\n      add\n        /* \"#utility.yul\":275:278   */\n      dup5\n        /* \"#utility.yul\":266:272   */\n      dup5\n        /* \"#utility.yul\":261:264   */\n      dup5\n        /* \"#utility.yul\":257:273   */\n      add\n        /* \"#utility.yul\":254:279   */\n      gt\n        /* \"#utility.yul\":251:253   */\n      iszero\n      tag_73\n      jumpi\n        /* \"#utility.yul\":292:293   */\n      0x00\n        /* \"#utility.yul\":289:290   */\n      dup1\n        /* \"#utility.yul\":282:294   */\n      revert\n        /* \"#utility.yul\":251:253   */\n    tag_73:\n        /* \"#utility.yul\":305:346   */\n      tag_74\n        /* \"#utility.yul\":339:345   */\n      dup5\n        /* \"#utility.yul\":334:337   */\n      dup3\n        /* \"#utility.yul\":329:332   */\n      dup6\n        /* \"#utility.yul\":305:346   */\n      tag_75\n      jump\t// in\n    tag_74:\n        /* \"#utility.yul\":91:352   */\n      pop\n      swap4\n      swap3\n      pop\n      pop\n      pop\n      jump\t// out\n        /* \"#utility.yul\":358:497   */\n    tag_76:\n        /* \"#utility.yul\":404:409   */\n      0x00\n        /* \"#utility.yul\":442:448   */\n      dup2\n        /* \"#utility.yul\":429:449   */\n      calldataload\n        /* \"#utility.yul\":420:449   */\n      swap1\n      pop\n        /* \"#utility.yul\":458:491   */\n      tag_78\n        /* \"#utility.yul\":485:490   */\n      dup2\n        /* \"#utility.yul\":458:491   */\n      tag_79\n      jump\t// in\n    tag_78:\n        /* \"#utility.yul\":410:497   */\n      swap3\n      swap2\n      pop\n      pop\n      jump\t// out\n        /* \"#utility.yul\":517:790   */\n    tag_80:\n        /* \"#utility.yul\":573:578   */\n      0x00\n        /* \"#utility.yul\":622:625   */\n      dup3\n        /* \"#utility.yul\":615:619   */\n      0x1f\n        /* \"#utility.yul\":607:613   */\n      dup4\n        /* \"#utility.yul\":603:620   */\n      add\n        /* \"#utility.yul\":599:626   */\n      slt\n        /* \"#utility.yul\":589:591   */\n      tag_82\n      jumpi\n        /* \"#utility.yul\":640:641   */\n      0x00\n        /* \"#utility.yul\":637:638   */\n      dup1\n        /* \"#utility.yul\":630:642   */\n      revert\n        /* \"#utility.yul\":589:591   */\n    tag_82:\n        /* \"#utility.yul\":680:686   */\n      dup2\n        /* \"#utility.yul\":667:687   */\n      calldataload\n        /* \"#utility.yul\":705:784   */\n      tag_83\n        /* \"#utility.yul\":780:783   */\n      dup5\n        /* \"#utility.yul\":772:778   */\n      dup3\n        /* \"#utility.yul\":765:769   */\n      0x20\n        /* \"#utility.yul\":757:763   */\n      dup7\n        /* \"#utility.yul\":753:770   */\n      add\n        /* \"#utility.yul\":705:784   */\n      tag_67\n      jump\t// in\n    tag_83:\n        /* \"#utility.yul\":696:784   */\n      swap2\n      pop\n        /* \"#utility.yul\":579:790   */\n      pop\n      swap3\n      swap2\n      pop\n      pop\n      jump\t// out\n        /* \"#utility.yul\":796:935   */\n    tag_84:\n        /* \"#utility.yul\":842:847   */\n      0x00\n        /* \"#utility.yul\":880:886   */\n      dup2\n        /* \"#utility.yul\":867:887   */\n      calldataload\n        /* \"#utility.yul\":858:887   */\n      swap1\n      pop\n        /* \"#utility.yul\":896:929   */\n      tag_86\n        /* \"#utility.yul\":923:928   */\n      dup2\n        /* \"#utility.yul\":896:929   */\n      tag_87\n      jump\t// in\n    tag_86:\n        /* \"#utility.yul\":848:935   */\n      swap3\n      swap2\n      pop\n      pop\n      jump\t// out\n        /* \"#utility.yul\":941:1203   */\n    tag_14:\n        /* \"#utility.yul\":1000:1006   */\n      0x00\n        /* \"#utility.yul\":1049:1051   */\n      0x20\n        /* \"#utility.yul\":1037:1046   */\n      dup3\n        /* \"#utility.yul\":1028:1035   */\n      dup5\n        /* \"#utility.yul\":1024:1047   */\n      sub\n        /* \"#utility.yul\":1020:1052   */\n      slt\n        /* \"#utility.yul\":1017:1019   */\n      iszero\n      tag_89\n      jumpi\n        /* \"#utility.yul\":1065:1066   */\n      0x00\n        /* \"#utility.yul\":1062:1063   */\n      dup1\n        /* \"#utility.yul\":1055:1067   */\n      revert\n        /* \"#utility.yul\":1017:1019   */\n    tag_89:\n        /* \"#utility.yul\":1108:1109   */\n      0x00\n        /* \"#utility.yul\":1133:1186   */\n      tag_90\n        /* \"#utility.yul\":1178:1185   */\n      dup5\n        /* \"#utility.yul\":1169:1175   */\n      dup3\n        /* \"#utility.yul\":1158:1167   */\n      dup6\n        /* \"#utility.yul\":1154:1176   */\n      add\n        /* \"#utility.yul\":1133:1186   */\n      tag_76\n      jump\t// in\n    tag_90:\n        /* \"#utility.yul\":1123:1186   */\n      swap2\n      pop\n        /* \"#utility.yul\":1079:1196   */\n      pop\n        /* \"#utility.yul\":1007:1203   */\n      swap3\n      swap2\n      pop\n      pop\n      jump\t// out\n        /* \"#utility.yul\":1209:1616   */\n    tag_40:\n        /* \"#utility.yul\":1277:1283   */\n      0x00\n        /* \"#utility.yul\":1285:1291   */\n      dup1\n        /* \"#utility.yul\":1334:1336   */\n      0x40\n        /* \"#utility.yul\":1322:1331   */\n      dup4\n        /* \"#utility.yul\":1313:1320   */\n      dup6\n        /* \"#utility.yul\":1309:1332   */\n      sub\n        /* \"#utility.yul\":1305:1337   */\n      slt\n        /* \"#utility.yul\":1302:1304   */\n      iszero\n      tag_92\n      jumpi\n        /* \"#utility.yul\":1350:1351   */\n      0x00\n        /* \"#utility.yul\":1347:1348   */\n      dup1\n        /* \"#utility.yul\":1340:1352   */\n      revert\n        /* \"#utility.yul\":1302:1304   */\n    tag_92:\n        /* \"#utility.yul\":1393:1394   */\n      0x00\n        /* \"#utility.yul\":1418:1471   */\n      tag_93\n        /* \"#utility.yul\":1463:1470   */\n      dup6\n        /* \"#utility.yul\":1454:1460   */\n      dup3\n        /* \"#utility.yul\":1443:1452   */\n      dup7\n        /* \"#utility.yul\":1439:1461   */\n      add\n        /* \"#utility.yul\":1418:1471   */\n      tag_76\n      jump\t// in\n    tag_93:\n        /* \"#utility.yul\":1408:1471   */\n      swap3\n      pop\n        /* \"#utility.yul\":1364:1481   */\n      pop\n        /* \"#utility.yul\":1520:1522   */\n      0x20\n        /* \"#utility.yul\":1546:1599   */\n      tag_94\n        /* \"#utility.yul\":1591:1598   */\n      dup6\n        /* \"#utility.yul\":1582:1588   */\n      dup3\n        /* \"#utility.yul\":1571:1580   */\n      dup7\n        /* \"#utility.yul\":1567:1589   */\n      add\n        /* \"#utility.yul\":1546:1599   */\n      tag_84\n      jump\t// in\n    tag_94:\n        /* \"#utility.yul\":1536:1599   */\n      swap2\n      pop\n        /* \"#utility.yul\":1491:1609   */\n      pop\n        /* \"#utility.yul\":1292:1616   */\n      swap3\n      pop\n      swap3\n      swap1\n      pop\n      jump\t// out\n        /* \"#utility.yul\":1622:1884   */\n    tag_25:\n        /* \"#utility.yul\":1681:1687   */\n      0x00\n        /* \"#utility.yul\":1730:1732   */\n      0x20\n        /* \"#utility.yul\":1718:1727   */\n      dup3\n        /* \"#utility.yul\":1709:1716   */\n      dup5\n        /* \"#utility.yul\":1705:1728   */\n      sub\n        /* \"#utility.yul\":1701:1733   */\n      slt\n        /* \"#utility.yul\":1698:1700   */\n      iszero\n      tag_96\n      jumpi\n        /* \"#utility.yul\":1746:1747   */\n      0x00\n        /* \"#utility.yul\":1743:1744   */\n      dup1\n        /* \"#utility.yul\":1736:1748   */\n      revert\n        /* \"#utility.yul\":1698:1700   */\n    tag_96:\n        /* \"#utility.yul\":1789:1790   */\n      0x00\n        /* \"#utility.yul\":1814:1867   */\n      tag_97\n        /* \"#utility.yul\":1859:1866   */\n      dup5\n        /* \"#utility.yul\":1850:1856   */\n      dup3\n        /* \"#utility.yul\":1839:1848   */\n      dup6\n        /* \"#utility.yul\":1835:1857   */\n      add\n        /* \"#utility.yul\":1814:1867   */\n      tag_84\n      jump\t// in\n    tag_97:\n        /* \"#utility.yul\":1804:1867   */\n      swap2\n      pop\n        /* \"#utility.yul\":1760:1877   */\n      pop\n        /* \"#utility.yul\":1688:1884   */\n      swap3\n      swap2\n      pop\n      pop\n      jump\t// out\n        /* \"#utility.yul\":1890:2668   */\n    tag_45:\n        /* \"#utility.yul\":1987:1993   */\n      0x00\n        /* \"#utility.yul\":1995:2001   */\n      dup1\n        /* \"#utility.yul\":2003:2009   */\n      0x00\n        /* \"#utility.yul\":2052:2054   */\n      0x60\n        /* \"#utility.yul\":2040:2049   */\n      dup5\n        /* \"#utility.yul\":2031:2038   */\n      dup7\n        /* \"#utility.yul\":2027:2050   */\n      sub\n        /* \"#utility.yul\":2023:2055   */\n      slt\n        /* \"#utility.yul\":2020:2022   */\n      iszero\n      tag_99\n      jumpi\n        /* \"#utility.yul\":2068:2069   */\n      0x00\n        /* \"#utility.yul\":2065:2066   */\n      dup1\n        /* \"#utility.yul\":2058:2070   */\n      revert\n        /* \"#utility.yul\":2020:2022   */\n    tag_99:\n        /* \"#utility.yul\":2111:2112   */\n      0x00\n        /* \"#utility.yul\":2136:2189   */\n      tag_100\n        /* \"#utility.yul\":2181:2188   */\n      dup7\n        /* \"#utility.yul\":2172:2178   */\n      dup3\n        /* \"#utility.yul\":2161:2170   */\n      dup8\n        /* \"#utility.yul\":2157:2179   */\n      add\n        /* \"#utility.yul\":2136:2189   */\n      tag_84\n      jump\t// in\n    tag_100:\n        /* \"#utility.yul\":2126:2189   */\n      swap4\n      pop\n        /* \"#utility.yul\":2082:2199   */\n      pop\n        /* \"#utility.yul\":2266:2268   */\n      0x20\n        /* \"#utility.yul\":2255:2264   */\n      dup5\n        /* \"#utility.yul\":2251:2269   */\n      add\n        /* \"#utility.yul\":2238:2270   */\n      calldataload\n        /* \"#utility.yul\":2297:2315   */\n      0xffffffffffffffff\n        /* \"#utility.yul\":2289:2295   */\n      dup2\n        /* \"#utility.yul\":2286:2316   */\n      gt\n        /* \"#utility.yul\":2283:2285   */\n      iszero\n      tag_101\n      jumpi\n        /* \"#utility.yul\":2329:2330   */\n      0x00\n        /* \"#utility.yul\":2326:2327   */\n      dup1\n        /* \"#utility.yul\":2319:2331   */\n      revert\n        /* \"#utility.yul\":2283:2285   */\n    tag_101:\n        /* \"#utility.yul\":2357:2420   */\n      tag_102\n        /* \"#utility.yul\":2412:2419   */\n      dup7\n        /* \"#utility.yul\":2403:2409   */\n      dup3\n        /* \"#utility.yul\":2392:2401   */\n      dup8\n        /* \"#utility.yul\":2388:2410   */\n      add\n        /* \"#utility.yul\":2357:2420   */\n      tag_80\n      jump\t// in\n    tag_102:\n        /* \"#utility.yul\":2347:2420   */\n      swap3\n      pop\n        /* \"#utility.yul\":2209:2430   */\n      pop\n        /* \"#utility.yul\":2497:2499   */\n      0x40\n        /* \"#utility.yul\":2486:2495   */\n      dup5\n        /* \"#utility.yul\":2482:2500   */\n      add\n        /* \"#utility.yul\":2469:2501   */\n      calldataload\n        /* \"#utility.yul\":2528:2546   */\n      0xffffffffffffffff\n        /* \"#utility.yul\":2520:2526   */\n      dup2\n        /* \"#utility.yul\":2517:2547   */\n      gt\n        /* \"#utility.yul\":2514:2516   */\n      iszero\n      tag_103\n      jumpi\n        /* \"#utility.yul\":2560:2561   */\n      0x00\n        /* \"#utility.yul\":2557:2558   */\n      dup1\n        /* \"#utility.yul\":2550:2562   */\n      revert\n        /* \"#utility.yul\":2514:2516   */\n    tag_103:\n        /* \"#utility.yul\":2588:2651   */\n      tag_104\n        /* \"#utility.yul\":2643:2650   */\n      dup7\n        /* \"#utility.yul\":2634:2640   */\n      dup3\n        /* \"#utility.yul\":2623:2632   */\n      dup8\n        /* \"#utility.yul\":2619:2641   */\n      add\n        /* \"#utility.yul\":2588:2651   */\n      tag_80\n      jump\t// in\n    tag_104:\n        /* \"#utility.yul\":2578:2651   */\n      swap2\n      pop\n        /* \"#utility.yul\":2440:2661   */\n      pop\n        /* \"#utility.yul\":2010:2668   */\n      swap3\n      pop\n      swap3\n      pop\n      swap3\n      jump\t// out\n        /* \"#utility.yul\":2674:2853   */\n    tag_105:\n        /* \"#utility.yul\":2743:2753   */\n      0x00\n        /* \"#utility.yul\":2764:2810   */\n      tag_107\n        /* \"#utility.yul\":2806:2809   */\n      dup4\n        /* \"#utility.yul\":2798:2804   */\n      dup4\n        /* \"#utility.yul\":2764:2810   */\n      tag_108\n      jump\t// in\n    tag_107:\n        /* \"#utility.yul\":2842:2846   */\n      0x20\n        /* \"#utility.yul\":2837:2840   */\n      dup4\n        /* \"#utility.yul\":2833:2847   */\n      add\n        /* \"#utility.yul\":2819:2847   */\n      swap1\n      pop\n        /* \"#utility.yul\":2754:2853   */\n      swap3\n      swap2\n      pop\n      pop\n      jump\t// out\n        /* \"#utility.yul\":2859:2967   */\n    tag_108:\n        /* \"#utility.yul\":2936:2960   */\n      tag_110\n        /* \"#utility.yul\":2954:2959   */\n      dup2\n        /* \"#utility.yul\":2936:2960   */\n      tag_111\n      jump\t// in\n    tag_110:\n        /* \"#utility.yul\":2931:2934   */\n      dup3\n        /* \"#utility.yul\":2924:2961   */\n      mstore\n        /* \"#utility.yul\":2914:2967   */\n      pop\n      pop\n      jump\t// out\n        /* \"#utility.yul\":2973:3091   */\n    tag_112:\n        /* \"#utility.yul\":3060:3084   */\n      tag_114\n        /* \"#utility.yul\":3078:3083   */\n      dup2\n        /* \"#utility.yul\":3060:3084   */\n      tag_111\n      jump\t// in\n    tag_114:\n        /* \"#utility.yul\":3055:3058   */\n      dup3\n        /* \"#utility.yul\":3048:3085   */\n      mstore\n        /* \"#utility.yul\":3038:3091   */\n      pop\n      pop\n      jump\t// out\n        /* \"#utility.yul\":3127:3859   */\n    tag_115:\n        /* \"#utility.yul\":3246:3249   */\n      0x00\n        /* \"#utility.yul\":3275:3329   */\n      tag_117\n        /* \"#utility.yul\":3323:3328   */\n      dup3\n        /* \"#utility.yul\":3275:3329   */\n      tag_118\n      jump\t// in\n    tag_117:\n        /* \"#utility.yul\":3345:3431   */\n      tag_119\n        /* \"#utility.yul\":3424:3430   */\n      dup2\n        /* \"#utility.yul\":3419:3422   */\n      dup6\n        /* \"#utility.yul\":3345:3431   */\n      tag_120\n      jump\t// in\n    tag_119:\n        /* \"#utility.yul\":3338:3431   */\n      swap4\n      pop\n        /* \"#utility.yul\":3455:3511   */\n      tag_121\n        /* \"#utility.yul\":3505:3510   */\n      dup4\n        /* \"#utility.yul\":3455:3511   */\n      tag_122\n      jump\t// in\n    tag_121:\n        /* \"#utility.yul\":3534:3541   */\n      dup1\n        /* \"#utility.yul\":3565:3566   */\n      0x00\n        /* \"#utility.yul\":3550:3834   */\n    tag_123:\n        /* \"#utility.yul\":3575:3581   */\n      dup4\n        /* \"#utility.yul\":3572:3573   */\n      dup2\n        /* \"#utility.yul\":3569:3582   */\n      lt\n        /* \"#utility.yul\":3550:3834   */\n      iszero\n      tag_125\n      jumpi\n        /* \"#utility.yul\":3651:3657   */\n      dup2\n        /* \"#utility.yul\":3645:3658   */\n      mload\n        /* \"#utility.yul\":3678:3741   */\n      tag_126\n        /* \"#utility.yul\":3737:3740   */\n      dup9\n        /* \"#utility.yul\":3722:3735   */\n      dup3\n        /* \"#utility.yul\":3678:3741   */\n      tag_105\n      jump\t// in\n    tag_126:\n        /* \"#utility.yul\":3671:3741   */\n      swap8\n      pop\n        /* \"#utility.yul\":3764:3824   */\n      tag_127\n        /* \"#utility.yul\":3817:3823   */\n      dup4\n        /* \"#utility.yul\":3764:3824   */\n      tag_128\n      jump\t// in\n    tag_127:\n        /* \"#utility.yul\":3754:3824   */\n      swap3\n      pop\n        /* \"#utility.yul\":3610:3834   */\n      pop\n        /* \"#utility.yul\":3597:3598   */\n      0x01\n        /* \"#utility.yul\":3594:3595   */\n      dup2\n        /* \"#utility.yul\":3590:3599   */\n      add\n        /* \"#utility.yul\":3585:3599   */\n      swap1\n      pop\n        /* \"#utility.yul\":3550:3834   */\n      jump(tag_123)\n    tag_125:\n        /* \"#utility.yul\":3554:3568   */\n      pop\n        /* \"#utility.yul\":3850:3853   */\n      dup6\n        /* \"#utility.yul\":3843:3853   */\n      swap4\n      pop\n        /* \"#utility.yul\":3251:3859   */\n      pop\n      pop\n      pop\n      swap3\n      swap2\n      pop\n      pop\n      jump\t// out\n        /* \"#utility.yul\":3865:4229   */\n    tag_129:\n        /* \"#utility.yul\":3953:3956   */\n      0x00\n        /* \"#utility.yul\":3981:4020   */\n      tag_131\n        /* \"#utility.yul\":4014:4019   */\n      dup3\n        /* \"#utility.yul\":3981:4020   */\n      tag_132\n      jump\t// in\n    tag_131:\n        /* \"#utility.yul\":4036:4107   */\n      tag_133\n        /* \"#utility.yul\":4100:4106   */\n      dup2\n        /* \"#utility.yul\":4095:4098   */\n      dup6\n        /* \"#utility.yul\":4036:4107   */\n      tag_134\n      jump\t// in\n    tag_133:\n        /* \"#utility.yul\":4029:4107   */\n      swap4\n      pop\n        /* \"#utility.yul\":4116:4168   */\n      tag_135\n        /* \"#utility.yul\":4161:4167   */\n      dup2\n        /* \"#utility.yul\":4156:4159   */\n      dup6\n        /* \"#utility.yul\":4149:4153   */\n      0x20\n        /* \"#utility.yul\":4142:4147   */\n      dup7\n        /* \"#utility.yul\":4138:4154   */\n      add\n        /* \"#utility.yul\":4116:4168   */\n      tag_136\n      jump\t// in\n    tag_135:\n        /* \"#utility.yul\":4193:4222   */\n      tag_137\n        /* \"#utility.yul\":4215:4221   */\n      dup2\n        /* \"#utility.yul\":4193:4222   */\n      tag_138\n      jump\t// in\n    tag_137:\n        /* \"#utility.yul\":4188:4191   */\n      dup5\n        /* \"#utility.yul\":4184:4223   */\n      add\n        /* \"#utility.yul\":4177:4223   */\n      swap2\n      pop\n        /* \"#utility.yul\":3957:4229   */\n      pop\n      swap3\n      swap2\n      pop\n      pop\n      jump\t// out\n        /* \"#utility.yul\":4235:4353   */\n    tag_139:\n        /* \"#utility.yul\":4322:4346   */\n      tag_141\n        /* \"#utility.yul\":4340:4345   */\n      dup2\n        /* \"#utility.yul\":4322:4346   */\n      tag_142\n      jump\t// in\n    tag_141:\n        /* \"#utility.yul\":4317:4320   */\n      dup3\n        /* \"#utility.yul\":4310:4347   */\n      mstore\n        /* \"#utility.yul\":4300:4353   */\n      pop\n      pop\n      jump\t// out\n        /* \"#utility.yul\":4359:4581   */\n    tag_22:\n        /* \"#utility.yul\":4452:4456   */\n      0x00\n        /* \"#utility.yul\":4490:4492   */\n      0x20\n        /* \"#utility.yul\":4479:4488   */\n      dup3\n        /* \"#utility.yul\":4475:4493   */\n      add\n        /* \"#utility.yul\":4467:4493   */\n      swap1\n      pop\n        /* \"#utility.yul\":4503:4574   */\n      tag_144\n        /* \"#utility.yul\":4571:4572   */\n      0x00\n        /* \"#utility.yul\":4560:4569   */\n      dup4\n        /* \"#utility.yul\":4556:4573   */\n      add\n        /* \"#utility.yul\":4547:4553   */\n      dup5\n        /* \"#utility.yul\":4503:4574   */\n      tag_112\n      jump\t// in\n    tag_144:\n        /* \"#utility.yul\":4457:4581   */\n      swap3\n      swap2\n      pop\n      pop\n      jump\t// out\n        /* \"#utility.yul\":4587:4960   */\n    tag_17:\n        /* \"#utility.yul\":4730:4734   */\n      0x00\n        /* \"#utility.yul\":4768:4770   */\n      0x20\n        /* \"#utility.yul\":4757:4766   */\n      dup3\n        /* \"#utility.yul\":4753:4771   */\n      add\n        /* \"#utility.yul\":4745:4771   */\n      swap1\n      pop\n        /* \"#utility.yul\":4817:4826   */\n      dup2\n        /* \"#utility.yul\":4811:4815   */\n      dup2\n        /* \"#utility.yul\":4807:4827   */\n      sub\n        /* \"#utility.yul\":4803:4804   */\n      0x00\n        /* \"#utility.yul\":4792:4801   */\n      dup4\n        /* \"#utility.yul\":4788:4805   */\n      add\n        /* \"#utility.yul\":4781:4828   */\n      mstore\n        /* \"#utility.yul\":4845:4953   */\n      tag_146\n        /* \"#utility.yul\":4948:4952   */\n      dup2\n        /* \"#utility.yul\":4939:4945   */\n      dup5\n        /* \"#utility.yul\":4845:4953   */\n      tag_115\n      jump\t// in\n    tag_146:\n        /* \"#utility.yul\":4837:4953   */\n      swap1\n      pop\n        /* \"#utility.yul\":4735:4960   */\n      swap3\n      swap2\n      pop\n      pop\n      jump\t// out\n        /* \"#utility.yul\":4966:5701   */\n    tag_62:\n        /* \"#utility.yul\":5183:5187   */\n      0x00\n        /* \"#utility.yul\":5221:5224   */\n      0x80\n        /* \"#utility.yul\":5210:5219   */\n      dup3\n        /* \"#utility.yul\":5206:5225   */\n      add\n        /* \"#utility.yul\":5198:5225   */\n      swap1\n      pop\n        /* \"#utility.yul\":5235:5306   */\n      tag_148\n        /* \"#utility.yul\":5303:5304   */\n      0x00\n        /* \"#utility.yul\":5292:5301   */\n      dup4\n        /* \"#utility.yul\":5288:5305   */\n      add\n        /* \"#utility.yul\":5279:5285   */\n      dup8\n        /* \"#utility.yul\":5235:5306   */\n      tag_139\n      jump\t// in\n    tag_148:\n        /* \"#utility.yul\":5353:5362   */\n      dup2\n        /* \"#utility.yul\":5347:5351   */\n      dup2\n        /* \"#utility.yul\":5343:5363   */\n      sub\n        /* \"#utility.yul\":5338:5340   */\n      0x20\n        /* \"#utility.yul\":5327:5336   */\n      dup4\n        /* \"#utility.yul\":5323:5341   */\n      add\n        /* \"#utility.yul\":5316:5364   */\n      mstore\n        /* \"#utility.yul\":5381:5459   */\n      tag_149\n        /* \"#utility.yul\":5454:5458   */\n      dup2\n        /* \"#utility.yul\":5445:5451   */\n      dup7\n        /* \"#utility.yul\":5381:5459   */\n      tag_129\n      jump\t// in\n    tag_149:\n        /* \"#utility.yul\":5373:5459   */\n      swap1\n      pop\n        /* \"#utility.yul\":5506:5515   */\n      dup2\n        /* \"#utility.yul\":5500:5504   */\n      dup2\n        /* \"#utility.yul\":5496:5516   */\n      sub\n        /* \"#utility.yul\":5491:5493   */\n      0x40\n        /* \"#utility.yul\":5480:5489   */\n      dup4\n        /* \"#utility.yul\":5476:5494   */\n      add\n        /* \"#utility.yul\":5469:5517   */\n      mstore\n        /* \"#utility.yul\":5534:5612   */\n      tag_150\n        /* \"#utility.yul\":5607:5611   */\n      dup2\n        /* \"#utility.yul\":5598:5604   */\n      dup6\n        /* \"#utility.yul\":5534:5612   */\n      tag_129\n      jump\t// in\n    tag_150:\n        /* \"#utility.yul\":5526:5612   */\n      swap1\n      pop\n        /* \"#utility.yul\":5622:5694   */\n      tag_151\n        /* \"#utility.yul\":5690:5692   */\n      0x60\n        /* \"#utility.yul\":5679:5688   */\n      dup4\n        /* \"#utility.yul\":5675:5693   */\n      add\n        /* \"#utility.yul\":5666:5672   */\n      dup5\n        /* \"#utility.yul\":5622:5694   */\n      tag_112\n      jump\t// in\n    tag_151:\n        /* \"#utility.yul\":5188:5701   */\n      swap6\n      swap5\n      pop\n      pop\n      pop\n      pop\n      pop\n      jump\t// out\n        /* \"#utility.yul\":5707:5836   */\n    tag_72:\n        /* \"#utility.yul\":5741:5747   */\n      0x00\n        /* \"#utility.yul\":5768:5788   */\n      tag_153\n      tag_154\n      jump\t// in\n    tag_153:\n        /* \"#utility.yul\":5758:5788   */\n      swap1\n      pop\n        /* \"#utility.yul\":5797:5830   */\n      tag_155\n        /* \"#utility.yul\":5825:5829   */\n      dup3\n        /* \"#utility.yul\":5817:5823   */\n      dup3\n        /* \"#utility.yul\":5797:5830   */\n      tag_156\n      jump\t// in\n    tag_155:\n        /* \"#utility.yul\":5748:5836   */\n      swap2\n      swap1\n      pop\n      jump\t// out\n        /* \"#utility.yul\":5842:5917   */\n    tag_154:\n        /* \"#utility.yul\":5875:5881   */\n      0x00\n        /* \"#utility.yul\":5908:5910   */\n      0x40\n        /* \"#utility.yul\":5902:5911   */\n      mload\n        /* \"#utility.yul\":5892:5911   */\n      swap1\n      pop\n        /* \"#utility.yul\":5882:5917   */\n      swap1\n      jump\t// out\n        /* \"#utility.yul\":5923:6231   */\n    tag_71:\n        /* \"#utility.yul\":5985:5989   */\n      0x00\n        /* \"#utility.yul\":6075:6093   */\n      0xffffffffffffffff\n        /* \"#utility.yul\":6067:6073   */\n      dup3\n        /* \"#utility.yul\":6064:6094   */\n      gt\n        /* \"#utility.yul\":6061:6063   */\n      iszero\n      tag_159\n      jumpi\n        /* \"#utility.yul\":6097:6115   */\n      tag_160\n      tag_161\n      jump\t// in\n    tag_160:\n        /* \"#utility.yul\":6061:6063   */\n    tag_159:\n        /* \"#utility.yul\":6135:6164   */\n      tag_162\n        /* \"#utility.yul\":6157:6163   */\n      dup3\n        /* \"#utility.yul\":6135:6164   */\n      tag_138\n      jump\t// in\n    tag_162:\n        /* \"#utility.yul\":6127:6164   */\n      swap1\n      pop\n        /* \"#utility.yul\":6219:6223   */\n      0x20\n        /* \"#utility.yul\":6213:6217   */\n      dup2\n        /* \"#utility.yul\":6209:6224   */\n      add\n        /* \"#utility.yul\":6201:6224   */\n      swap1\n      pop\n        /* \"#utility.yul\":5990:6231   */\n      swap2\n      swap1\n      pop\n      jump\t// out\n        /* \"#utility.yul\":6237:6369   */\n    tag_122:\n        /* \"#utility.yul\":6304:6308   */\n      0x00\n        /* \"#utility.yul\":6327:6330   */\n      dup2\n        /* \"#utility.yul\":6319:6330   */\n      swap1\n      pop\n        /* \"#utility.yul\":6357:6361   */\n      0x20\n        /* \"#utility.yul\":6352:6355   */\n      dup3\n        /* \"#utility.yul\":6348:6362   */\n      add\n        /* \"#utility.yul\":6340:6362   */\n      swap1\n      pop\n        /* \"#utility.yul\":6309:6369   */\n      swap2\n      swap1\n      pop\n      jump\t// out\n        /* \"#utility.yul\":6375:6489   */\n    tag_118:\n        /* \"#utility.yul\":6442:6448   */\n      0x00\n        /* \"#utility.yul\":6476:6481   */\n      dup2\n        /* \"#utility.yul\":6470:6482   */\n      mload\n        /* \"#utility.yul\":6460:6482   */\n      swap1\n      pop\n        /* \"#utility.yul\":6449:6489   */\n      swap2\n      swap1\n      pop\n      jump\t// out\n        /* \"#utility.yul\":6495:6594   */\n    tag_132:\n        /* \"#utility.yul\":6547:6553   */\n      0x00\n        /* \"#utility.yul\":6581:6586   */\n      dup2\n        /* \"#utility.yul\":6575:6587   */\n      mload\n        /* \"#utility.yul\":6565:6587   */\n      swap1\n      pop\n        /* \"#utility.yul\":6554:6594   */\n      swap2\n      swap1\n      pop\n      jump\t// out\n        /* \"#utility.yul\":6600:6713   */\n    tag_128:\n        /* \"#utility.yul\":6670:6674   */\n      0x00\n        /* \"#utility.yul\":6702:6706   */\n      0x20\n        /* \"#utility.yul\":6697:6700   */\n      dup3\n        /* \"#utility.yul\":6693:6707   */\n      add\n        /* \"#utility.yul\":6685:6707   */\n      swap1\n      pop\n        /* \"#utility.yul\":6675:6713   */\n      swap2\n      swap1\n      pop\n      jump\t// out\n        /* \"#utility.yul\":6719:6903   */\n    tag_120:\n        /* \"#utility.yul\":6818:6829   */\n      0x00\n        /* \"#utility.yul\":6852:6858   */\n      dup3\n        /* \"#utility.yul\":6847:6850   */\n      dup3\n        /* \"#utility.yul\":6840:6859   */\n      mstore\n        /* \"#utility.yul\":6892:6896   */\n      0x20\n        /* \"#utility.yul\":6887:6890   */\n      dup3\n        /* \"#utility.yul\":6883:6897   */\n      add\n        /* \"#utility.yul\":6868:6897   */\n      swap1\n      pop\n        /* \"#utility.yul\":6830:6903   */\n      swap3\n      swap2\n      pop\n      pop\n      jump\t// out\n        /* \"#utility.yul\":6909:7078   */\n    tag_134:\n        /* \"#utility.yul\":6993:7004   */\n      0x00\n        /* \"#utility.yul\":7027:7033   */\n      dup3\n        /* \"#utility.yul\":7022:7025   */\n      dup3\n        /* \"#utility.yul\":7015:7034   */\n      mstore\n        /* \"#utility.yul\":7067:7071   */\n      0x20\n        /* \"#utility.yul\":7062:7065   */\n      dup3\n        /* \"#utility.yul\":7058:7072   */\n      add\n        /* \"#utility.yul\":7043:7072   */\n      swap1\n      pop\n        /* \"#utility.yul\":7005:7078   */\n      swap3\n      swap2\n      pop\n      pop\n      jump\t// out\n        /* \"#utility.yul\":7084:7180   */\n    tag_111:\n        /* \"#utility.yul\":7121:7128   */\n      0x00\n        /* \"#utility.yul\":7150:7174   */\n      tag_170\n        /* \"#utility.yul\":7168:7173   */\n      dup3\n        /* \"#utility.yul\":7150:7174   */\n      tag_171\n      jump\t// in\n    tag_170:\n        /* \"#utility.yul\":7139:7174   */\n      swap1\n      pop\n        /* \"#utility.yul\":7129:7180   */\n      swap2\n      swap1\n      pop\n      jump\t// out\n        /* \"#utility.yul\":7186:7312   */\n    tag_171:\n        /* \"#utility.yul\":7223:7230   */\n      0x00\n        /* \"#utility.yul\":7263:7305   */\n      0xffffffffffffffffffffffffffffffffffffffff\n        /* \"#utility.yul\":7256:7261   */\n      dup3\n        /* \"#utility.yul\":7252:7306   */\n      and\n        /* \"#utility.yul\":7241:7306   */\n      swap1\n      pop\n        /* \"#utility.yul\":7231:7312   */\n      swap2\n      swap1\n      pop\n      jump\t// out\n        /* \"#utility.yul\":7318:7395   */\n    tag_142:\n        /* \"#utility.yul\":7355:7362   */\n      0x00\n        /* \"#utility.yul\":7384:7389   */\n      dup2\n        /* \"#utility.yul\":7373:7389   */\n      swap1\n      pop\n        /* \"#utility.yul\":7363:7395   */\n      swap2\n      swap1\n      pop\n      jump\t// out\n        /* \"#utility.yul\":7401:7555   */\n    tag_75:\n        /* \"#utility.yul\":7485:7491   */\n      dup3\n        /* \"#utility.yul\":7480:7483   */\n      dup2\n        /* \"#utility.yul\":7475:7478   */\n      dup4\n        /* \"#utility.yul\":7462:7492   */\n      calldatacopy\n        /* \"#utility.yul\":7547:7548   */\n      0x00\n        /* \"#utility.yul\":7538:7544   */\n      dup4\n        /* \"#utility.yul\":7533:7536   */\n      dup4\n        /* \"#utility.yul\":7529:7545   */\n      add\n        /* \"#utility.yul\":7522:7549   */\n      mstore\n        /* \"#utility.yul\":7452:7555   */\n      pop\n      pop\n      pop\n      jump\t// out\n        /* \"#utility.yul\":7561:7868   */\n    tag_136:\n        /* \"#utility.yul\":7629:7630   */\n      0x00\n        /* \"#utility.yul\":7639:7752   */\n    tag_176:\n        /* \"#utility.yul\":7653:7659   */\n      dup4\n        /* \"#utility.yul\":7650:7651   */\n      dup2\n        /* \"#utility.yul\":7647:7660   */\n      lt\n        /* \"#utility.yul\":7639:7752   */\n      iszero\n      tag_178\n      jumpi\n        /* \"#utility.yul\":7738:7739   */\n      dup1\n        /* \"#utility.yul\":7733:7736   */\n      dup3\n        /* \"#utility.yul\":7729:7740   */\n      add\n        /* \"#utility.yul\":7723:7741   */\n      mload\n        /* \"#utility.yul\":7719:7720   */\n      dup2\n        /* \"#utility.yul\":7714:7717   */\n      dup5\n        /* \"#utility.yul\":7710:7721   */\n      add\n        /* \"#utility.yul\":7703:7742   */\n      mstore\n        /* \"#utility.yul\":7675:7677   */\n      0x20\n        /* \"#utility.yul\":7672:7673   */\n      dup2\n        /* \"#utility.yul\":7668:7678   */\n      add\n        /* \"#utility.yul\":7663:7678   */\n      swap1\n      pop\n        /* \"#utility.yul\":7639:7752   */\n      jump(tag_176)\n    tag_178:\n        /* \"#utility.yul\":7770:7776   */\n      dup4\n        /* \"#utility.yul\":7767:7768   */\n      dup2\n        /* \"#utility.yul\":7764:7777   */\n      gt\n        /* \"#utility.yul\":7761:7763   */\n      iszero\n      tag_179\n      jumpi\n        /* \"#utility.yul\":7850:7851   */\n      0x00\n        /* \"#utility.yul\":7841:7847   */\n      dup5\n        /* \"#utility.yul\":7836:7839   */\n      dup5\n        /* \"#utility.yul\":7832:7848   */\n      add\n        /* \"#utility.yul\":7825:7852   */\n      mstore\n        /* \"#utility.yul\":7761:7763   */\n    tag_179:\n        /* \"#utility.yul\":7610:7868   */\n      pop\n      pop\n      pop\n      pop\n      jump\t// out\n        /* \"#utility.yul\":7874:8155   */\n    tag_156:\n        /* \"#utility.yul\":7957:7984   */\n      tag_181\n        /* \"#utility.yul\":7979:7983   */\n      dup3\n        /* \"#utility.yul\":7957:7984   */\n      tag_138\n      jump\t// in\n    tag_181:\n        /* \"#utility.yul\":7949:7955   */\n      dup2\n        /* \"#utility.yul\":7945:7985   */\n      add\n        /* \"#utility.yul\":8087:8093   */\n      dup2\n        /* \"#utility.yul\":8075:8085   */\n      dup2\n        /* \"#utility.yul\":8072:8094   */\n      lt\n        /* \"#utility.yul\":8051:8069   */\n      0xffffffffffffffff\n        /* \"#utility.yul\":8039:8049   */\n      dup3\n        /* \"#utility.yul\":8036:8070   */\n      gt\n        /* \"#utility.yul\":8033:8095   */\n      or\n        /* \"#utility.yul\":8030:8032   */\n      iszero\n      tag_182\n      jumpi\n        /* \"#utility.yul\":8098:8116   */\n      tag_183\n      tag_161\n      jump\t// in\n    tag_183:\n        /* \"#utility.yul\":8030:8032   */\n    tag_182:\n        /* \"#utility.yul\":8138:8148   */\n      dup1\n        /* \"#utility.yul\":8134:8136   */\n      0x40\n        /* \"#utility.yul\":8127:8149   */\n      mstore\n        /* \"#utility.yul\":7917:8155   */\n      pop\n      pop\n      pop\n      jump\t// out\n        /* \"#utility.yul\":8161:8341   */\n    tag_161:\n        /* \"#utility.yul\":8209:8286   */\n      0x4e487b7100000000000000000000000000000000000000000000000000000000\n        /* \"#utility.yul\":8206:8207   */\n      0x00\n        /* \"#utility.yul\":8199:8287   */\n      mstore\n        /* \"#utility.yul\":8306:8310   */\n      0x41\n        /* \"#utility.yul\":8303:8304   */\n      0x04\n        /* \"#utility.yul\":8296:8311   */\n      mstore\n        /* \"#utility.yul\":8330:8334   */\n      0x24\n        /* \"#utility.yul\":8327:8328   */\n      0x00\n        /* \"#utility.yul\":8320:8335   */\n      revert\n        /* \"#utility.yul\":8347:8449   */\n    tag_138:\n        /* \"#utility.yul\":8388:8394   */\n      0x00\n        /* \"#utility.yul\":8439:8441   */\n      0x1f\n        /* \"#utility.yul\":8435:8442   */\n      not\n        /* \"#utility.yul\":8430:8432   */\n      0x1f\n        /* \"#utility.yul\":8423:8428   */\n      dup4\n        /* \"#utility.yul\":8419:8433   */\n      add\n        /* \"#utility.yul\":8415:8443   */\n      and\n        /* \"#utility.yul\":8405:8443   */\n      swap1\n      pop\n        /* \"#utility.yul\":8395:8449   */\n      swap2\n      swap1\n      pop\n      jump\t// out\n        /* \"#utility.yul\":8455:8577   */\n    tag_79:\n        /* \"#utility.yul\":8528:8552   */\n      tag_187\n        /* \"#utility.yul\":8546:8551   */\n      dup2\n        /* \"#utility.yul\":8528:8552   */\n      tag_111\n      jump\t// in\n    tag_187:\n        /* \"#utility.yul\":8521:8526   */\n      dup2\n        /* \"#utility.yul\":8518:8553   */\n      eq\n        /* \"#utility.yul\":8508:8510   */\n      tag_188\n      jumpi\n        /* \"#utility.yul\":8567:8568   */\n      0x00\n        /* \"#utility.yul\":8564:8565   */\n      dup1\n        /* \"#utility.yul\":8557:8569   */\n      revert\n        /* \"#utility.yul\":8508:8510   */\n    tag_188:\n        /* \"#utility.yul\":8498:8577   */\n      pop\n      jump\t// out\n        /* \"#utility.yul\":8583:8705   */\n    tag_87:\n        /* \"#utility.yul\":8656:8680   */\n      tag_190\n        /* \"#utility.yul\":8674:8679   */\n      dup2\n        /* \"#utility.yul\":8656:8680   */\n      tag_142\n      jump\t// in\n    tag_190:\n        /* \"#utility.yul\":8649:8654   */\n      dup2\n        /* \"#utility.yul\":8646:8681   */\n      eq\n        /* \"#utility.yul\":8636:8638   */\n      tag_191\n      jumpi\n        /* \"#utility.yul\":8695:8696   */\n      0x00\n        /* \"#utility.yul\":8692:8693   */\n      dup1\n        /* \"#utility.yul\":8685:8697   */\n      revert\n        /* \"#utility.yul\":8636:8638   */\n    tag_191:\n        /* \"#utility.yul\":8626:8705   */\n      pop\n      jump\t// out\n    stop\n\n    sub_0: assembly {\n            /* \"Campaign.sol\":1857:8159  contract Campaign{... */\n          mstore(0x40, 0x80)\n            /* \"Campaign.sol\":3012:3351  constructor (uint minContrib, string memory cTitle, string memory cDescription, address creator) {... */\n          callvalue\n          dup1\n          iszero\n          tag_1\n          jumpi\n          0x00\n          dup1\n          revert\n        tag_1:\n          pop\n          mload(0x40)\n          sub(codesize, bytecodeSize)\n          dup1\n          bytecodeSize\n          dup4\n          codecopy\n          dup2\n          dup2\n          add\n          0x40\n          mstore\n          dup2\n          add\n          swap1\n          tag_2\n          swap2\n          swap1\n          tag_3\n          jump\t// in\n        tag_2:\n            /* \"Campaign.sol\":3135:3136  0 */\n          0x00\n            /* \"Campaign.sol\":3119:3132  requestsCount */\n          0x02\n            /* \"Campaign.sol\":3119:3136  requestsCount = 0 */\n          dup2\n          swap1\n          sstore\n          pop\n            /* \"Campaign.sol\":3156:3163  creator */\n          dup1\n            /* \"Campaign.sol\":3146:3153  manager */\n          0x03\n          0x00\n            /* \"Campaign.sol\":3146:3163  manager = creator */\n          0x0100\n          exp\n          dup2\n          sload\n          dup2\n          0xffffffffffffffffffffffffffffffffffffffff\n          mul\n          not\n          and\n          swap1\n          dup4\n          0xffffffffffffffffffffffffffffffffffffffff\n          and\n          mul\n          or\n          swap1\n          sstore\n          pop\n            /* \"Campaign.sol\":3251:3261  minContrib */\n          dup4\n            /* \"Campaign.sol\":3229:3248  minimumContribution */\n          0x06\n            /* \"Campaign.sol\":3229:3261  minimumContribution = minContrib */\n          dup2\n          swap1\n          sstore\n          pop\n            /* \"Campaign.sol\":3294:3300  cTitle */\n          dup3\n            /* \"Campaign.sol\":3278:3291  campaignTitle */\n          0x04\n            /* \"Campaign.sol\":3278:3300  campaignTitle = cTitle */\n          swap1\n          dup1\n          mload\n          swap1\n          0x20\n          add\n          swap1\n          tag_6\n          swap3\n          swap2\n          swap1\n          tag_7\n          jump\t// in\n        tag_6:\n          pop\n            /* \"Campaign.sol\":3332:3344  cDescription */\n          dup2\n            /* \"Campaign.sol\":3310:3329  campaignDescription */\n          0x05\n            /* \"Campaign.sol\":3310:3344  campaignDescription = cDescription */\n          swap1\n          dup1\n          mload\n          swap1\n          0x20\n          add\n          swap1\n          tag_8\n          swap3\n          swap2\n          swap1\n          tag_7\n          jump\t// in\n        tag_8:\n          pop\n            /* \"Campaign.sol\":3012:3351  constructor (uint minContrib, string memory cTitle, string memory cDescription, address creator) {... */\n          pop\n          pop\n          pop\n          pop\n            /* \"Campaign.sol\":1857:8159  contract Campaign{... */\n          jump(tag_9)\n        tag_7:\n          dup3\n          dup1\n          sload\n          tag_10\n          swap1\n          tag_11\n          jump\t// in\n        tag_10:\n          swap1\n          0x00\n          mstore\n          keccak256(0x00, 0x20)\n          swap1\n          0x1f\n          add\n          0x20\n          swap1\n          div\n          dup2\n          add\n          swap3\n          dup3\n          tag_13\n          jumpi\n          0x00\n          dup6\n          sstore\n          jump(tag_12)\n        tag_13:\n          dup3\n          0x1f\n          lt\n          tag_14\n          jumpi\n          dup1\n          mload\n          not(0xff)\n          and\n          dup4\n          dup1\n          add\n          or\n          dup6\n          sstore\n          jump(tag_12)\n        tag_14:\n          dup3\n          dup1\n          add\n          0x01\n          add\n          dup6\n          sstore\n          dup3\n          iszero\n          tag_12\n          jumpi\n          swap2\n          dup3\n          add\n        tag_15:\n          dup3\n          dup2\n          gt\n          iszero\n          tag_16\n          jumpi\n          dup3\n          mload\n          dup3\n          sstore\n          swap2\n          0x20\n          add\n          swap2\n          swap1\n          0x01\n          add\n          swap1\n          jump(tag_15)\n        tag_16:\n        tag_12:\n          pop\n          swap1\n          pop\n          tag_17\n          swap2\n          swap1\n          tag_18\n          jump\t// in\n        tag_17:\n          pop\n          swap1\n          jump\t// out\n        tag_18:\n        tag_19:\n          dup1\n          dup3\n          gt\n          iszero\n          tag_20\n          jumpi\n          0x00\n          dup2\n          0x00\n          swap1\n          sstore\n          pop\n          0x01\n          add\n          jump(tag_19)\n        tag_20:\n          pop\n          swap1\n          jump\t// out\n            /* \"#utility.yul\":7:361   */\n        tag_22:\n            /* \"#utility.yul\":96:101   */\n          0x00\n            /* \"#utility.yul\":121:187   */\n          tag_24\n            /* \"#utility.yul\":137:186   */\n          tag_25\n            /* \"#utility.yul\":179:185   */\n          dup5\n            /* \"#utility.yul\":137:186   */\n          tag_26\n          jump\t// in\n        tag_25:\n            /* \"#utility.yul\":121:187   */\n          tag_27\n          jump\t// in\n        tag_24:\n            /* \"#utility.yul\":112:187   */\n          swap1\n          pop\n            /* \"#utility.yul\":210:216   */\n          dup3\n            /* \"#utility.yul\":203:208   */\n          dup2\n            /* \"#utility.yul\":196:217   */\n          mstore\n            /* \"#utility.yul\":248:252   */\n          0x20\n            /* \"#utility.yul\":241:246   */\n          dup2\n            /* \"#utility.yul\":237:253   */\n          add\n            /* \"#utility.yul\":286:289   */\n          dup5\n            /* \"#utility.yul\":277:283   */\n          dup5\n            /* \"#utility.yul\":272:275   */\n          dup5\n            /* \"#utility.yul\":268:284   */\n          add\n            /* \"#utility.yul\":265:290   */\n          gt\n            /* \"#utility.yul\":262:264   */\n          iszero\n          tag_28\n          jumpi\n            /* \"#utility.yul\":303:304   */\n          0x00\n            /* \"#utility.yul\":300:301   */\n          dup1\n            /* \"#utility.yul\":293:305   */\n          revert\n            /* \"#utility.yul\":262:264   */\n        tag_28:\n            /* \"#utility.yul\":316:355   */\n          tag_29\n            /* \"#utility.yul\":348:354   */\n          dup5\n            /* \"#utility.yul\":343:346   */\n          dup3\n            /* \"#utility.yul\":338:341   */\n          dup6\n            /* \"#utility.yul\":316:355   */\n          tag_30\n          jump\t// in\n        tag_29:\n            /* \"#utility.yul\":102:361   */\n          pop\n          swap4\n          swap3\n          pop\n          pop\n          pop\n          jump\t// out\n            /* \"#utility.yul\":367:510   */\n        tag_31:\n            /* \"#utility.yul\":424:429   */\n          0x00\n            /* \"#utility.yul\":455:461   */\n          dup2\n            /* \"#utility.yul\":449:462   */\n          mload\n            /* \"#utility.yul\":440:462   */\n          swap1\n          pop\n            /* \"#utility.yul\":471:504   */\n          tag_33\n            /* \"#utility.yul\":498:503   */\n          dup2\n            /* \"#utility.yul\":471:504   */\n          tag_34\n          jump\t// in\n        tag_33:\n            /* \"#utility.yul\":430:510   */\n          swap3\n          swap2\n          pop\n          pop\n          jump\t// out\n            /* \"#utility.yul\":530:818   */\n        tag_35:\n            /* \"#utility.yul\":597:602   */\n          0x00\n            /* \"#utility.yul\":646:649   */\n          dup3\n            /* \"#utility.yul\":639:643   */\n          0x1f\n            /* \"#utility.yul\":631:637   */\n          dup4\n            /* \"#utility.yul\":627:644   */\n          add\n            /* \"#utility.yul\":623:650   */\n          slt\n            /* \"#utility.yul\":613:615   */\n          tag_37\n          jumpi\n            /* \"#utility.yul\":664:665   */\n          0x00\n            /* \"#utility.yul\":661:662   */\n          dup1\n            /* \"#utility.yul\":654:666   */\n          revert\n            /* \"#utility.yul\":613:615   */\n        tag_37:\n            /* \"#utility.yul\":697:703   */\n          dup2\n            /* \"#utility.yul\":691:704   */\n          mload\n            /* \"#utility.yul\":722:812   */\n          tag_38\n            /* \"#utility.yul\":808:811   */\n          dup5\n            /* \"#utility.yul\":800:806   */\n          dup3\n            /* \"#utility.yul\":793:797   */\n          0x20\n            /* \"#utility.yul\":785:791   */\n          dup7\n            /* \"#utility.yul\":781:798   */\n          add\n            /* \"#utility.yul\":722:812   */\n          tag_22\n          jump\t// in\n        tag_38:\n            /* \"#utility.yul\":713:812   */\n          swap2\n          pop\n            /* \"#utility.yul\":603:818   */\n          pop\n          swap3\n          swap2\n          pop\n          pop\n          jump\t// out\n            /* \"#utility.yul\":824:967   */\n        tag_39:\n            /* \"#utility.yul\":881:886   */\n          0x00\n            /* \"#utility.yul\":912:918   */\n          dup2\n            /* \"#utility.yul\":906:919   */\n          mload\n            /* \"#utility.yul\":897:919   */\n          swap1\n          pop\n            /* \"#utility.yul\":928:961   */\n          tag_41\n            /* \"#utility.yul\":955:960   */\n          dup2\n            /* \"#utility.yul\":928:961   */\n          tag_42\n          jump\t// in\n        tag_41:\n            /* \"#utility.yul\":887:967   */\n          swap3\n          swap2\n          pop\n          pop\n          jump\t// out\n            /* \"#utility.yul\":973:1938   */\n        tag_3:\n            /* \"#utility.yul\":1090:1096   */\n          0x00\n            /* \"#utility.yul\":1098:1104   */\n          dup1\n            /* \"#utility.yul\":1106:1112   */\n          0x00\n            /* \"#utility.yul\":1114:1120   */\n          dup1\n            /* \"#utility.yul\":1163:1166   */\n          0x80\n            /* \"#utility.yul\":1151:1160   */\n          dup6\n            /* \"#utility.yul\":1142:1149   */\n          dup8\n            /* \"#utility.yul\":1138:1161   */\n          sub\n            /* \"#utility.yul\":1134:1167   */\n          slt\n            /* \"#utility.yul\":1131:1133   */\n          iszero\n          tag_44\n          jumpi\n            /* \"#utility.yul\":1180:1181   */\n          0x00\n            /* \"#utility.yul\":1177:1178   */\n          dup1\n            /* \"#utility.yul\":1170:1182   */\n          revert\n            /* \"#utility.yul\":1131:1133   */\n        tag_44:\n            /* \"#utility.yul\":1223:1224   */\n          0x00\n            /* \"#utility.yul\":1248:1312   */\n          tag_45\n            /* \"#utility.yul\":1304:1311   */\n          dup8\n            /* \"#utility.yul\":1295:1301   */\n          dup3\n            /* \"#utility.yul\":1284:1293   */\n          dup9\n            /* \"#utility.yul\":1280:1302   */\n          add\n            /* \"#utility.yul\":1248:1312   */\n          tag_39\n          jump\t// in\n        tag_45:\n            /* \"#utility.yul\":1238:1312   */\n          swap5\n          pop\n            /* \"#utility.yul\":1194:1322   */\n          pop\n            /* \"#utility.yul\":1382:1384   */\n          0x20\n            /* \"#utility.yul\":1371:1380   */\n          dup6\n            /* \"#utility.yul\":1367:1385   */\n          add\n            /* \"#utility.yul\":1361:1386   */\n          mload\n            /* \"#utility.yul\":1413:1431   */\n          0xffffffffffffffff\n            /* \"#utility.yul\":1405:1411   */\n          dup2\n            /* \"#utility.yul\":1402:1432   */\n          gt\n            /* \"#utility.yul\":1399:1401   */\n          iszero\n          tag_46\n          jumpi\n            /* \"#utility.yul\":1445:1446   */\n          0x00\n            /* \"#utility.yul\":1442:1443   */\n          dup1\n            /* \"#utility.yul\":1435:1447   */\n          revert\n            /* \"#utility.yul\":1399:1401   */\n        tag_46:\n            /* \"#utility.yul\":1473:1547   */\n          tag_47\n            /* \"#utility.yul\":1539:1546   */\n          dup8\n            /* \"#utility.yul\":1530:1536   */\n          dup3\n            /* \"#utility.yul\":1519:1528   */\n          dup9\n            /* \"#utility.yul\":1515:1537   */\n          add\n            /* \"#utility.yul\":1473:1547   */\n          tag_35\n          jump\t// in\n        tag_47:\n            /* \"#utility.yul\":1463:1547   */\n          swap4\n          pop\n            /* \"#utility.yul\":1332:1557   */\n          pop\n            /* \"#utility.yul\":1617:1619   */\n          0x40\n            /* \"#utility.yul\":1606:1615   */\n          dup6\n            /* \"#utility.yul\":1602:1620   */\n          add\n            /* \"#utility.yul\":1596:1621   */\n          mload\n            /* \"#utility.yul\":1648:1666   */\n          0xffffffffffffffff\n            /* \"#utility.yul\":1640:1646   */\n          dup2\n            /* \"#utility.yul\":1637:1667   */\n          gt\n            /* \"#utility.yul\":1634:1636   */\n          iszero\n          tag_48\n          jumpi\n            /* \"#utility.yul\":1680:1681   */\n          0x00\n            /* \"#utility.yul\":1677:1678   */\n          dup1\n            /* \"#utility.yul\":1670:1682   */\n          revert\n            /* \"#utility.yul\":1634:1636   */\n        tag_48:\n            /* \"#utility.yul\":1708:1782   */\n          tag_49\n            /* \"#utility.yul\":1774:1781   */\n          dup8\n            /* \"#utility.yul\":1765:1771   */\n          dup3\n            /* \"#utility.yul\":1754:1763   */\n          dup9\n            /* \"#utility.yul\":1750:1772   */\n          add\n            /* \"#utility.yul\":1708:1782   */\n          tag_35\n          jump\t// in\n        tag_49:\n            /* \"#utility.yul\":1698:1782   */\n          swap3\n          pop\n            /* \"#utility.yul\":1567:1792   */\n          pop\n            /* \"#utility.yul\":1831:1833   */\n          0x60\n            /* \"#utility.yul\":1857:1921   */\n          tag_50\n            /* \"#utility.yul\":1913:1920   */\n          dup8\n            /* \"#utility.yul\":1904:1910   */\n          dup3\n            /* \"#utility.yul\":1893:1902   */\n          dup9\n            /* \"#utility.yul\":1889:1911   */\n          add\n            /* \"#utility.yul\":1857:1921   */\n          tag_31\n          jump\t// in\n        tag_50:\n            /* \"#utility.yul\":1847:1921   */\n          swap2\n          pop\n            /* \"#utility.yul\":1802:1931   */\n          pop\n            /* \"#utility.yul\":1121:1938   */\n          swap3\n          swap6\n          swap2\n          swap5\n          pop\n          swap3\n          pop\n          jump\t// out\n            /* \"#utility.yul\":1944:2073   */\n        tag_27:\n            /* \"#utility.yul\":1978:1984   */\n          0x00\n            /* \"#utility.yul\":2005:2025   */\n          tag_52\n          tag_53\n          jump\t// in\n        tag_52:\n            /* \"#utility.yul\":1995:2025   */\n          swap1\n          pop\n            /* \"#utility.yul\":2034:2067   */\n          tag_54\n            /* \"#utility.yul\":2062:2066   */\n          dup3\n            /* \"#utility.yul\":2054:2060   */\n          dup3\n            /* \"#utility.yul\":2034:2067   */\n          tag_55\n          jump\t// in\n        tag_54:\n            /* \"#utility.yul\":1985:2073   */\n          swap2\n          swap1\n          pop\n          jump\t// out\n            /* \"#utility.yul\":2079:2154   */\n        tag_53:\n            /* \"#utility.yul\":2112:2118   */\n          0x00\n            /* \"#utility.yul\":2145:2147   */\n          0x40\n            /* \"#utility.yul\":2139:2148   */\n          mload\n            /* \"#utility.yul\":2129:2148   */\n          swap1\n          pop\n            /* \"#utility.yul\":2119:2154   */\n          swap1\n          jump\t// out\n            /* \"#utility.yul\":2160:2468   */\n        tag_26:\n            /* \"#utility.yul\":2222:2226   */\n          0x00\n            /* \"#utility.yul\":2312:2330   */\n          0xffffffffffffffff\n            /* \"#utility.yul\":2304:2310   */\n          dup3\n            /* \"#utility.yul\":2301:2331   */\n          gt\n            /* \"#utility.yul\":2298:2300   */\n          iszero\n          tag_58\n          jumpi\n            /* \"#utility.yul\":2334:2352   */\n          tag_59\n          tag_60\n          jump\t// in\n        tag_59:\n            /* \"#utility.yul\":2298:2300   */\n        tag_58:\n            /* \"#utility.yul\":2372:2401   */\n          tag_61\n            /* \"#utility.yul\":2394:2400   */\n          dup3\n            /* \"#utility.yul\":2372:2401   */\n          tag_62\n          jump\t// in\n        tag_61:\n            /* \"#utility.yul\":2364:2401   */\n          swap1\n          pop\n            /* \"#utility.yul\":2456:2460   */\n          0x20\n            /* \"#utility.yul\":2450:2454   */\n          dup2\n            /* \"#utility.yul\":2446:2461   */\n          add\n            /* \"#utility.yul\":2438:2461   */\n          swap1\n          pop\n            /* \"#utility.yul\":2227:2468   */\n          swap2\n          swap1\n          pop\n          jump\t// out\n            /* \"#utility.yul\":2474:2570   */\n        tag_63:\n            /* \"#utility.yul\":2511:2518   */\n          0x00\n            /* \"#utility.yul\":2540:2564   */\n          tag_65\n            /* \"#utility.yul\":2558:2563   */\n          dup3\n            /* \"#utility.yul\":2540:2564   */\n          tag_66\n          jump\t// in\n        tag_65:\n            /* \"#utility.yul\":2529:2564   */\n          swap1\n          pop\n            /* \"#utility.yul\":2519:2570   */\n          swap2\n          swap1\n          pop\n          jump\t// out\n            /* \"#utility.yul\":2576:2702   */\n        tag_66:\n            /* \"#utility.yul\":2613:2620   */\n          0x00\n            /* \"#utility.yul\":2653:2695   */\n          0xffffffffffffffffffffffffffffffffffffffff\n            /* \"#utility.yul\":2646:2651   */\n          dup3\n            /* \"#utility.yul\":2642:2696   */\n          and\n            /* \"#utility.yul\":2631:2696   */\n          swap1\n          pop\n            /* \"#utility.yul\":2621:2702   */\n          swap2\n          swap1\n          pop\n          jump\t// out\n            /* \"#utility.yul\":2708:2785   */\n        tag_68:\n            /* \"#utility.yul\":2745:2752   */\n          0x00\n            /* \"#utility.yul\":2774:2779   */\n          dup2\n            /* \"#utility.yul\":2763:2779   */\n          swap1\n          pop\n            /* \"#utility.yul\":2753:2785   */\n          swap2\n          swap1\n          pop\n          jump\t// out\n            /* \"#utility.yul\":2791:3098   */\n        tag_30:\n            /* \"#utility.yul\":2859:2860   */\n          0x00\n            /* \"#utility.yul\":2869:2982   */\n        tag_71:\n            /* \"#utility.yul\":2883:2889   */\n          dup4\n            /* \"#utility.yul\":2880:2881   */\n          dup2\n            /* \"#utility.yul\":2877:2890   */\n          lt\n            /* \"#utility.yul\":2869:2982   */\n          iszero\n          tag_73\n          jumpi\n            /* \"#utility.yul\":2968:2969   */\n          dup1\n            /* \"#utility.yul\":2963:2966   */\n          dup3\n            /* \"#utility.yul\":2959:2970   */\n          add\n            /* \"#utility.yul\":2953:2971   */\n          mload\n            /* \"#utility.yul\":2949:2950   */\n          dup2\n            /* \"#utility.yul\":2944:2947   */\n          dup5\n            /* \"#utility.yul\":2940:2951   */\n          add\n            /* \"#utility.yul\":2933:2972   */\n          mstore\n            /* \"#utility.yul\":2905:2907   */\n          0x20\n            /* \"#utility.yul\":2902:2903   */\n          dup2\n            /* \"#utility.yul\":2898:2908   */\n          add\n            /* \"#utility.yul\":2893:2908   */\n          swap1\n          pop\n            /* \"#utility.yul\":2869:2982   */\n          jump(tag_71)\n        tag_73:\n            /* \"#utility.yul\":3000:3006   */\n          dup4\n            /* \"#utility.yul\":2997:2998   */\n          dup2\n            /* \"#utility.yul\":2994:3007   */\n          gt\n            /* \"#utility.yul\":2991:2993   */\n          iszero\n          tag_74\n          jumpi\n            /* \"#utility.yul\":3080:3081   */\n          0x00\n            /* \"#utility.yul\":3071:3077   */\n          dup5\n            /* \"#utility.yul\":3066:3069   */\n          dup5\n            /* \"#utility.yul\":3062:3078   */\n          add\n            /* \"#utility.yul\":3055:3082   */\n          mstore\n            /* \"#utility.yul\":2991:2993   */\n        tag_74:\n            /* \"#utility.yul\":2840:3098   */\n          pop\n          pop\n          pop\n          pop\n          jump\t// out\n            /* \"#utility.yul\":3104:3424   */\n        tag_11:\n            /* \"#utility.yul\":3148:3154   */\n          0x00\n            /* \"#utility.yul\":3185:3186   */\n          0x02\n            /* \"#utility.yul\":3179:3183   */\n          dup3\n            /* \"#utility.yul\":3175:3187   */\n          div\n            /* \"#utility.yul\":3165:3187   */\n          swap1\n          pop\n            /* \"#utility.yul\":3232:3233   */\n          0x01\n            /* \"#utility.yul\":3226:3230   */\n          dup3\n            /* \"#utility.yul\":3222:3234   */\n          and\n            /* \"#utility.yul\":3253:3271   */\n          dup1\n            /* \"#utility.yul\":3243:3245   */\n          tag_76\n          jumpi\n            /* \"#utility.yul\":3309:3313   */\n          0x7f\n            /* \"#utility.yul\":3301:3307   */\n          dup3\n            /* \"#utility.yul\":3297:3314   */\n          and\n            /* \"#utility.yul\":3287:3314   */\n          swap2\n          pop\n            /* \"#utility.yul\":3243:3245   */\n        tag_76:\n            /* \"#utility.yul\":3371:3373   */\n          0x20\n            /* \"#utility.yul\":3363:3369   */\n          dup3\n            /* \"#utility.yul\":3360:3374   */\n          lt\n            /* \"#utility.yul\":3340:3358   */\n          dup2\n            /* \"#utility.yul\":3337:3375   */\n          eq\n            /* \"#utility.yul\":3334:3336   */\n          iszero\n          tag_77\n          jumpi\n            /* \"#utility.yul\":3390:3408   */\n          tag_78\n          tag_79\n          jump\t// in\n        tag_78:\n            /* \"#utility.yul\":3334:3336   */\n        tag_77:\n            /* \"#utility.yul\":3155:3424   */\n          pop\n          swap2\n          swap1\n          pop\n          jump\t// out\n            /* \"#utility.yul\":3430:3711   */\n        tag_55:\n            /* \"#utility.yul\":3513:3540   */\n          tag_81\n            /* \"#utility.yul\":3535:3539   */\n          dup3\n            /* \"#utility.yul\":3513:3540   */\n          tag_62\n          jump\t// in\n        tag_81:\n            /* \"#utility.yul\":3505:3511   */\n          dup2\n            /* \"#utility.yul\":3501:3541   */\n          add\n            /* \"#utility.yul\":3643:3649   */\n          dup2\n            /* \"#utility.yul\":3631:3641   */\n          dup2\n            /* \"#utility.yul\":3628:3650   */\n          lt\n            /* \"#utility.yul\":3607:3625   */\n          0xffffffffffffffff\n            /* \"#utility.yul\":3595:3605   */\n          dup3\n            /* \"#utility.yul\":3592:3626   */\n          gt\n            /* \"#utility.yul\":3589:3651   */\n          or\n            /* \"#utility.yul\":3586:3588   */\n          iszero\n          tag_82\n          jumpi\n            /* \"#utility.yul\":3654:3672   */\n          tag_83\n          tag_60\n          jump\t// in\n        tag_83:\n            /* \"#utility.yul\":3586:3588   */\n        tag_82:\n            /* \"#utility.yul\":3694:3704   */\n          dup1\n            /* \"#utility.yul\":3690:3692   */\n          0x40\n            /* \"#utility.yul\":3683:3705   */\n          mstore\n            /* \"#utility.yul\":3473:3711   */\n          pop\n          pop\n          pop\n          jump\t// out\n            /* \"#utility.yul\":3717:3897   */\n        tag_79:\n            /* \"#utility.yul\":3765:3842   */\n          0x4e487b7100000000000000000000000000000000000000000000000000000000\n            /* \"#utility.yul\":3762:3763   */\n          0x00\n            /* \"#utility.yul\":3755:3843   */\n          mstore\n            /* \"#utility.yul\":3862:3866   */\n          0x22\n            /* \"#utility.yul\":3859:3860   */\n          0x04\n            /* \"#utility.yul\":3852:3867   */\n          mstore\n            /* \"#utility.yul\":3886:3890   */\n          0x24\n            /* \"#utility.yul\":3883:3884   */\n          0x00\n            /* \"#utility.yul\":3876:3891   */\n          revert\n            /* \"#utility.yul\":3903:4083   */\n        tag_60:\n            /* \"#utility.yul\":3951:4028   */\n          0x4e487b7100000000000000000000000000000000000000000000000000000000\n            /* \"#utility.yul\":3948:3949   */\n          0x00\n            /* \"#utility.yul\":3941:4029   */\n          mstore\n            /* \"#utility.yul\":4048:4052   */\n          0x41\n            /* \"#utility.yul\":4045:4046   */\n          0x04\n            /* \"#utility.yul\":4038:4053   */\n          mstore\n            /* \"#utility.yul\":4072:4076   */\n          0x24\n            /* \"#utility.yul\":4069:4070   */\n          0x00\n            /* \"#utility.yul\":4062:4077   */\n          revert\n            /* \"#utility.yul\":4089:4191   */\n        tag_62:\n            /* \"#utility.yul\":4130:4136   */\n          0x00\n            /* \"#utility.yul\":4181:4183   */\n          0x1f\n            /* \"#utility.yul\":4177:4184   */\n          not\n            /* \"#utility.yul\":4172:4174   */\n          0x1f\n            /* \"#utility.yul\":4165:4170   */\n          dup4\n            /* \"#utility.yul\":4161:4175   */\n          add\n            /* \"#utility.yul\":4157:4185   */\n          and\n            /* \"#utility.yul\":4147:4185   */\n          swap1\n          pop\n            /* \"#utility.yul\":4137:4191   */\n          swap2\n          swap1\n          pop\n          jump\t// out\n            /* \"#utility.yul\":4197:4319   */\n        tag_34:\n            /* \"#utility.yul\":4270:4294   */\n          tag_88\n            /* \"#utility.yul\":4288:4293   */\n          dup2\n            /* \"#utility.yul\":4270:4294   */\n          tag_63\n          jump\t// in\n        tag_88:\n            /* \"#utility.yul\":4263:4268   */\n          dup2\n            /* \"#utility.yul\":4260:4295   */\n          eq\n            /* \"#utility.yul\":4250:4252   */\n          tag_89\n          jumpi\n            /* \"#utility.yul\":4309:4310   */\n          0x00\n            /* \"#utility.yul\":4306:4307   */\n          dup1\n            /* \"#utility.yul\":4299:4311   */\n          revert\n            /* \"#utility.yul\":4250:4252   */\n        tag_89:\n            /* \"#utility.yul\":4240:4319   */\n          pop\n          jump\t// out\n            /* \"#utility.yul\":4325:4447   */\n        tag_42:\n            /* \"#utility.yul\":4398:4422   */\n          tag_91\n            /* \"#utility.yul\":4416:4421   */\n          dup2\n            /* \"#utility.yul\":4398:4422   */\n          tag_68\n          jump\t// in\n        tag_91:\n            /* \"#utility.yul\":4391:4396   */\n          dup2\n            /* \"#utility.yul\":4388:4423   */\n          eq\n            /* \"#utility.yul\":4378:4380   */\n          tag_92\n          jumpi\n            /* \"#utility.yul\":4437:4438   */\n          0x00\n            /* \"#utility.yul\":4434:4435   */\n          dup1\n            /* \"#utility.yul\":4427:4439   */\n          revert\n            /* \"#utility.yul\":4378:4380   */\n        tag_92:\n            /* \"#utility.yul\":4368:4447   */\n          pop\n          jump\t// out\n            /* \"Campaign.sol\":1857:8159  contract Campaign{... */\n        tag_9:\n          dataSize(sub_0)\n          dup1\n          dataOffset(sub_0)\n          0x00\n          codecopy\n          0x00\n          return\n        stop\n\n        sub_0: assembly {\n                /* \"Campaign.sol\":1857:8159  contract Campaign{... */\n              mstore(0x40, 0x80)\n              jumpi(tag_1, lt(calldatasize, 0x04))\n              shr(0xe0, calldataload(0x00))\n              dup1\n              0x8a9cfd55\n              gt\n              tag_17\n              jumpi\n              dup1\n              0xd7bb99ba\n              gt\n              tag_18\n              jumpi\n              dup1\n              0xd7bb99ba\n              eq\n              tag_13\n              jumpi\n              dup1\n              0xd7d1bbdb\n              eq\n              tag_14\n              jumpi\n              dup1\n              0xf34d4c63\n              eq\n              tag_15\n              jumpi\n              dup1\n              0xfbfa4b7f\n              eq\n              tag_16\n              jumpi\n              jump(tag_1)\n            tag_18:\n              dup1\n              0x8a9cfd55\n              eq\n              tag_9\n              jumpi\n              dup1\n              0x937e09b1\n              eq\n              tag_10\n              jumpi\n              dup1\n              0xa00c96d7\n              eq\n              tag_11\n              jumpi\n              dup1\n              0xbfeba227\n              eq\n              tag_12\n              jumpi\n              jump(tag_1)\n            tag_17:\n              dup1\n              0x481c6a75\n              gt\n              tag_19\n              jumpi\n              dup1\n              0x481c6a75\n              eq\n              tag_5\n              jumpi\n              dup1\n              0x81d12c58\n              eq\n              tag_6\n              jumpi\n              dup1\n              0x82fde093\n              eq\n              tag_7\n              jumpi\n              dup1\n              0x835a6172\n              eq\n              tag_8\n              jumpi\n              jump(tag_1)\n            tag_19:\n              dup1\n              0x03441006\n              eq\n              tag_2\n              jumpi\n              dup1\n              0x0a144391\n              eq\n              tag_3\n              jumpi\n              dup1\n              0x110842cb\n              eq\n              tag_4\n              jumpi\n            tag_1:\n              0x00\n              dup1\n              revert\n                /* \"Campaign.sol\":5779:6812  function finalizeRequest(uint index) public onlyManagerAllowed{... */\n            tag_2:\n              callvalue\n              dup1\n              iszero\n              tag_20\n              jumpi\n              0x00\n              dup1\n              revert\n            tag_20:\n              pop\n              tag_21\n              0x04\n              dup1\n              calldatasize\n              sub\n              dup2\n              add\n              swap1\n              tag_22\n              swap2\n              swap1\n              tag_23\n              jump\t// in\n            tag_22:\n              tag_24\n              jump\t// in\n            tag_21:\n              stop\n                /* \"Campaign.sol\":2438:2480  mapping (address => bool) public approvers */\n            tag_3:\n              callvalue\n              dup1\n              iszero\n              tag_25\n              jumpi\n              0x00\n              dup1\n              revert\n            tag_25:\n              pop\n              tag_26\n              0x04\n              dup1\n              calldatasize\n              sub\n              dup2\n              add\n              swap1\n              tag_27\n              swap2\n              swap1\n              tag_28\n              jump\t// in\n            tag_27:\n              tag_29\n              jump\t// in\n            tag_26:\n              mload(0x40)\n              tag_30\n              swap2\n              swap1\n              tag_31\n              jump\t// in\n            tag_30:\n              mload(0x40)\n              dup1\n              swap2\n              sub\n              swap1\n              return\n                /* \"Campaign.sol\":2718:2751  string public campaignDescription */\n            tag_4:\n              callvalue\n              dup1\n              iszero\n              tag_32\n              jumpi\n              0x00\n              dup1\n              revert\n            tag_32:\n              pop\n              tag_33\n              tag_34\n              jump\t// in\n            tag_33:\n              mload(0x40)\n              tag_35\n              swap2\n              swap1\n              tag_36\n              jump\t// in\n            tag_35:\n              mload(0x40)\n              dup1\n              swap2\n              sub\n              swap1\n              return\n                /* \"Campaign.sol\":2626:2648  address public manager */\n            tag_5:\n              callvalue\n              dup1\n              iszero\n              tag_37\n              jumpi\n              0x00\n              dup1\n              revert\n            tag_37:\n              pop\n              tag_38\n              tag_39\n              jump\t// in\n            tag_38:\n              mload(0x40)\n              tag_40\n              swap2\n              swap1\n              tag_41\n              jump\t// in\n            tag_40:\n              mload(0x40)\n              dup1\n              swap2\n              sub\n              swap1\n              return\n                /* \"Campaign.sol\":2370:2411  mapping (uint => Request) public requests */\n            tag_6:\n              callvalue\n              dup1\n              iszero\n              tag_42\n              jumpi\n              0x00\n              dup1\n              revert\n            tag_42:\n              pop\n              tag_43\n              0x04\n              dup1\n              calldatasize\n              sub\n              dup2\n              add\n              swap1\n              tag_44\n              swap2\n              swap1\n              tag_23\n              jump\t// in\n            tag_44:\n              tag_45\n              jump\t// in\n            tag_43:\n              mload(0x40)\n              tag_46\n              swap6\n              swap5\n              swap4\n              swap3\n              swap2\n              swap1\n              tag_47\n              jump\t// in\n            tag_46:\n              mload(0x40)\n              dup1\n              swap2\n              sub\n              swap1\n              return\n                /* \"Campaign.sol\":2828:2854  uint public approversCount */\n            tag_7:\n              callvalue\n              dup1\n              iszero\n              tag_48\n              jumpi\n              0x00\n              dup1\n              revert\n            tag_48:\n              pop\n              tag_49\n              tag_50\n              jump\t// in\n            tag_49:\n              mload(0x40)\n              tag_51\n              swap2\n              swap1\n              tag_52\n              jump\t// in\n            tag_51:\n              mload(0x40)\n              dup1\n              swap2\n              sub\n              swap1\n              return\n                /* \"Campaign.sol\":2685:2712  string public campaignTitle */\n            tag_8:\n              callvalue\n              dup1\n              iszero\n              tag_53\n              jumpi\n              0x00\n              dup1\n              revert\n            tag_53:\n              pop\n              tag_54\n              tag_55\n              jump\t// in\n            tag_54:\n              mload(0x40)\n              tag_56\n              swap2\n              swap1\n              tag_36\n              jump\t// in\n            tag_56:\n              mload(0x40)\n              dup1\n              swap2\n              sub\n              swap1\n              return\n                /* \"Campaign.sol\":4110:4760  function createRequest (string memory  description, uint value, address payable recipient) public onlyManagerAllowed{... */\n            tag_9:\n              callvalue\n              dup1\n              iszero\n              tag_57\n              jumpi\n              0x00\n              dup1\n              revert\n            tag_57:\n              pop\n              tag_58\n              0x04\n              dup1\n              calldatasize\n              sub\n              dup2\n              add\n              swap1\n              tag_59\n              swap2\n              swap1\n              tag_60\n              jump\t// in\n            tag_59:\n              tag_61\n              jump\t// in\n            tag_58:\n              stop\n                /* \"Campaign.sol\":2757:2788  uint public minimumContribution */\n            tag_10:\n              callvalue\n              dup1\n              iszero\n              tag_62\n              jumpi\n              0x00\n              dup1\n              revert\n            tag_62:\n              pop\n              tag_63\n              tag_64\n              jump\t// in\n            tag_63:\n              mload(0x40)\n              tag_65\n              swap2\n              swap1\n              tag_52\n              jump\t// in\n            tag_65:\n              mload(0x40)\n              dup1\n              swap2\n              sub\n              swap1\n              return\n                /* \"Campaign.sol\":7801:8157  function getCampaignSummary() public view returns (uint, string memory, string memory, uint, uint, uint, address){... */\n            tag_11:\n              callvalue\n              dup1\n              iszero\n              tag_66\n              jumpi\n              0x00\n              dup1\n              revert\n            tag_66:\n              pop\n              tag_67\n              tag_68\n              jump\t// in\n            tag_67:\n              mload(0x40)\n              tag_69\n              swap8\n              swap7\n              swap6\n              swap5\n              swap4\n              swap3\n              swap2\n              swap1\n              tag_70\n              jump\t// in\n            tag_69:\n              mload(0x40)\n              dup1\n              swap2\n              sub\n              swap1\n              return\n                /* \"Campaign.sol\":7648:7751  function getCampaignBalance() public view returns (uint){... */\n            tag_12:\n              callvalue\n              dup1\n              iszero\n              tag_71\n              jumpi\n              0x00\n              dup1\n              revert\n            tag_71:\n              pop\n              tag_72\n              tag_73\n              jump\t// in\n            tag_72:\n              mload(0x40)\n              tag_74\n              swap2\n              swap1\n              tag_52\n              jump\t// in\n            tag_74:\n              mload(0x40)\n              dup1\n              swap2\n              sub\n              swap1\n              return\n                /* \"Campaign.sol\":3450:3851  function contribute () public payable{... */\n            tag_13:\n              tag_75\n              tag_76\n              jump\t// in\n            tag_75:\n              stop\n                /* \"Campaign.sol\":4810:5705  function approveRequest(uint index) public {... */\n            tag_14:\n              callvalue\n              dup1\n              iszero\n              tag_77\n              jumpi\n              0x00\n              dup1\n              revert\n            tag_77:\n              pop\n              tag_78\n              0x04\n              dup1\n              calldatasize\n              sub\n              dup2\n              add\n              swap1\n              tag_79\n              swap2\n              swap1\n              tag_23\n              jump\t// in\n            tag_79:\n              tag_80\n              jump\t// in\n            tag_78:\n              stop\n                /* \"Campaign.sol\":6845:7577  function getRequestDetails(uint index) public view returns (string memory, uint, address, bool, uint){... */\n            tag_15:\n              callvalue\n              dup1\n              iszero\n              tag_81\n              jumpi\n              0x00\n              dup1\n              revert\n            tag_81:\n              pop\n              tag_82\n              0x04\n              dup1\n              calldatasize\n              sub\n              dup2\n              add\n              swap1\n              tag_83\n              swap2\n              swap1\n              tag_23\n              jump\t// in\n            tag_83:\n              tag_84\n              jump\t// in\n            tag_82:\n              mload(0x40)\n              tag_85\n              swap6\n              swap5\n              swap4\n              swap3\n              swap2\n              swap1\n              tag_86\n              jump\t// in\n            tag_85:\n              mload(0x40)\n              dup1\n              swap2\n              sub\n              swap1\n              return\n                /* \"Campaign.sol\":2574:2599  uint public requestsCount */\n            tag_16:\n              callvalue\n              dup1\n              iszero\n              tag_87\n              jumpi\n              0x00\n              dup1\n              revert\n            tag_87:\n              pop\n              tag_88\n              tag_89\n              jump\t// in\n            tag_88:\n              mload(0x40)\n              tag_90\n              swap2\n              swap1\n              tag_52\n              jump\t// in\n            tag_90:\n              mload(0x40)\n              dup1\n              swap2\n              sub\n              swap1\n              return\n                /* \"Campaign.sol\":5779:6812  function finalizeRequest(uint index) public onlyManagerAllowed{... */\n            tag_24:\n                /* \"Campaign.sol\":3976:3983  manager */\n              0x03\n              0x00\n              swap1\n              sload\n              swap1\n              0x0100\n              exp\n              swap1\n              div\n              0xffffffffffffffffffffffffffffffffffffffff\n              and\n                /* \"Campaign.sol\":3962:3983  msg.sender == manager */\n              0xffffffffffffffffffffffffffffffffffffffff\n              and\n                /* \"Campaign.sol\":3962:3972  msg.sender */\n              caller\n                /* \"Campaign.sol\":3962:3983  msg.sender == manager */\n              0xffffffffffffffffffffffffffffffffffffffff\n              and\n              eq\n                /* \"Campaign.sol\":3953:4036  require (msg.sender == manager, \"Only manager is allowed to called this function.\") */\n              tag_92\n              jumpi\n              mload(0x40)\n              0x08c379a000000000000000000000000000000000000000000000000000000000\n              dup2\n              mstore\n              0x04\n              add\n              tag_93\n              swap1\n              tag_94\n              jump\t// in\n            tag_93:\n              mload(0x40)\n              dup1\n              swap2\n              sub\n              swap1\n              revert\n            tag_92:\n                /* \"Campaign.sol\":5851:5874  Request storage request */\n              0x00\n                /* \"Campaign.sol\":5877:5885  requests */\n              dup1\n                /* \"Campaign.sol\":5877:5892  requests[index] */\n              0x00\n                /* \"Campaign.sol\":5886:5891  index */\n              dup4\n                /* \"Campaign.sol\":5877:5892  requests[index] */\n              dup2\n              mstore\n              0x20\n              add\n              swap1\n              dup2\n              mstore\n              0x20\n              add\n              0x00\n              keccak256\n                /* \"Campaign.sol\":5851:5892  Request storage request = requests[index] */\n              swap1\n              pop\n                /* \"Campaign.sol\":5974:5987  requestsCount */\n              sload(0x02)\n                /* \"Campaign.sol\":5966:5971  index */\n              dup3\n                /* \"Campaign.sol\":5966:5987  index < requestsCount */\n              lt\n                /* \"Campaign.sol\":5958:6064  require(index < requestsCount, \"You attempt to finalize a non-existent request. Check the request index!\") */\n              tag_96\n              jumpi\n              mload(0x40)\n              0x08c379a000000000000000000000000000000000000000000000000000000000\n              dup2\n              mstore\n              0x04\n              add\n              tag_97\n              swap1\n              tag_98\n              jump\t// in\n            tag_97:\n              mload(0x40)\n              dup1\n              swap2\n              sub\n              swap1\n              revert\n            tag_96:\n                /* \"Campaign.sol\":6152:6159  request */\n              dup1\n                /* \"Campaign.sol\":6152:6169  request.completed */\n              0x02\n              add\n              0x14\n              swap1\n              sload\n              swap1\n              0x0100\n              exp\n              swap1\n              div\n              0xff\n              and\n                /* \"Campaign.sol\":6151:6169  !request.completed */\n              iszero\n                /* \"Campaign.sol\":6143:6209  require(!request.completed, \"This request was already completed.\") */\n              tag_99\n              jumpi\n              mload(0x40)\n              0x08c379a000000000000000000000000000000000000000000000000000000000\n              dup2\n              mstore\n              0x04\n              add\n              tag_100\n              swap1\n              tag_101\n              jump\t// in\n            tag_100:\n              mload(0x40)\n              dup1\n              swap2\n              sub\n              swap1\n              revert\n            tag_99:\n                /* \"Campaign.sol\":6328:6329  1 */\n              0x01\n                /* \"Campaign.sol\":6303:6310  request */\n              dup2\n                /* \"Campaign.sol\":6303:6324  request.approvalCount */\n              0x03\n              add\n              sload\n                /* \"Campaign.sol\":6303:6329  request.approvalCount >= 1 */\n              lt\n              iszero\n                /* \"Campaign.sol\":6295:6379  require(request.approvalCount >= 1, \"This request has not been approved by anyone.\") */\n              tag_102\n              jumpi\n              mload(0x40)\n              0x08c379a000000000000000000000000000000000000000000000000000000000\n              dup2\n              mstore\n              0x04\n              add\n              tag_103\n              swap1\n              tag_104\n              jump\t// in\n            tag_103:\n              mload(0x40)\n              dup1\n              swap2\n              sub\n              swap1\n              revert\n            tag_102:\n                /* \"Campaign.sol\":6528:6529  2 */\n              0x02\n                /* \"Campaign.sol\":6513:6527  approversCount */\n              sload(0x07)\n                /* \"Campaign.sol\":6513:6529  approversCount/2 */\n              tag_105\n              swap2\n              swap1\n              tag_106\n              jump\t// in\n            tag_105:\n                /* \"Campaign.sol\":6487:6494  request */\n              dup2\n                /* \"Campaign.sol\":6487:6508  request.approvalCount */\n              0x03\n              add\n              sload\n                /* \"Campaign.sol\":6486:6530  (request.approvalCount) > (approversCount/2) */\n              gt\n                /* \"Campaign.sol\":6478:6563  require((request.approvalCount) > (approversCount/2), \"Approval rate less  than 50%\") */\n              tag_107\n              jumpi\n              mload(0x40)\n              0x08c379a000000000000000000000000000000000000000000000000000000000\n              dup2\n              mstore\n              0x04\n              add\n              tag_108\n              swap1\n              tag_109\n              jump\t// in\n            tag_108:\n              mload(0x40)\n              dup1\n              swap2\n              sub\n              swap1\n              revert\n            tag_107:\n                /* \"Campaign.sol\":6695:6699  true */\n              0x01\n                /* \"Campaign.sol\":6675:6682  request */\n              dup2\n                /* \"Campaign.sol\":6675:6692  request.completed */\n              0x02\n              add\n              0x14\n                /* \"Campaign.sol\":6675:6699  request.completed = true */\n              0x0100\n              exp\n              dup2\n              sload\n              dup2\n              0xff\n              mul\n              not\n              and\n              swap1\n              dup4\n              iszero\n              iszero\n              mul\n              or\n              swap1\n              sstore\n              pop\n                /* \"Campaign.sol\":6755:6762  request */\n              dup1\n                /* \"Campaign.sol\":6755:6772  request.recipient */\n              0x02\n              add\n              0x00\n              swap1\n              sload\n              swap1\n              0x0100\n              exp\n              swap1\n              div\n              0xffffffffffffffffffffffffffffffffffffffff\n              and\n                /* \"Campaign.sol\":6755:6781  request.recipient.transfer */\n              0xffffffffffffffffffffffffffffffffffffffff\n              and\n                /* \"Campaign.sol\":6755:6796  request.recipient.transfer(request.value) */\n              0x08fc\n                /* \"Campaign.sol\":6782:6789  request */\n              dup3\n                /* \"Campaign.sol\":6782:6795  request.value */\n              0x01\n              add\n              sload\n                /* \"Campaign.sol\":6755:6796  request.recipient.transfer(request.value) */\n              swap1\n              dup2\n              iszero\n              mul\n              swap1\n              mload(0x40)\n              0x00\n              mload(0x40)\n              dup1\n              dup4\n              sub\n              dup2\n              dup6\n              dup9\n              dup9\n              call\n              swap4\n              pop\n              pop\n              pop\n              pop\n              iszero\n              dup1\n              iszero\n              tag_111\n              jumpi\n              returndatasize\n              0x00\n              dup1\n              returndatacopy\n              revert(0x00, returndatasize)\n            tag_111:\n              pop\n                /* \"Campaign.sol\":4046:4047  _ */\n              pop\n                /* \"Campaign.sol\":5779:6812  function finalizeRequest(uint index) public onlyManagerAllowed{... */\n              pop\n              jump\t// out\n                /* \"Campaign.sol\":2438:2480  mapping (address => bool) public approvers */\n            tag_29:\n              mstore(0x20, 0x01)\n              dup1\n              0x00\n              mstore\n              keccak256(0x00, 0x40)\n              0x00\n              swap2\n              pop\n              sload\n              swap1\n              0x0100\n              exp\n              swap1\n              div\n              0xff\n              and\n              dup2\n              jump\t// out\n                /* \"Campaign.sol\":2718:2751  string public campaignDescription */\n            tag_34:\n              0x05\n              dup1\n              sload\n              tag_112\n              swap1\n              tag_113\n              jump\t// in\n            tag_112:\n              dup1\n              0x1f\n              add\n              0x20\n              dup1\n              swap2\n              div\n              mul\n              0x20\n              add\n              mload(0x40)\n              swap1\n              dup2\n              add\n              0x40\n              mstore\n              dup1\n              swap3\n              swap2\n              swap1\n              dup2\n              dup2\n              mstore\n              0x20\n              add\n              dup3\n              dup1\n              sload\n              tag_114\n              swap1\n              tag_113\n              jump\t// in\n            tag_114:\n              dup1\n              iszero\n              tag_115\n              jumpi\n              dup1\n              0x1f\n              lt\n              tag_116\n              jumpi\n              0x0100\n              dup1\n              dup4\n              sload\n              div\n              mul\n              dup4\n              mstore\n              swap2\n              0x20\n              add\n              swap2\n              jump(tag_115)\n            tag_116:\n              dup3\n              add\n              swap2\n              swap1\n              0x00\n              mstore\n              keccak256(0x00, 0x20)\n              swap1\n            tag_117:\n              dup2\n              sload\n              dup2\n              mstore\n              swap1\n              0x01\n              add\n              swap1\n              0x20\n              add\n              dup1\n              dup4\n              gt\n              tag_117\n              jumpi\n              dup3\n              swap1\n              sub\n              0x1f\n              and\n              dup3\n              add\n              swap2\n            tag_115:\n              pop\n              pop\n              pop\n              pop\n              pop\n              dup2\n              jump\t// out\n                /* \"Campaign.sol\":2626:2648  address public manager */\n            tag_39:\n              0x03\n              0x00\n              swap1\n              sload\n              swap1\n              0x0100\n              exp\n              swap1\n              div\n              0xffffffffffffffffffffffffffffffffffffffff\n              and\n              dup2\n              jump\t// out\n                /* \"Campaign.sol\":2370:2411  mapping (uint => Request) public requests */\n            tag_45:\n              mstore(0x20, 0x00)\n              dup1\n              0x00\n              mstore\n              keccak256(0x00, 0x40)\n              0x00\n              swap2\n              pop\n              swap1\n              pop\n              dup1\n              0x00\n              add\n              dup1\n              sload\n              tag_118\n              swap1\n              tag_113\n              jump\t// in\n            tag_118:\n              dup1\n              0x1f\n              add\n              0x20\n              dup1\n              swap2\n              div\n              mul\n              0x20\n              add\n              mload(0x40)\n              swap1\n              dup2\n              add\n              0x40\n              mstore\n              dup1\n              swap3\n              swap2\n              swap1\n              dup2\n              dup2\n              mstore\n              0x20\n              add\n              dup3\n              dup1\n              sload\n              tag_119\n              swap1\n              tag_113\n              jump\t// in\n            tag_119:\n              dup1\n              iszero\n              tag_120\n              jumpi\n              dup1\n              0x1f\n              lt\n              tag_121\n              jumpi\n              0x0100\n              dup1\n              dup4\n              sload\n              div\n              mul\n              dup4\n              mstore\n              swap2\n              0x20\n              add\n              swap2\n              jump(tag_120)\n            tag_121:\n              dup3\n              add\n              swap2\n              swap1\n              0x00\n              mstore\n              keccak256(0x00, 0x20)\n              swap1\n            tag_122:\n              dup2\n              sload\n              dup2\n              mstore\n              swap1\n              0x01\n              add\n              swap1\n              0x20\n              add\n              dup1\n              dup4\n              gt\n              tag_122\n              jumpi\n              dup3\n              swap1\n              sub\n              0x1f\n              and\n              dup3\n              add\n              swap2\n            tag_120:\n              pop\n              pop\n              pop\n              pop\n              pop\n              swap1\n              dup1\n              0x01\n              add\n              sload\n              swap1\n              dup1\n              0x02\n              add\n              0x00\n              swap1\n              sload\n              swap1\n              0x0100\n              exp\n              swap1\n              div\n              0xffffffffffffffffffffffffffffffffffffffff\n              and\n              swap1\n              dup1\n              0x02\n              add\n              0x14\n              swap1\n              sload\n              swap1\n              0x0100\n              exp\n              swap1\n              div\n              0xff\n              and\n              swap1\n              dup1\n              0x03\n              add\n              sload\n              swap1\n              pop\n              dup6\n              jump\t// out\n                /* \"Campaign.sol\":2828:2854  uint public approversCount */\n            tag_50:\n              sload(0x07)\n              dup2\n              jump\t// out\n                /* \"Campaign.sol\":2685:2712  string public campaignTitle */\n            tag_55:\n              0x04\n              dup1\n              sload\n              tag_123\n              swap1\n              tag_113\n              jump\t// in\n            tag_123:\n              dup1\n              0x1f\n              add\n              0x20\n              dup1\n              swap2\n              div\n              mul\n              0x20\n              add\n              mload(0x40)\n              swap1\n              dup2\n              add\n              0x40\n              mstore\n              dup1\n              swap3\n              swap2\n              swap1\n              dup2\n              dup2\n              mstore\n              0x20\n              add\n              dup3\n              dup1\n              sload\n              tag_124\n              swap1\n              tag_113\n              jump\t// in\n            tag_124:\n              dup1\n              iszero\n              tag_125\n              jumpi\n              dup1\n              0x1f\n              lt\n              tag_126\n              jumpi\n              0x0100\n              dup1\n              dup4\n              sload\n              div\n              mul\n              dup4\n              mstore\n              swap2\n              0x20\n              add\n              swap2\n              jump(tag_125)\n            tag_126:\n              dup3\n              add\n              swap2\n              swap1\n              0x00\n              mstore\n              keccak256(0x00, 0x20)\n              swap1\n            tag_127:\n              dup2\n              sload\n              dup2\n              mstore\n              swap1\n              0x01\n              add\n              swap1\n              0x20\n              add\n              dup1\n              dup4\n              gt\n              tag_127\n              jumpi\n              dup3\n              swap1\n              sub\n              0x1f\n              and\n              dup3\n              add\n              swap2\n            tag_125:\n              pop\n              pop\n              pop\n              pop\n              pop\n              dup2\n              jump\t// out\n                /* \"Campaign.sol\":4110:4760  function createRequest (string memory  description, uint value, address payable recipient) public onlyManagerAllowed{... */\n            tag_61:\n                /* \"Campaign.sol\":3976:3983  manager */\n              0x03\n              0x00\n              swap1\n              sload\n              swap1\n              0x0100\n              exp\n              swap1\n              div\n              0xffffffffffffffffffffffffffffffffffffffff\n              and\n                /* \"Campaign.sol\":3962:3983  msg.sender == manager */\n              0xffffffffffffffffffffffffffffffffffffffff\n              and\n                /* \"Campaign.sol\":3962:3972  msg.sender */\n              caller\n                /* \"Campaign.sol\":3962:3983  msg.sender == manager */\n              0xffffffffffffffffffffffffffffffffffffffff\n              and\n              eq\n                /* \"Campaign.sol\":3953:4036  require (msg.sender == manager, \"Only manager is allowed to called this function.\") */\n              tag_129\n              jumpi\n              mload(0x40)\n              0x08c379a000000000000000000000000000000000000000000000000000000000\n              dup2\n              mstore\n              0x04\n              add\n              tag_130\n              swap1\n              tag_94\n              jump\t// in\n            tag_130:\n              mload(0x40)\n              dup1\n              swap2\n              sub\n              swap1\n              revert\n            tag_129:\n                /* \"Campaign.sol\":4326:4347  address(this).balance */\n              selfbalance\n                /* \"Campaign.sol\":4318:4323  value */\n              dup3\n                /* \"Campaign.sol\":4318:4347  value < address(this).balance */\n              lt\n                /* \"Campaign.sol\":4310:4400  require(value < address(this).balance, \"Request value is greater than campaign balance!!\") */\n              tag_132\n              jumpi\n              mload(0x40)\n              0x08c379a000000000000000000000000000000000000000000000000000000000\n              dup2\n              mstore\n              0x04\n              add\n              tag_133\n              swap1\n              tag_134\n              jump\t// in\n            tag_133:\n              mload(0x40)\n              dup1\n              swap2\n              sub\n              swap1\n              revert\n            tag_132:\n                /* \"Campaign.sol\":4421:4447  Request storage newRequest */\n              0x00\n                /* \"Campaign.sol\":4451:4459  requests */\n              dup1\n                /* \"Campaign.sol\":4451:4476  requests[requestsCount++] */\n              0x00\n                /* \"Campaign.sol\":4460:4473  requestsCount */\n              0x02\n              0x00\n                /* \"Campaign.sol\":4460:4475  requestsCount++ */\n              dup2\n              sload\n              dup1\n              swap3\n              swap2\n              swap1\n              tag_135\n              swap1\n              tag_136\n              jump\t// in\n            tag_135:\n              swap2\n              swap1\n              pop\n              sstore\n                /* \"Campaign.sol\":4451:4476  requests[requestsCount++] */\n              dup2\n              mstore\n              0x20\n              add\n              swap1\n              dup2\n              mstore\n              0x20\n              add\n              0x00\n              keccak256\n                /* \"Campaign.sol\":4421:4476  Request storage newRequest  = requests[requestsCount++] */\n              swap1\n              pop\n                /* \"Campaign.sol\":4522:4533  description */\n              dup4\n                /* \"Campaign.sol\":4497:4507  newRequest */\n              dup2\n                /* \"Campaign.sol\":4497:4519  newRequest.description */\n              0x00\n              add\n                /* \"Campaign.sol\":4497:4533  newRequest.description = description */\n              swap1\n              dup1\n              mload\n              swap1\n              0x20\n              add\n              swap1\n              tag_137\n              swap3\n              swap2\n              swap1\n              tag_138\n              jump\t// in\n            tag_137:\n              pop\n                /* \"Campaign.sol\":4563:4568  value */\n              dup3\n                /* \"Campaign.sol\":4544:4554  newRequest */\n              dup2\n                /* \"Campaign.sol\":4544:4560  newRequest.value */\n              0x01\n              add\n                /* \"Campaign.sol\":4544:4568  newRequest.value = value */\n              dup2\n              swap1\n              sstore\n              pop\n                /* \"Campaign.sol\":4602:4611  recipient */\n              dup2\n                /* \"Campaign.sol\":4579:4589  newRequest */\n              dup2\n                /* \"Campaign.sol\":4579:4599  newRequest.recipient */\n              0x02\n              add\n              0x00\n                /* \"Campaign.sol\":4579:4611  newRequest.recipient = recipient */\n              0x0100\n              exp\n              dup2\n              sload\n              dup2\n              0xffffffffffffffffffffffffffffffffffffffff\n              mul\n              not\n              and\n              swap1\n              dup4\n              0xffffffffffffffffffffffffffffffffffffffff\n              and\n              mul\n              or\n              swap1\n              sstore\n              pop\n                /* \"Campaign.sol\":4645:4650  false */\n              0x00\n                /* \"Campaign.sol\":4622:4632  newRequest */\n              dup2\n                /* \"Campaign.sol\":4622:4642  newRequest.completed */\n              0x02\n              add\n              0x14\n                /* \"Campaign.sol\":4622:4650  newRequest.completed = false */\n              0x0100\n              exp\n              dup2\n              sload\n              dup2\n              0xff\n              mul\n              not\n              and\n              swap1\n              dup4\n              iszero\n              iszero\n              mul\n              or\n              swap1\n              sstore\n              pop\n                /* \"Campaign.sol\":4688:4689  0 */\n              0x00\n                /* \"Campaign.sol\":4661:4671  newRequest */\n              dup2\n                /* \"Campaign.sol\":4661:4685  newRequest.approvalCount */\n              0x03\n              add\n                /* \"Campaign.sol\":4661:4689  newRequest.approvalCount = 0 */\n              dup2\n              swap1\n              sstore\n              pop\n                /* \"Campaign.sol\":4046:4047  _ */\n              pop\n                /* \"Campaign.sol\":4110:4760  function createRequest (string memory  description, uint value, address payable recipient) public onlyManagerAllowed{... */\n              pop\n              pop\n              pop\n              jump\t// out\n                /* \"Campaign.sol\":2757:2788  uint public minimumContribution */\n            tag_64:\n              sload(0x06)\n              dup2\n              jump\t// out\n                /* \"Campaign.sol\":7801:8157  function getCampaignSummary() public view returns (uint, string memory, string memory, uint, uint, uint, address){... */\n            tag_68:\n                /* \"Campaign.sol\":7852:7856  uint */\n              0x00\n                /* \"Campaign.sol\":7858:7871  string memory */\n              0x60\n                /* \"Campaign.sol\":7873:7886  string memory */\n              dup1\n                /* \"Campaign.sol\":7888:7892  uint */\n              0x00\n                /* \"Campaign.sol\":7894:7898  uint */\n              dup1\n                /* \"Campaign.sol\":7900:7904  uint */\n              0x00\n                /* \"Campaign.sol\":7906:7913  address */\n              dup1\n                /* \"Campaign.sol\":7945:7964  minimumContribution */\n              sload(0x06)\n                /* \"Campaign.sol\":7978:7991  campaignTitle */\n              0x04\n                /* \"Campaign.sol\":8006:8025  campaignDescription */\n              0x05\n                /* \"Campaign.sol\":8039:8043  this */\n              address\n                /* \"Campaign.sol\":8039:8062  this.getCampaignBalance */\n              0xffffffffffffffffffffffffffffffffffffffff\n              and\n              0xbfeba227\n                /* \"Campaign.sol\":8039:8064  this.getCampaignBalance() */\n              mload(0x40)\n              dup2\n              0xffffffff\n              and\n              0xe0\n              shl\n              dup2\n              mstore\n              0x04\n              add\n              0x20\n              mload(0x40)\n              dup1\n              dup4\n              sub\n              dup2\n              dup7\n              dup1\n              extcodesize\n              iszero\n              dup1\n              iszero\n              tag_140\n              jumpi\n              0x00\n              dup1\n              revert\n            tag_140:\n              pop\n              gas\n              staticcall\n              iszero\n              dup1\n              iszero\n              tag_142\n              jumpi\n              returndatasize\n              0x00\n              dup1\n              returndatacopy\n              revert(0x00, returndatasize)\n            tag_142:\n              pop\n              pop\n              pop\n              pop\n              mload(0x40)\n              returndatasize\n              not(0x1f)\n              0x1f\n              dup3\n              add\n              and\n              dup3\n              add\n              dup1\n              0x40\n              mstore\n              pop\n              dup2\n              add\n              swap1\n              tag_143\n              swap2\n              swap1\n              tag_144\n              jump\t// in\n            tag_143:\n                /* \"Campaign.sol\":8078:8091  requestsCount */\n              sload(0x02)\n                /* \"Campaign.sol\":8105:8119  approversCount */\n              sload(0x07)\n                /* \"Campaign.sol\":8133:8140  manager */\n              0x03\n              0x00\n              swap1\n              sload\n              swap1\n              0x0100\n              exp\n              swap1\n              div\n              0xffffffffffffffffffffffffffffffffffffffff\n              and\n                /* \"Campaign.sol\":7924:8150  return (... */\n              dup6\n              dup1\n              sload\n              tag_145\n              swap1\n              tag_113\n              jump\t// in\n            tag_145:\n              dup1\n              0x1f\n              add\n              0x20\n              dup1\n              swap2\n              div\n              mul\n              0x20\n              add\n              mload(0x40)\n              swap1\n              dup2\n              add\n              0x40\n              mstore\n              dup1\n              swap3\n              swap2\n              swap1\n              dup2\n              dup2\n              mstore\n              0x20\n              add\n              dup3\n              dup1\n              sload\n              tag_146\n              swap1\n              tag_113\n              jump\t// in\n            tag_146:\n              dup1\n              iszero\n              tag_147\n              jumpi\n              dup1\n              0x1f\n              lt\n              tag_148\n              jumpi\n              0x0100\n              dup1\n              dup4\n              sload\n              div\n              mul\n              dup4\n              mstore\n              swap2\n              0x20\n              add\n              swap2\n              jump(tag_147)\n            tag_148:\n              dup3\n              add\n              swap2\n              swap1\n              0x00\n              mstore\n              keccak256(0x00, 0x20)\n              swap1\n            tag_149:\n              dup2\n              sload\n              dup2\n              mstore\n              swap1\n              0x01\n              add\n              swap1\n              0x20\n              add\n              dup1\n              dup4\n              gt\n              tag_149\n              jumpi\n              dup3\n              swap1\n              sub\n              0x1f\n              and\n              dup3\n              add\n              swap2\n            tag_147:\n              pop\n              pop\n              pop\n              pop\n              pop\n              swap6\n              pop\n              dup5\n              dup1\n              sload\n              tag_150\n              swap1\n              tag_113\n              jump\t// in\n            tag_150:\n              dup1\n              0x1f\n              add\n              0x20\n              dup1\n              swap2\n              div\n              mul\n              0x20\n              add\n              mload(0x40)\n              swap1\n              dup2\n              add\n              0x40\n              mstore\n              dup1\n              swap3\n              swap2\n              swap1\n              dup2\n              dup2\n              mstore\n              0x20\n              add\n              dup3\n              dup1\n              sload\n              tag_151\n              swap1\n              tag_113\n              jump\t// in\n            tag_151:\n              dup1\n              iszero\n              tag_152\n              jumpi\n              dup1\n              0x1f\n              lt\n              tag_153\n              jumpi\n              0x0100\n              dup1\n              dup4\n              sload\n              div\n              mul\n              dup4\n              mstore\n              swap2\n              0x20\n              add\n              swap2\n              jump(tag_152)\n            tag_153:\n              dup3\n              add\n              swap2\n              swap1\n              0x00\n              mstore\n              keccak256(0x00, 0x20)\n              swap1\n            tag_154:\n              dup2\n              sload\n              dup2\n              mstore\n              swap1\n              0x01\n              add\n              swap1\n              0x20\n              add\n              dup1\n              dup4\n              gt\n              tag_154\n              jumpi\n              dup3\n              swap1\n              sub\n              0x1f\n              and\n              dup3\n              add\n              swap2\n            tag_152:\n              pop\n              pop\n              pop\n              pop\n              pop\n              swap5\n              pop\n              swap7\n              pop\n              swap7\n              pop\n              swap7\n              pop\n              swap7\n              pop\n              swap7\n              pop\n              swap7\n              pop\n              swap7\n              pop\n                /* \"Campaign.sol\":7801:8157  function getCampaignSummary() public view returns (uint, string memory, string memory, uint, uint, uint, address){... */\n              swap1\n              swap2\n              swap3\n              swap4\n              swap5\n              swap6\n              swap7\n              jump\t// out\n                /* \"Campaign.sol\":7648:7751  function getCampaignBalance() public view returns (uint){... */\n            tag_73:\n                /* \"Campaign.sol\":7699:7703  uint */\n              0x00\n                /* \"Campaign.sol\":7722:7743  address(this).balance */\n              selfbalance\n                /* \"Campaign.sol\":7714:7744  return (address(this).balance) */\n              swap1\n              pop\n                /* \"Campaign.sol\":7648:7751  function getCampaignBalance() public view returns (uint){... */\n              swap1\n              jump\t// out\n                /* \"Campaign.sol\":3450:3851  function contribute () public payable{... */\n            tag_76:\n                /* \"Campaign.sol\":3518:3537  minimumContribution */\n              sload(0x06)\n                /* \"Campaign.sol\":3505:3514  msg.value */\n              callvalue\n                /* \"Campaign.sol\":3505:3537  msg.value >= minimumContribution */\n              lt\n              iszero\n                /* \"Campaign.sol\":3497:3574  require(msg.value >= minimumContribution, \"Mininum contribution is not met.\") */\n              tag_157\n              jumpi\n              mload(0x40)\n              0x08c379a000000000000000000000000000000000000000000000000000000000\n              dup2\n              mstore\n              0x04\n              add\n              tag_158\n              swap1\n              tag_159\n              jump\t// in\n            tag_158:\n              mload(0x40)\n              dup1\n              swap2\n              sub\n              swap1\n              revert\n            tag_157:\n                /* \"Campaign.sol\":3705:3710  false */\n              0x00\n                /* \"Campaign.sol\":3682:3710  approvers[msg.sender]==false */\n              iszero\n              iszero\n                /* \"Campaign.sol\":3682:3691  approvers */\n              0x01\n                /* \"Campaign.sol\":3682:3703  approvers[msg.sender] */\n              0x00\n                /* \"Campaign.sol\":3692:3702  msg.sender */\n              caller\n                /* \"Campaign.sol\":3682:3703  approvers[msg.sender] */\n              0xffffffffffffffffffffffffffffffffffffffff\n              and\n              0xffffffffffffffffffffffffffffffffffffffff\n              and\n              dup2\n              mstore\n              0x20\n              add\n              swap1\n              dup2\n              mstore\n              0x20\n              add\n              0x00\n              keccak256\n              0x00\n              swap1\n              sload\n              swap1\n              0x0100\n              exp\n              swap1\n              div\n              0xff\n              and\n                /* \"Campaign.sol\":3682:3710  approvers[msg.sender]==false */\n              iszero\n              iszero\n              eq\n                /* \"Campaign.sol\":3678:3819  if (approvers[msg.sender]==false)... */\n              iszero\n              tag_160\n              jumpi\n                /* \"Campaign.sol\":3737:3751  approversCount */\n              0x07\n              0x00\n                /* \"Campaign.sol\":3737:3753  approversCount++ */\n              dup2\n              sload\n              dup1\n              swap3\n              swap2\n              swap1\n              tag_161\n              swap1\n              tag_136\n              jump\t// in\n            tag_161:\n              swap2\n              swap1\n              pop\n              sstore\n              pop\n                /* \"Campaign.sol\":3791:3795  true */\n              0x01\n                /* \"Campaign.sol\":3767:3776  approvers */\n              dup1\n                /* \"Campaign.sol\":3767:3788  approvers[msg.sender] */\n              0x00\n                /* \"Campaign.sol\":3777:3787  msg.sender */\n              caller\n                /* \"Campaign.sol\":3767:3788  approvers[msg.sender] */\n              0xffffffffffffffffffffffffffffffffffffffff\n              and\n              0xffffffffffffffffffffffffffffffffffffffff\n              and\n              dup2\n              mstore\n              0x20\n              add\n              swap1\n              dup2\n              mstore\n              0x20\n              add\n              0x00\n              keccak256\n              0x00\n                /* \"Campaign.sol\":3767:3795  approvers[msg.sender] = true */\n              0x0100\n              exp\n              dup2\n              sload\n              dup2\n              0xff\n              mul\n              not\n              and\n              swap1\n              dup4\n              iszero\n              iszero\n              mul\n              or\n              swap1\n              sstore\n              pop\n                /* \"Campaign.sol\":3678:3819  if (approvers[msg.sender]==false)... */\n            tag_160:\n                /* \"Campaign.sol\":3450:3851  function contribute () public payable{... */\n              jump\t// out\n                /* \"Campaign.sol\":4810:5705  function approveRequest(uint index) public {... */\n            tag_80:\n                /* \"Campaign.sol\":4940:4949  approvers */\n              0x01\n                /* \"Campaign.sol\":4940:4961  approvers[msg.sender] */\n              0x00\n                /* \"Campaign.sol\":4950:4960  msg.sender */\n              caller\n                /* \"Campaign.sol\":4940:4961  approvers[msg.sender] */\n              0xffffffffffffffffffffffffffffffffffffffff\n              and\n              0xffffffffffffffffffffffffffffffffffffffff\n              and\n              dup2\n              mstore\n              0x20\n              add\n              swap1\n              dup2\n              mstore\n              0x20\n              add\n              0x00\n              keccak256\n              0x00\n              swap1\n              sload\n              swap1\n              0x0100\n              exp\n              swap1\n              div\n              0xff\n              and\n                /* \"Campaign.sol\":4932:5002  require(approvers[msg.sender], \"You have not donated to the project.\") */\n              tag_163\n              jumpi\n              mload(0x40)\n              0x08c379a000000000000000000000000000000000000000000000000000000000\n              dup2\n              mstore\n              0x04\n              add\n              tag_164\n              swap1\n              tag_165\n              jump\t// in\n            tag_164:\n              mload(0x40)\n              dup1\n              swap2\n              sub\n              swap1\n              revert\n            tag_163:\n                /* \"Campaign.sol\":5021:5044  Request storage request */\n              0x00\n                /* \"Campaign.sol\":5047:5055  requests */\n              dup1\n                /* \"Campaign.sol\":5047:5062  requests[index] */\n              0x00\n                /* \"Campaign.sol\":5056:5061  index */\n              dup4\n                /* \"Campaign.sol\":5047:5062  requests[index] */\n              dup2\n              mstore\n              0x20\n              add\n              swap1\n              dup2\n              mstore\n              0x20\n              add\n              0x00\n              keccak256\n                /* \"Campaign.sol\":5021:5062  Request storage request = requests[index] */\n              swap1\n              pop\n                /* \"Campaign.sol\":5132:5139  request */\n              dup1\n                /* \"Campaign.sol\":5132:5149  request.approvals */\n              0x04\n              add\n                /* \"Campaign.sol\":5132:5161  request.approvals[msg.sender] */\n              0x00\n                /* \"Campaign.sol\":5150:5160  msg.sender */\n              caller\n                /* \"Campaign.sol\":5132:5161  request.approvals[msg.sender] */\n              0xffffffffffffffffffffffffffffffffffffffff\n              and\n              0xffffffffffffffffffffffffffffffffffffffff\n              and\n              dup2\n              mstore\n              0x20\n              add\n              swap1\n              dup2\n              mstore\n              0x20\n              add\n              0x00\n              keccak256\n              0x00\n              swap1\n              sload\n              swap1\n              0x0100\n              exp\n              swap1\n              div\n              0xff\n              and\n                /* \"Campaign.sol\":5131:5161  !request.approvals[msg.sender] */\n              iszero\n                /* \"Campaign.sol\":5123:5184  require(!request.approvals[msg.sender], \"You already voted!\") */\n              tag_166\n              jumpi\n              mload(0x40)\n              0x08c379a000000000000000000000000000000000000000000000000000000000\n              dup2\n              mstore\n              0x04\n              add\n              tag_167\n              swap1\n              tag_168\n              jump\t// in\n            tag_167:\n              mload(0x40)\n              dup1\n              swap2\n              sub\n              swap1\n              revert\n            tag_166:\n                /* \"Campaign.sol\":5266:5279  requestsCount */\n              sload(0x02)\n                /* \"Campaign.sol\":5258:5263  index */\n              dup3\n                /* \"Campaign.sol\":5258:5279  index < requestsCount */\n              lt\n                /* \"Campaign.sol\":5250:5355  require(index < requestsCount, \"You attempt to approve a non-existent request. Check the request index!\") */\n              tag_169\n              jumpi\n              mload(0x40)\n              0x08c379a000000000000000000000000000000000000000000000000000000000\n              dup2\n              mstore\n              0x04\n              add\n              tag_170\n              swap1\n              tag_171\n              jump\t// in\n            tag_170:\n              mload(0x40)\n              dup1\n              swap2\n              sub\n              swap1\n              revert\n            tag_169:\n                /* \"Campaign.sol\":5424:5431  request */\n              dup1\n                /* \"Campaign.sol\":5424:5441  request.completed */\n              0x02\n              add\n              0x14\n              swap1\n              sload\n              swap1\n              0x0100\n              exp\n              swap1\n              div\n              0xff\n              and\n                /* \"Campaign.sol\":5423:5441  !request.completed */\n              iszero\n                /* \"Campaign.sol\":5415:5481  require(!request.completed, \"This request was already completed.\") */\n              tag_172\n              jumpi\n              mload(0x40)\n              0x08c379a000000000000000000000000000000000000000000000000000000000\n              dup2\n              mstore\n              0x04\n              add\n              tag_173\n              swap1\n              tag_101\n              jump\t// in\n            tag_173:\n              mload(0x40)\n              dup1\n              swap2\n              sub\n              swap1\n              revert\n            tag_172:\n                /* \"Campaign.sol\":5605:5609  true */\n              0x01\n                /* \"Campaign.sol\":5573:5580  request */\n              dup2\n                /* \"Campaign.sol\":5573:5590  request.approvals */\n              0x04\n              add\n                /* \"Campaign.sol\":5573:5602  request.approvals[msg.sender] */\n              0x00\n                /* \"Campaign.sol\":5591:5601  msg.sender */\n              caller\n                /* \"Campaign.sol\":5573:5602  request.approvals[msg.sender] */\n              0xffffffffffffffffffffffffffffffffffffffff\n              and\n              0xffffffffffffffffffffffffffffffffffffffff\n              and\n              dup2\n              mstore\n              0x20\n              add\n              swap1\n              dup2\n              mstore\n              0x20\n              add\n              0x00\n              keccak256\n              0x00\n                /* \"Campaign.sol\":5573:5609  request.approvals[msg.sender] = true */\n              0x0100\n              exp\n              dup2\n              sload\n              dup2\n              0xff\n              mul\n              not\n              and\n              swap1\n              dup4\n              iszero\n              iszero\n              mul\n              or\n              swap1\n              sstore\n              pop\n                /* \"Campaign.sol\":5675:5682  request */\n              dup1\n                /* \"Campaign.sol\":5675:5696  request.approvalCount */\n              0x03\n              add\n              0x00\n                /* \"Campaign.sol\":5675:5698  request.approvalCount++ */\n              dup2\n              sload\n              dup1\n              swap3\n              swap2\n              swap1\n              tag_174\n              swap1\n              tag_136\n              jump\t// in\n            tag_174:\n              swap2\n              swap1\n              pop\n              sstore\n              pop\n                /* \"Campaign.sol\":4810:5705  function approveRequest(uint index) public {... */\n              pop\n              pop\n              jump\t// out\n                /* \"Campaign.sol\":6845:7577  function getRequestDetails(uint index) public view returns (string memory, uint, address, bool, uint){... */\n            tag_84:\n                /* \"Campaign.sol\":6905:6918  string memory */\n              0x60\n                /* \"Campaign.sol\":6920:6924  uint */\n              0x00\n                /* \"Campaign.sol\":6926:6933  address */\n              dup1\n                /* \"Campaign.sol\":6935:6939  bool */\n              0x00\n                /* \"Campaign.sol\":6941:6945  uint */\n              dup1\n                /* \"Campaign.sol\":6956:6979  Request storage request */\n              0x00\n                /* \"Campaign.sol\":6982:6990  requests */\n              dup1\n                /* \"Campaign.sol\":6982:6997  requests[index] */\n              0x00\n                /* \"Campaign.sol\":6991:6996  index */\n              dup9\n                /* \"Campaign.sol\":6982:6997  requests[index] */\n              dup2\n              mstore\n              0x20\n              add\n              swap1\n              dup2\n              mstore\n              0x20\n              add\n              0x00\n              keccak256\n                /* \"Campaign.sol\":6956:6997  Request storage request = requests[index] */\n              swap1\n              pop\n                /* \"Campaign.sol\":7016:7041  string memory description */\n              0x00\n                /* \"Campaign.sol\":7044:7051  request */\n              dup2\n                /* \"Campaign.sol\":7044:7063  request.description */\n              0x00\n              add\n                /* \"Campaign.sol\":7016:7063  string memory description = request.description */\n              dup1\n              sload\n              tag_176\n              swap1\n              tag_113\n              jump\t// in\n            tag_176:\n              dup1\n              0x1f\n              add\n              0x20\n              dup1\n              swap2\n              div\n              mul\n              0x20\n              add\n              mload(0x40)\n              swap1\n              dup2\n              add\n              0x40\n              mstore\n              dup1\n              swap3\n              swap2\n              swap1\n              dup2\n              dup2\n              mstore\n              0x20\n              add\n              dup3\n              dup1\n              sload\n              tag_177\n              swap1\n              tag_113\n              jump\t// in\n            tag_177:\n              dup1\n              iszero\n              tag_178\n              jumpi\n              dup1\n              0x1f\n              lt\n              tag_179\n              jumpi\n              0x0100\n              dup1\n              dup4\n              sload\n              div\n              mul\n              dup4\n              mstore\n              swap2\n              0x20\n              add\n              swap2\n              jump(tag_178)\n            tag_179:\n              dup3\n              add\n              swap2\n              swap1\n              0x00\n              mstore\n              keccak256(0x00, 0x20)\n              swap1\n            tag_180:\n              dup2\n              sload\n              dup2\n              mstore\n              swap1\n              0x01\n              add\n              swap1\n              0x20\n              add\n              dup1\n              dup4\n              gt\n              tag_180\n              jumpi\n              dup3\n              swap1\n              sub\n              0x1f\n              and\n              dup3\n              add\n              swap2\n            tag_178:\n              pop\n              pop\n              pop\n              pop\n              pop\n              swap1\n              pop\n                /* \"Campaign.sol\":7103:7113  uint value */\n              0x00\n                /* \"Campaign.sol\":7116:7123  request */\n              dup3\n                /* \"Campaign.sol\":7116:7129  request.value */\n              0x01\n              add\n              sload\n                /* \"Campaign.sol\":7103:7129  uint value = request.value */\n              swap1\n              pop\n                /* \"Campaign.sol\":7163:7180  address recipient */\n              0x00\n                /* \"Campaign.sol\":7183:7190  request */\n              dup4\n                /* \"Campaign.sol\":7183:7200  request.recipient */\n              0x02\n              add\n              0x00\n              swap1\n              sload\n              swap1\n              0x0100\n              exp\n              swap1\n              div\n              0xffffffffffffffffffffffffffffffffffffffff\n              and\n                /* \"Campaign.sol\":7163:7200  address recipient = request.recipient */\n              swap1\n              pop\n                /* \"Campaign.sol\":7265:7279  bool completed */\n              0x00\n                /* \"Campaign.sol\":7282:7289  request */\n              dup5\n                /* \"Campaign.sol\":7282:7299  request.completed */\n              0x02\n              add\n              0x14\n              swap1\n              sload\n              swap1\n              0x0100\n              exp\n              swap1\n              div\n              0xff\n              and\n                /* \"Campaign.sol\":7265:7299  bool completed = request.completed */\n              swap1\n              pop\n                /* \"Campaign.sol\":7359:7377  uint approvalCount */\n              0x00\n                /* \"Campaign.sol\":7380:7387  request */\n              dup6\n                /* \"Campaign.sol\":7380:7401  request.approvalCount */\n              0x03\n              add\n              sload\n                /* \"Campaign.sol\":7359:7401  uint approvalCount = request.approvalCount */\n              swap1\n              pop\n                /* \"Campaign.sol\":7450:7461  description */\n              dup5\n                /* \"Campaign.sol\":7479:7484  value */\n              dup5\n                /* \"Campaign.sol\":7502:7511  recipient */\n              dup5\n                /* \"Campaign.sol\":7529:7538  completed */\n              dup5\n                /* \"Campaign.sol\":7556:7569  approvalCount */\n              dup5\n                /* \"Campaign.sol\":7442:7570  return (description,... */\n              swap11\n              pop\n              swap11\n              pop\n              swap11\n              pop\n              swap11\n              pop\n              swap11\n              pop\n              pop\n              pop\n              pop\n              pop\n              pop\n              pop\n                /* \"Campaign.sol\":6845:7577  function getRequestDetails(uint index) public view returns (string memory, uint, address, bool, uint){... */\n              swap2\n              swap4\n              swap6\n              swap1\n              swap3\n              swap5\n              pop\n              jump\t// out\n                /* \"Campaign.sol\":2574:2599  uint public requestsCount */\n            tag_89:\n              sload(0x02)\n              dup2\n              jump\t// out\n            tag_138:\n              dup3\n              dup1\n              sload\n              tag_181\n              swap1\n              tag_113\n              jump\t// in\n            tag_181:\n              swap1\n              0x00\n              mstore\n              keccak256(0x00, 0x20)\n              swap1\n              0x1f\n              add\n              0x20\n              swap1\n              div\n              dup2\n              add\n              swap3\n              dup3\n              tag_183\n              jumpi\n              0x00\n              dup6\n              sstore\n              jump(tag_182)\n            tag_183:\n              dup3\n              0x1f\n              lt\n              tag_184\n              jumpi\n              dup1\n              mload\n              not(0xff)\n              and\n              dup4\n              dup1\n              add\n              or\n              dup6\n              sstore\n              jump(tag_182)\n            tag_184:\n              dup3\n              dup1\n              add\n              0x01\n              add\n              dup6\n              sstore\n              dup3\n              iszero\n              tag_182\n              jumpi\n              swap2\n              dup3\n              add\n            tag_185:\n              dup3\n              dup2\n              gt\n              iszero\n              tag_186\n              jumpi\n              dup3\n              mload\n              dup3\n              sstore\n              swap2\n              0x20\n              add\n              swap2\n              swap1\n              0x01\n              add\n              swap1\n              jump(tag_185)\n            tag_186:\n            tag_182:\n              pop\n              swap1\n              pop\n              tag_187\n              swap2\n              swap1\n              tag_188\n              jump\t// in\n            tag_187:\n              pop\n              swap1\n              jump\t// out\n            tag_188:\n            tag_189:\n              dup1\n              dup3\n              gt\n              iszero\n              tag_190\n              jumpi\n              0x00\n              dup2\n              0x00\n              swap1\n              sstore\n              pop\n              0x01\n              add\n              jump(tag_189)\n            tag_190:\n              pop\n              swap1\n              jump\t// out\n                /* \"#utility.yul\":7:352   */\n            tag_192:\n                /* \"#utility.yul\":85:90   */\n              0x00\n                /* \"#utility.yul\":110:176   */\n              tag_194\n                /* \"#utility.yul\":126:175   */\n              tag_195\n                /* \"#utility.yul\":168:174   */\n              dup5\n                /* \"#utility.yul\":126:175   */\n              tag_196\n              jump\t// in\n            tag_195:\n                /* \"#utility.yul\":110:176   */\n              tag_197\n              jump\t// in\n            tag_194:\n                /* \"#utility.yul\":101:176   */\n              swap1\n              pop\n                /* \"#utility.yul\":199:205   */\n              dup3\n                /* \"#utility.yul\":192:197   */\n              dup2\n                /* \"#utility.yul\":185:206   */\n              mstore\n                /* \"#utility.yul\":237:241   */\n              0x20\n                /* \"#utility.yul\":230:235   */\n              dup2\n                /* \"#utility.yul\":226:242   */\n              add\n                /* \"#utility.yul\":275:278   */\n              dup5\n                /* \"#utility.yul\":266:272   */\n              dup5\n                /* \"#utility.yul\":261:264   */\n              dup5\n                /* \"#utility.yul\":257:273   */\n              add\n                /* \"#utility.yul\":254:279   */\n              gt\n                /* \"#utility.yul\":251:253   */\n              iszero\n              tag_198\n              jumpi\n                /* \"#utility.yul\":292:293   */\n              0x00\n                /* \"#utility.yul\":289:290   */\n              dup1\n                /* \"#utility.yul\":282:294   */\n              revert\n                /* \"#utility.yul\":251:253   */\n            tag_198:\n                /* \"#utility.yul\":305:346   */\n              tag_199\n                /* \"#utility.yul\":339:345   */\n              dup5\n                /* \"#utility.yul\":334:337   */\n              dup3\n                /* \"#utility.yul\":329:332   */\n              dup6\n                /* \"#utility.yul\":305:346   */\n              tag_200\n              jump\t// in\n            tag_199:\n                /* \"#utility.yul\":91:352   */\n              pop\n              swap4\n              swap3\n              pop\n              pop\n              pop\n              jump\t// out\n                /* \"#utility.yul\":358:497   */\n            tag_201:\n                /* \"#utility.yul\":404:409   */\n              0x00\n                /* \"#utility.yul\":442:448   */\n              dup2\n                /* \"#utility.yul\":429:449   */\n              calldataload\n                /* \"#utility.yul\":420:449   */\n              swap1\n              pop\n                /* \"#utility.yul\":458:491   */\n              tag_203\n                /* \"#utility.yul\":485:490   */\n              dup2\n                /* \"#utility.yul\":458:491   */\n              tag_204\n              jump\t// in\n            tag_203:\n                /* \"#utility.yul\":410:497   */\n              swap3\n              swap2\n              pop\n              pop\n              jump\t// out\n                /* \"#utility.yul\":503:658   */\n            tag_205:\n                /* \"#utility.yul\":557:562   */\n              0x00\n                /* \"#utility.yul\":595:601   */\n              dup2\n                /* \"#utility.yul\":582:602   */\n              calldataload\n                /* \"#utility.yul\":573:602   */\n              swap1\n              pop\n                /* \"#utility.yul\":611:652   */\n              tag_207\n                /* \"#utility.yul\":646:651   */\n              dup2\n                /* \"#utility.yul\":611:652   */\n              tag_208\n              jump\t// in\n            tag_207:\n                /* \"#utility.yul\":563:658   */\n              swap3\n              swap2\n              pop\n              pop\n              jump\t// out\n                /* \"#utility.yul\":678:951   */\n            tag_209:\n                /* \"#utility.yul\":734:739   */\n              0x00\n                /* \"#utility.yul\":783:786   */\n              dup3\n                /* \"#utility.yul\":776:780   */\n              0x1f\n                /* \"#utility.yul\":768:774   */\n              dup4\n                /* \"#utility.yul\":764:781   */\n              add\n                /* \"#utility.yul\":760:787   */\n              slt\n                /* \"#utility.yul\":750:752   */\n              tag_211\n              jumpi\n                /* \"#utility.yul\":801:802   */\n              0x00\n                /* \"#utility.yul\":798:799   */\n              dup1\n                /* \"#utility.yul\":791:803   */\n              revert\n                /* \"#utility.yul\":750:752   */\n            tag_211:\n                /* \"#utility.yul\":841:847   */\n              dup2\n                /* \"#utility.yul\":828:848   */\n              calldataload\n                /* \"#utility.yul\":866:945   */\n              tag_212\n                /* \"#utility.yul\":941:944   */\n              dup5\n                /* \"#utility.yul\":933:939   */\n              dup3\n                /* \"#utility.yul\":926:930   */\n              0x20\n                /* \"#utility.yul\":918:924   */\n              dup7\n                /* \"#utility.yul\":914:931   */\n              add\n                /* \"#utility.yul\":866:945   */\n              tag_192\n              jump\t// in\n            tag_212:\n                /* \"#utility.yul\":857:945   */\n              swap2\n              pop\n                /* \"#utility.yul\":740:951   */\n              pop\n              swap3\n              swap2\n              pop\n              pop\n              jump\t// out\n                /* \"#utility.yul\":957:1096   */\n            tag_213:\n                /* \"#utility.yul\":1003:1008   */\n              0x00\n                /* \"#utility.yul\":1041:1047   */\n              dup2\n                /* \"#utility.yul\":1028:1048   */\n              calldataload\n                /* \"#utility.yul\":1019:1048   */\n              swap1\n              pop\n                /* \"#utility.yul\":1057:1090   */\n              tag_215\n                /* \"#utility.yul\":1084:1089   */\n              dup2\n                /* \"#utility.yul\":1057:1090   */\n              tag_216\n              jump\t// in\n            tag_215:\n                /* \"#utility.yul\":1009:1096   */\n              swap3\n              swap2\n              pop\n              pop\n              jump\t// out\n                /* \"#utility.yul\":1102:1245   */\n            tag_217:\n                /* \"#utility.yul\":1159:1164   */\n              0x00\n                /* \"#utility.yul\":1190:1196   */\n              dup2\n                /* \"#utility.yul\":1184:1197   */\n              mload\n                /* \"#utility.yul\":1175:1197   */\n              swap1\n              pop\n                /* \"#utility.yul\":1206:1239   */\n              tag_219\n                /* \"#utility.yul\":1233:1238   */\n              dup2\n                /* \"#utility.yul\":1206:1239   */\n              tag_216\n              jump\t// in\n            tag_219:\n                /* \"#utility.yul\":1165:1245   */\n              swap3\n              swap2\n              pop\n              pop\n              jump\t// out\n                /* \"#utility.yul\":1251:1513   */\n            tag_28:\n                /* \"#utility.yul\":1310:1316   */\n              0x00\n                /* \"#utility.yul\":1359:1361   */\n              0x20\n                /* \"#utility.yul\":1347:1356   */\n              dup3\n                /* \"#utility.yul\":1338:1345   */\n              dup5\n                /* \"#utility.yul\":1334:1357   */\n              sub\n                /* \"#utility.yul\":1330:1362   */\n              slt\n                /* \"#utility.yul\":1327:1329   */\n              iszero\n              tag_221\n              jumpi\n                /* \"#utility.yul\":1375:1376   */\n              0x00\n                /* \"#utility.yul\":1372:1373   */\n              dup1\n                /* \"#utility.yul\":1365:1377   */\n              revert\n                /* \"#utility.yul\":1327:1329   */\n            tag_221:\n                /* \"#utility.yul\":1418:1419   */\n              0x00\n                /* \"#utility.yul\":1443:1496   */\n              tag_222\n                /* \"#utility.yul\":1488:1495   */\n              dup5\n                /* \"#utility.yul\":1479:1485   */\n              dup3\n                /* \"#utility.yul\":1468:1477   */\n              dup6\n                /* \"#utility.yul\":1464:1486   */\n              add\n                /* \"#utility.yul\":1443:1496   */\n              tag_201\n              jump\t// in\n            tag_222:\n                /* \"#utility.yul\":1433:1496   */\n              swap2\n              pop\n                /* \"#utility.yul\":1389:1506   */\n              pop\n                /* \"#utility.yul\":1317:1513   */\n              swap3\n              swap2\n              pop\n              pop\n              jump\t// out\n                /* \"#utility.yul\":1519:2200   */\n            tag_60:\n                /* \"#utility.yul\":1614:1620   */\n              0x00\n                /* \"#utility.yul\":1622:1628   */\n              dup1\n                /* \"#utility.yul\":1630:1636   */\n              0x00\n                /* \"#utility.yul\":1679:1681   */\n              0x60\n                /* \"#utility.yul\":1667:1676   */\n              dup5\n                /* \"#utility.yul\":1658:1665   */\n              dup7\n                /* \"#utility.yul\":1654:1677   */\n              sub\n                /* \"#utility.yul\":1650:1682   */\n              slt\n                /* \"#utility.yul\":1647:1649   */\n              iszero\n              tag_224\n              jumpi\n                /* \"#utility.yul\":1695:1696   */\n              0x00\n                /* \"#utility.yul\":1692:1693   */\n              dup1\n                /* \"#utility.yul\":1685:1697   */\n              revert\n                /* \"#utility.yul\":1647:1649   */\n            tag_224:\n                /* \"#utility.yul\":1766:1767   */\n              0x00\n                /* \"#utility.yul\":1755:1764   */\n              dup5\n                /* \"#utility.yul\":1751:1768   */\n              add\n                /* \"#utility.yul\":1738:1769   */\n              calldataload\n                /* \"#utility.yul\":1796:1814   */\n              0xffffffffffffffff\n                /* \"#utility.yul\":1788:1794   */\n              dup2\n                /* \"#utility.yul\":1785:1815   */\n              gt\n                /* \"#utility.yul\":1782:1784   */\n              iszero\n              tag_225\n              jumpi\n                /* \"#utility.yul\":1828:1829   */\n              0x00\n                /* \"#utility.yul\":1825:1826   */\n              dup1\n                /* \"#utility.yul\":1818:1830   */\n              revert\n                /* \"#utility.yul\":1782:1784   */\n            tag_225:\n                /* \"#utility.yul\":1856:1919   */\n              tag_226\n                /* \"#utility.yul\":1911:1918   */\n              dup7\n                /* \"#utility.yul\":1902:1908   */\n              dup3\n                /* \"#utility.yul\":1891:1900   */\n              dup8\n                /* \"#utility.yul\":1887:1909   */\n              add\n                /* \"#utility.yul\":1856:1919   */\n              tag_209\n              jump\t// in\n            tag_226:\n                /* \"#utility.yul\":1846:1919   */\n              swap4\n              pop\n                /* \"#utility.yul\":1709:1929   */\n              pop\n                /* \"#utility.yul\":1968:1970   */\n              0x20\n                /* \"#utility.yul\":1994:2047   */\n              tag_227\n                /* \"#utility.yul\":2039:2046   */\n              dup7\n                /* \"#utility.yul\":2030:2036   */\n              dup3\n                /* \"#utility.yul\":2019:2028   */\n              dup8\n                /* \"#utility.yul\":2015:2037   */\n              add\n                /* \"#utility.yul\":1994:2047   */\n              tag_213\n              jump\t// in\n            tag_227:\n                /* \"#utility.yul\":1984:2047   */\n              swap3\n              pop\n                /* \"#utility.yul\":1939:2057   */\n              pop\n                /* \"#utility.yul\":2096:2098   */\n              0x40\n                /* \"#utility.yul\":2122:2183   */\n              tag_228\n                /* \"#utility.yul\":2175:2182   */\n              dup7\n                /* \"#utility.yul\":2166:2172   */\n              dup3\n                /* \"#utility.yul\":2155:2164   */\n              dup8\n                /* \"#utility.yul\":2151:2173   */\n              add\n                /* \"#utility.yul\":2122:2183   */\n              tag_205\n              jump\t// in\n            tag_228:\n                /* \"#utility.yul\":2112:2183   */\n              swap2\n              pop\n                /* \"#utility.yul\":2067:2193   */\n              pop\n                /* \"#utility.yul\":1637:2200   */\n              swap3\n              pop\n              swap3\n              pop\n              swap3\n              jump\t// out\n                /* \"#utility.yul\":2206:2468   */\n            tag_23:\n                /* \"#utility.yul\":2265:2271   */\n              0x00\n                /* \"#utility.yul\":2314:2316   */\n              0x20\n                /* \"#utility.yul\":2302:2311   */\n              dup3\n                /* \"#utility.yul\":2293:2300   */\n              dup5\n                /* \"#utility.yul\":2289:2312   */\n              sub\n                /* \"#utility.yul\":2285:2317   */\n              slt\n                /* \"#utility.yul\":2282:2284   */\n              iszero\n              tag_230\n              jumpi\n                /* \"#utility.yul\":2330:2331   */\n              0x00\n                /* \"#utility.yul\":2327:2328   */\n              dup1\n                /* \"#utility.yul\":2320:2332   */\n              revert\n                /* \"#utility.yul\":2282:2284   */\n            tag_230:\n                /* \"#utility.yul\":2373:2374   */\n              0x00\n                /* \"#utility.yul\":2398:2451   */\n              tag_231\n                /* \"#utility.yul\":2443:2450   */\n              dup5\n                /* \"#utility.yul\":2434:2440   */\n              dup3\n                /* \"#utility.yul\":2423:2432   */\n              dup6\n                /* \"#utility.yul\":2419:2441   */\n              add\n                /* \"#utility.yul\":2398:2451   */\n              tag_213\n              jump\t// in\n            tag_231:\n                /* \"#utility.yul\":2388:2451   */\n              swap2\n              pop\n                /* \"#utility.yul\":2344:2461   */\n              pop\n                /* \"#utility.yul\":2272:2468   */\n              swap3\n              swap2\n              pop\n              pop\n              jump\t// out\n                /* \"#utility.yul\":2474:2758   */\n            tag_144:\n                /* \"#utility.yul\":2544:2550   */\n              0x00\n                /* \"#utility.yul\":2593:2595   */\n              0x20\n                /* \"#utility.yul\":2581:2590   */\n              dup3\n                /* \"#utility.yul\":2572:2579   */\n              dup5\n                /* \"#utility.yul\":2568:2591   */\n              sub\n                /* \"#utility.yul\":2564:2596   */\n              slt\n                /* \"#utility.yul\":2561:2563   */\n              iszero\n              tag_233\n              jumpi\n                /* \"#utility.yul\":2609:2610   */\n              0x00\n                /* \"#utility.yul\":2606:2607   */\n              dup1\n                /* \"#utility.yul\":2599:2611   */\n              revert\n                /* \"#utility.yul\":2561:2563   */\n            tag_233:\n                /* \"#utility.yul\":2652:2653   */\n              0x00\n                /* \"#utility.yul\":2677:2741   */\n              tag_234\n                /* \"#utility.yul\":2733:2740   */\n              dup5\n                /* \"#utility.yul\":2724:2730   */\n              dup3\n                /* \"#utility.yul\":2713:2722   */\n              dup6\n                /* \"#utility.yul\":2709:2731   */\n              add\n                /* \"#utility.yul\":2677:2741   */\n              tag_217\n              jump\t// in\n            tag_234:\n                /* \"#utility.yul\":2667:2741   */\n              swap2\n              pop\n                /* \"#utility.yul\":2623:2751   */\n              pop\n                /* \"#utility.yul\":2551:2758   */\n              swap3\n              swap2\n              pop\n              pop\n              jump\t// out\n                /* \"#utility.yul\":2764:2906   */\n            tag_235:\n                /* \"#utility.yul\":2867:2899   */\n              tag_237\n                /* \"#utility.yul\":2893:2898   */\n              dup2\n                /* \"#utility.yul\":2867:2899   */\n              tag_238\n              jump\t// in\n            tag_237:\n                /* \"#utility.yul\":2862:2865   */\n              dup3\n                /* \"#utility.yul\":2855:2900   */\n              mstore\n                /* \"#utility.yul\":2845:2906   */\n              pop\n              pop\n              jump\t// out\n                /* \"#utility.yul\":2912:3030   */\n            tag_239:\n                /* \"#utility.yul\":2999:3023   */\n              tag_241\n                /* \"#utility.yul\":3017:3022   */\n              dup2\n                /* \"#utility.yul\":2999:3023   */\n              tag_242\n              jump\t// in\n            tag_241:\n                /* \"#utility.yul\":2994:2997   */\n              dup3\n                /* \"#utility.yul\":2987:3024   */\n              mstore\n                /* \"#utility.yul\":2977:3030   */\n              pop\n              pop\n              jump\t// out\n                /* \"#utility.yul\":3036:3145   */\n            tag_243:\n                /* \"#utility.yul\":3117:3138   */\n              tag_245\n                /* \"#utility.yul\":3132:3137   */\n              dup2\n                /* \"#utility.yul\":3117:3138   */\n              tag_246\n              jump\t// in\n            tag_245:\n                /* \"#utility.yul\":3112:3115   */\n              dup3\n                /* \"#utility.yul\":3105:3139   */\n              mstore\n                /* \"#utility.yul\":3095:3145   */\n              pop\n              pop\n              jump\t// out\n                /* \"#utility.yul\":3151:3515   */\n            tag_247:\n                /* \"#utility.yul\":3239:3242   */\n              0x00\n                /* \"#utility.yul\":3267:3306   */\n              tag_249\n                /* \"#utility.yul\":3300:3305   */\n              dup3\n                /* \"#utility.yul\":3267:3306   */\n              tag_250\n              jump\t// in\n            tag_249:\n                /* \"#utility.yul\":3322:3393   */\n              tag_251\n                /* \"#utility.yul\":3386:3392   */\n              dup2\n                /* \"#utility.yul\":3381:3384   */\n              dup6\n                /* \"#utility.yul\":3322:3393   */\n              tag_252\n              jump\t// in\n            tag_251:\n                /* \"#utility.yul\":3315:3393   */\n              swap4\n              pop\n                /* \"#utility.yul\":3402:3454   */\n              tag_253\n                /* \"#utility.yul\":3447:3453   */\n              dup2\n                /* \"#utility.yul\":3442:3445   */\n              dup6\n                /* \"#utility.yul\":3435:3439   */\n              0x20\n                /* \"#utility.yul\":3428:3433   */\n              dup7\n                /* \"#utility.yul\":3424:3440   */\n              add\n                /* \"#utility.yul\":3402:3454   */\n              tag_254\n              jump\t// in\n            tag_253:\n                /* \"#utility.yul\":3479:3508   */\n              tag_255\n                /* \"#utility.yul\":3501:3507   */\n              dup2\n                /* \"#utility.yul\":3479:3508   */\n              tag_256\n              jump\t// in\n            tag_255:\n                /* \"#utility.yul\":3474:3477   */\n              dup5\n                /* \"#utility.yul\":3470:3509   */\n              add\n                /* \"#utility.yul\":3463:3509   */\n              swap2\n              pop\n                /* \"#utility.yul\":3243:3515   */\n              pop\n              swap3\n              swap2\n              pop\n              pop\n              jump\t// out\n                /* \"#utility.yul\":3521:3887   */\n            tag_257:\n                /* \"#utility.yul\":3663:3666   */\n              0x00\n                /* \"#utility.yul\":3684:3751   */\n              tag_259\n                /* \"#utility.yul\":3748:3750   */\n              0x2d\n                /* \"#utility.yul\":3743:3746   */\n              dup4\n                /* \"#utility.yul\":3684:3751   */\n              tag_252\n              jump\t// in\n            tag_259:\n                /* \"#utility.yul\":3677:3751   */\n              swap2\n              pop\n                /* \"#utility.yul\":3760:3853   */\n              tag_260\n                /* \"#utility.yul\":3849:3852   */\n              dup3\n                /* \"#utility.yul\":3760:3853   */\n              tag_261\n              jump\t// in\n            tag_260:\n                /* \"#utility.yul\":3878:3880   */\n              0x40\n                /* \"#utility.yul\":3873:3876   */\n              dup3\n                /* \"#utility.yul\":3869:3881   */\n              add\n                /* \"#utility.yul\":3862:3881   */\n              swap1\n              pop\n                /* \"#utility.yul\":3667:3887   */\n              swap2\n              swap1\n              pop\n              jump\t// out\n                /* \"#utility.yul\":3893:4259   */\n            tag_262:\n                /* \"#utility.yul\":4035:4038   */\n              0x00\n                /* \"#utility.yul\":4056:4123   */\n              tag_264\n                /* \"#utility.yul\":4120:4122   */\n              0x23\n                /* \"#utility.yul\":4115:4118   */\n              dup4\n                /* \"#utility.yul\":4056:4123   */\n              tag_252\n              jump\t// in\n            tag_264:\n                /* \"#utility.yul\":4049:4123   */\n              swap2\n              pop\n                /* \"#utility.yul\":4132:4225   */\n              tag_265\n                /* \"#utility.yul\":4221:4224   */\n              dup3\n                /* \"#utility.yul\":4132:4225   */\n              tag_266\n              jump\t// in\n            tag_265:\n                /* \"#utility.yul\":4250:4252   */\n              0x40\n                /* \"#utility.yul\":4245:4248   */\n              dup3\n                /* \"#utility.yul\":4241:4253   */\n              add\n                /* \"#utility.yul\":4234:4253   */\n              swap1\n              pop\n                /* \"#utility.yul\":4039:4259   */\n              swap2\n              swap1\n              pop\n              jump\t// out\n                /* \"#utility.yul\":4265:4631   */\n            tag_267:\n                /* \"#utility.yul\":4407:4410   */\n              0x00\n                /* \"#utility.yul\":4428:4495   */\n              tag_269\n                /* \"#utility.yul\":4492:4494   */\n              0x48\n                /* \"#utility.yul\":4487:4490   */\n              dup4\n                /* \"#utility.yul\":4428:4495   */\n              tag_252\n              jump\t// in\n            tag_269:\n                /* \"#utility.yul\":4421:4495   */\n              swap2\n              pop\n                /* \"#utility.yul\":4504:4597   */\n              tag_270\n                /* \"#utility.yul\":4593:4596   */\n              dup3\n                /* \"#utility.yul\":4504:4597   */\n              tag_271\n              jump\t// in\n            tag_270:\n                /* \"#utility.yul\":4622:4624   */\n              0x60\n                /* \"#utility.yul\":4617:4620   */\n              dup3\n                /* \"#utility.yul\":4613:4625   */\n              add\n                /* \"#utility.yul\":4606:4625   */\n              swap1\n              pop\n                /* \"#utility.yul\":4411:4631   */\n              swap2\n              swap1\n              pop\n              jump\t// out\n                /* \"#utility.yul\":4637:5003   */\n            tag_272:\n                /* \"#utility.yul\":4779:4782   */\n              0x00\n                /* \"#utility.yul\":4800:4867   */\n              tag_274\n                /* \"#utility.yul\":4864:4866   */\n              0x30\n                /* \"#utility.yul\":4859:4862   */\n              dup4\n                /* \"#utility.yul\":4800:4867   */\n              tag_252\n              jump\t// in\n            tag_274:\n                /* \"#utility.yul\":4793:4867   */\n              swap2\n              pop\n                /* \"#utility.yul\":4876:4969   */\n              tag_275\n                /* \"#utility.yul\":4965:4968   */\n              dup3\n                /* \"#utility.yul\":4876:4969   */\n              tag_276\n              jump\t// in\n            tag_275:\n                /* \"#utility.yul\":4994:4996   */\n              0x40\n                /* \"#utility.yul\":4989:4992   */\n              dup3\n                /* \"#utility.yul\":4985:4997   */\n              add\n                /* \"#utility.yul\":4978:4997   */\n              swap1\n              pop\n                /* \"#utility.yul\":4783:5003   */\n              swap2\n              swap1\n              pop\n              jump\t// out\n                /* \"#utility.yul\":5009:5375   */\n            tag_277:\n                /* \"#utility.yul\":5151:5154   */\n              0x00\n                /* \"#utility.yul\":5172:5239   */\n              tag_279\n                /* \"#utility.yul\":5236:5238   */\n              0x12\n                /* \"#utility.yul\":5231:5234   */\n              dup4\n                /* \"#utility.yul\":5172:5239   */\n              tag_252\n              jump\t// in\n            tag_279:\n                /* \"#utility.yul\":5165:5239   */\n              swap2\n              pop\n                /* \"#utility.yul\":5248:5341   */\n              tag_280\n                /* \"#utility.yul\":5337:5340   */\n              dup3\n                /* \"#utility.yul\":5248:5341   */\n              tag_281\n              jump\t// in\n            tag_280:\n                /* \"#utility.yul\":5366:5368   */\n              0x20\n                /* \"#utility.yul\":5361:5364   */\n              dup3\n                /* \"#utility.yul\":5357:5369   */\n              add\n                /* \"#utility.yul\":5350:5369   */\n              swap1\n              pop\n                /* \"#utility.yul\":5155:5375   */\n              swap2\n              swap1\n              pop\n              jump\t// out\n                /* \"#utility.yul\":5381:5747   */\n            tag_282:\n                /* \"#utility.yul\":5523:5526   */\n              0x00\n                /* \"#utility.yul\":5544:5611   */\n              tag_284\n                /* \"#utility.yul\":5608:5610   */\n              0x30\n                /* \"#utility.yul\":5603:5606   */\n              dup4\n                /* \"#utility.yul\":5544:5611   */\n              tag_252\n              jump\t// in\n            tag_284:\n                /* \"#utility.yul\":5537:5611   */\n              swap2\n              pop\n                /* \"#utility.yul\":5620:5713   */\n              tag_285\n                /* \"#utility.yul\":5709:5712   */\n              dup3\n                /* \"#utility.yul\":5620:5713   */\n              tag_286\n              jump\t// in\n            tag_285:\n                /* \"#utility.yul\":5738:5740   */\n              0x40\n                /* \"#utility.yul\":5733:5736   */\n              dup3\n                /* \"#utility.yul\":5729:5741   */\n              add\n                /* \"#utility.yul\":5722:5741   */\n              swap1\n              pop\n                /* \"#utility.yul\":5527:5747   */\n              swap2\n              swap1\n              pop\n              jump\t// out\n                /* \"#utility.yul\":5753:6119   */\n            tag_287:\n                /* \"#utility.yul\":5895:5898   */\n              0x00\n                /* \"#utility.yul\":5916:5983   */\n              tag_289\n                /* \"#utility.yul\":5980:5982   */\n              0x24\n                /* \"#utility.yul\":5975:5978   */\n              dup4\n                /* \"#utility.yul\":5916:5983   */\n              tag_252\n              jump\t// in\n            tag_289:\n                /* \"#utility.yul\":5909:5983   */\n              swap2\n              pop\n                /* \"#utility.yul\":5992:6085   */\n              tag_290\n                /* \"#utility.yul\":6081:6084   */\n              dup3\n                /* \"#utility.yul\":5992:6085   */\n              tag_291\n              jump\t// in\n            tag_290:\n                /* \"#utility.yul\":6110:6112   */\n              0x40\n                /* \"#utility.yul\":6105:6108   */\n              dup3\n                /* \"#utility.yul\":6101:6113   */\n              add\n                /* \"#utility.yul\":6094:6113   */\n              swap1\n              pop\n                /* \"#utility.yul\":5899:6119   */\n              swap2\n              swap1\n              pop\n              jump\t// out\n                /* \"#utility.yul\":6125:6491   */\n            tag_292:\n                /* \"#utility.yul\":6267:6270   */\n              0x00\n                /* \"#utility.yul\":6288:6355   */\n              tag_294\n                /* \"#utility.yul\":6352:6354   */\n              0x47\n                /* \"#utility.yul\":6347:6350   */\n              dup4\n                /* \"#utility.yul\":6288:6355   */\n              tag_252\n              jump\t// in\n            tag_294:\n                /* \"#utility.yul\":6281:6355   */\n              swap2\n              pop\n                /* \"#utility.yul\":6364:6457   */\n              tag_295\n                /* \"#utility.yul\":6453:6456   */\n              dup3\n                /* \"#utility.yul\":6364:6457   */\n              tag_296\n              jump\t// in\n            tag_295:\n                /* \"#utility.yul\":6482:6484   */\n              0x60\n                /* \"#utility.yul\":6477:6480   */\n              dup3\n                /* \"#utility.yul\":6473:6485   */\n              add\n                /* \"#utility.yul\":6466:6485   */\n              swap1\n              pop\n                /* \"#utility.yul\":6271:6491   */\n              swap2\n              swap1\n              pop\n              jump\t// out\n                /* \"#utility.yul\":6497:6863   */\n            tag_297:\n                /* \"#utility.yul\":6639:6642   */\n              0x00\n                /* \"#utility.yul\":6660:6727   */\n              tag_299\n                /* \"#utility.yul\":6724:6726   */\n              0x20\n                /* \"#utility.yul\":6719:6722   */\n              dup4\n                /* \"#utility.yul\":6660:6727   */\n              tag_252\n              jump\t// in\n            tag_299:\n                /* \"#utility.yul\":6653:6727   */\n              swap2\n              pop\n                /* \"#utility.yul\":6736:6829   */\n              tag_300\n                /* \"#utility.yul\":6825:6828   */\n              dup3\n                /* \"#utility.yul\":6736:6829   */\n              tag_301\n              jump\t// in\n            tag_300:\n                /* \"#utility.yul\":6854:6856   */\n              0x20\n                /* \"#utility.yul\":6849:6852   */\n              dup3\n                /* \"#utility.yul\":6845:6857   */\n              add\n                /* \"#utility.yul\":6838:6857   */\n              swap1\n              pop\n                /* \"#utility.yul\":6643:6863   */\n              swap2\n              swap1\n              pop\n              jump\t// out\n                /* \"#utility.yul\":6869:7235   */\n            tag_302:\n                /* \"#utility.yul\":7011:7014   */\n              0x00\n                /* \"#utility.yul\":7032:7099   */\n              tag_304\n                /* \"#utility.yul\":7096:7098   */\n              0x1c\n                /* \"#utility.yul\":7091:7094   */\n              dup4\n                /* \"#utility.yul\":7032:7099   */\n              tag_252\n              jump\t// in\n            tag_304:\n                /* \"#utility.yul\":7025:7099   */\n              swap2\n              pop\n                /* \"#utility.yul\":7108:7201   */\n              tag_305\n                /* \"#utility.yul\":7197:7200   */\n              dup3\n                /* \"#utility.yul\":7108:7201   */\n              tag_306\n              jump\t// in\n            tag_305:\n                /* \"#utility.yul\":7226:7228   */\n              0x20\n                /* \"#utility.yul\":7221:7224   */\n              dup3\n                /* \"#utility.yul\":7217:7229   */\n              add\n                /* \"#utility.yul\":7210:7229   */\n              swap1\n              pop\n                /* \"#utility.yul\":7015:7235   */\n              swap2\n              swap1\n              pop\n              jump\t// out\n                /* \"#utility.yul\":7241:7359   */\n            tag_307:\n                /* \"#utility.yul\":7328:7352   */\n              tag_309\n                /* \"#utility.yul\":7346:7351   */\n              dup2\n                /* \"#utility.yul\":7328:7352   */\n              tag_310\n              jump\t// in\n            tag_309:\n                /* \"#utility.yul\":7323:7326   */\n              dup3\n                /* \"#utility.yul\":7316:7353   */\n              mstore\n                /* \"#utility.yul\":7306:7359   */\n              pop\n              pop\n              jump\t// out\n                /* \"#utility.yul\":7365:7587   */\n            tag_41:\n                /* \"#utility.yul\":7458:7462   */\n              0x00\n                /* \"#utility.yul\":7496:7498   */\n              0x20\n                /* \"#utility.yul\":7485:7494   */\n              dup3\n                /* \"#utility.yul\":7481:7499   */\n              add\n                /* \"#utility.yul\":7473:7499   */\n              swap1\n              pop\n                /* \"#utility.yul\":7509:7580   */\n              tag_312\n                /* \"#utility.yul\":7577:7578   */\n              0x00\n                /* \"#utility.yul\":7566:7575   */\n              dup4\n                /* \"#utility.yul\":7562:7579   */\n              add\n                /* \"#utility.yul\":7553:7559   */\n              dup5\n                /* \"#utility.yul\":7509:7580   */\n              tag_239\n              jump\t// in\n            tag_312:\n                /* \"#utility.yul\":7463:7587   */\n              swap3\n              swap2\n              pop\n              pop\n              jump\t// out\n                /* \"#utility.yul\":7593:7803   */\n            tag_31:\n                /* \"#utility.yul\":7680:7684   */\n              0x00\n                /* \"#utility.yul\":7718:7720   */\n              0x20\n                /* \"#utility.yul\":7707:7716   */\n              dup3\n                /* \"#utility.yul\":7703:7721   */\n              add\n                /* \"#utility.yul\":7695:7721   */\n              swap1\n              pop\n                /* \"#utility.yul\":7731:7796   */\n              tag_314\n                /* \"#utility.yul\":7793:7794   */\n              0x00\n                /* \"#utility.yul\":7782:7791   */\n              dup4\n                /* \"#utility.yul\":7778:7795   */\n              add\n                /* \"#utility.yul\":7769:7775   */\n              dup5\n                /* \"#utility.yul\":7731:7796   */\n              tag_243\n              jump\t// in\n            tag_314:\n                /* \"#utility.yul\":7685:7803   */\n              swap3\n              swap2\n              pop\n              pop\n              jump\t// out\n                /* \"#utility.yul\":7809:8122   */\n            tag_36:\n                /* \"#utility.yul\":7922:7926   */\n              0x00\n                /* \"#utility.yul\":7960:7962   */\n              0x20\n                /* \"#utility.yul\":7949:7958   */\n              dup3\n                /* \"#utility.yul\":7945:7963   */\n              add\n                /* \"#utility.yul\":7937:7963   */\n              swap1\n              pop\n                /* \"#utility.yul\":8009:8018   */\n              dup2\n                /* \"#utility.yul\":8003:8007   */\n              dup2\n                /* \"#utility.yul\":7999:8019   */\n              sub\n                /* \"#utility.yul\":7995:7996   */\n              0x00\n                /* \"#utility.yul\":7984:7993   */\n              dup4\n                /* \"#utility.yul\":7980:7997   */\n              add\n                /* \"#utility.yul\":7973:8020   */\n              mstore\n                /* \"#utility.yul\":8037:8115   */\n              tag_316\n                /* \"#utility.yul\":8110:8114   */\n              dup2\n                /* \"#utility.yul\":8101:8107   */\n              dup5\n                /* \"#utility.yul\":8037:8115   */\n              tag_247\n              jump\t// in\n            tag_316:\n                /* \"#utility.yul\":8029:8115   */\n              swap1\n              pop\n                /* \"#utility.yul\":7927:8122   */\n              swap3\n              swap2\n              pop\n              pop\n              jump\t// out\n                /* \"#utility.yul\":8128:8903   */\n            tag_47:\n                /* \"#utility.yul\":8363:8367   */\n              0x00\n                /* \"#utility.yul\":8401:8404   */\n              0xa0\n                /* \"#utility.yul\":8390:8399   */\n              dup3\n                /* \"#utility.yul\":8386:8405   */\n              add\n                /* \"#utility.yul\":8378:8405   */\n              swap1\n              pop\n                /* \"#utility.yul\":8451:8460   */\n              dup2\n                /* \"#utility.yul\":8445:8449   */\n              dup2\n                /* \"#utility.yul\":8441:8461   */\n              sub\n                /* \"#utility.yul\":8437:8438   */\n              0x00\n                /* \"#utility.yul\":8426:8435   */\n              dup4\n                /* \"#utility.yul\":8422:8439   */\n              add\n                /* \"#utility.yul\":8415:8462   */\n              mstore\n                /* \"#utility.yul\":8479:8557   */\n              tag_318\n                /* \"#utility.yul\":8552:8556   */\n              dup2\n                /* \"#utility.yul\":8543:8549   */\n              dup9\n                /* \"#utility.yul\":8479:8557   */\n              tag_247\n              jump\t// in\n            tag_318:\n                /* \"#utility.yul\":8471:8557   */\n              swap1\n              pop\n                /* \"#utility.yul\":8567:8639   */\n              tag_319\n                /* \"#utility.yul\":8635:8637   */\n              0x20\n                /* \"#utility.yul\":8624:8633   */\n              dup4\n                /* \"#utility.yul\":8620:8638   */\n              add\n                /* \"#utility.yul\":8611:8617   */\n              dup8\n                /* \"#utility.yul\":8567:8639   */\n              tag_307\n              jump\t// in\n            tag_319:\n                /* \"#utility.yul\":8649:8737   */\n              tag_320\n                /* \"#utility.yul\":8733:8735   */\n              0x40\n                /* \"#utility.yul\":8722:8731   */\n              dup4\n                /* \"#utility.yul\":8718:8736   */\n              add\n                /* \"#utility.yul\":8709:8715   */\n              dup7\n                /* \"#utility.yul\":8649:8737   */\n              tag_235\n              jump\t// in\n            tag_320:\n                /* \"#utility.yul\":8747:8813   */\n              tag_321\n                /* \"#utility.yul\":8809:8811   */\n              0x60\n                /* \"#utility.yul\":8798:8807   */\n              dup4\n                /* \"#utility.yul\":8794:8812   */\n              add\n                /* \"#utility.yul\":8785:8791   */\n              dup6\n                /* \"#utility.yul\":8747:8813   */\n              tag_243\n              jump\t// in\n            tag_321:\n                /* \"#utility.yul\":8823:8896   */\n              tag_322\n                /* \"#utility.yul\":8891:8894   */\n              0x80\n                /* \"#utility.yul\":8880:8889   */\n              dup4\n                /* \"#utility.yul\":8876:8895   */\n              add\n                /* \"#utility.yul\":8867:8873   */\n              dup5\n                /* \"#utility.yul\":8823:8896   */\n              tag_307\n              jump\t// in\n            tag_322:\n                /* \"#utility.yul\":8368:8903   */\n              swap7\n              swap6\n              pop\n              pop\n              pop\n              pop\n              pop\n              pop\n              jump\t// out\n                /* \"#utility.yul\":8909:9652   */\n            tag_86:\n                /* \"#utility.yul\":9128:9132   */\n              0x00\n                /* \"#utility.yul\":9166:9169   */\n              0xa0\n                /* \"#utility.yul\":9155:9164   */\n              dup3\n                /* \"#utility.yul\":9151:9170   */\n              add\n                /* \"#utility.yul\":9143:9170   */\n              swap1\n              pop\n                /* \"#utility.yul\":9216:9225   */\n              dup2\n                /* \"#utility.yul\":9210:9214   */\n              dup2\n                /* \"#utility.yul\":9206:9226   */\n              sub\n                /* \"#utility.yul\":9202:9203   */\n              0x00\n                /* \"#utility.yul\":9191:9200   */\n              dup4\n                /* \"#utility.yul\":9187:9204   */\n              add\n                /* \"#utility.yul\":9180:9227   */\n              mstore\n                /* \"#utility.yul\":9244:9322   */\n              tag_324\n                /* \"#utility.yul\":9317:9321   */\n              dup2\n                /* \"#utility.yul\":9308:9314   */\n              dup9\n                /* \"#utility.yul\":9244:9322   */\n              tag_247\n              jump\t// in\n            tag_324:\n                /* \"#utility.yul\":9236:9322   */\n              swap1\n              pop\n                /* \"#utility.yul\":9332:9404   */\n              tag_325\n                /* \"#utility.yul\":9400:9402   */\n              0x20\n                /* \"#utility.yul\":9389:9398   */\n              dup4\n                /* \"#utility.yul\":9385:9403   */\n              add\n                /* \"#utility.yul\":9376:9382   */\n              dup8\n                /* \"#utility.yul\":9332:9404   */\n              tag_307\n              jump\t// in\n            tag_325:\n                /* \"#utility.yul\":9414:9486   */\n              tag_326\n                /* \"#utility.yul\":9482:9484   */\n              0x40\n                /* \"#utility.yul\":9471:9480   */\n              dup4\n                /* \"#utility.yul\":9467:9485   */\n              add\n                /* \"#utility.yul\":9458:9464   */\n              dup7\n                /* \"#utility.yul\":9414:9486   */\n              tag_239\n              jump\t// in\n            tag_326:\n                /* \"#utility.yul\":9496:9562   */\n              tag_327\n                /* \"#utility.yul\":9558:9560   */\n              0x60\n                /* \"#utility.yul\":9547:9556   */\n              dup4\n                /* \"#utility.yul\":9543:9561   */\n              add\n                /* \"#utility.yul\":9534:9540   */\n              dup6\n                /* \"#utility.yul\":9496:9562   */\n              tag_243\n              jump\t// in\n            tag_327:\n                /* \"#utility.yul\":9572:9645   */\n              tag_328\n                /* \"#utility.yul\":9640:9643   */\n              0x80\n                /* \"#utility.yul\":9629:9638   */\n              dup4\n                /* \"#utility.yul\":9625:9644   */\n              add\n                /* \"#utility.yul\":9616:9622   */\n              dup5\n                /* \"#utility.yul\":9572:9645   */\n              tag_307\n              jump\t// in\n            tag_328:\n                /* \"#utility.yul\":9133:9652   */\n              swap7\n              swap6\n              pop\n              pop\n              pop\n              pop\n              pop\n              pop\n              jump\t// out\n                /* \"#utility.yul\":9658:10077   */\n            tag_104:\n                /* \"#utility.yul\":9824:9828   */\n              0x00\n                /* \"#utility.yul\":9862:9864   */\n              0x20\n                /* \"#utility.yul\":9851:9860   */\n              dup3\n                /* \"#utility.yul\":9847:9865   */\n              add\n                /* \"#utility.yul\":9839:9865   */\n              swap1\n              pop\n                /* \"#utility.yul\":9911:9920   */\n              dup2\n                /* \"#utility.yul\":9905:9909   */\n              dup2\n                /* \"#utility.yul\":9901:9921   */\n              sub\n                /* \"#utility.yul\":9897:9898   */\n              0x00\n                /* \"#utility.yul\":9886:9895   */\n              dup4\n                /* \"#utility.yul\":9882:9899   */\n              add\n                /* \"#utility.yul\":9875:9922   */\n              mstore\n                /* \"#utility.yul\":9939:10070   */\n              tag_330\n                /* \"#utility.yul\":10065:10069   */\n              dup2\n                /* \"#utility.yul\":9939:10070   */\n              tag_257\n              jump\t// in\n            tag_330:\n                /* \"#utility.yul\":9931:10070   */\n              swap1\n              pop\n                /* \"#utility.yul\":9829:10077   */\n              swap2\n              swap1\n              pop\n              jump\t// out\n                /* \"#utility.yul\":10083:10502   */\n            tag_101:\n                /* \"#utility.yul\":10249:10253   */\n              0x00\n                /* \"#utility.yul\":10287:10289   */\n              0x20\n                /* \"#utility.yul\":10276:10285   */\n              dup3\n                /* \"#utility.yul\":10272:10290   */\n              add\n                /* \"#utility.yul\":10264:10290   */\n              swap1\n              pop\n                /* \"#utility.yul\":10336:10345   */\n              dup2\n                /* \"#utility.yul\":10330:10334   */\n              dup2\n                /* \"#utility.yul\":10326:10346   */\n              sub\n                /* \"#utility.yul\":10322:10323   */\n              0x00\n                /* \"#utility.yul\":10311:10320   */\n              dup4\n                /* \"#utility.yul\":10307:10324   */\n              add\n                /* \"#utility.yul\":10300:10347   */\n              mstore\n                /* \"#utility.yul\":10364:10495   */\n              tag_332\n                /* \"#utility.yul\":10490:10494   */\n              dup2\n                /* \"#utility.yul\":10364:10495   */\n              tag_262\n              jump\t// in\n            tag_332:\n                /* \"#utility.yul\":10356:10495   */\n              swap1\n              pop\n                /* \"#utility.yul\":10254:10502   */\n              swap2\n              swap1\n              pop\n              jump\t// out\n                /* \"#utility.yul\":10508:10927   */\n            tag_98:\n                /* \"#utility.yul\":10674:10678   */\n              0x00\n                /* \"#utility.yul\":10712:10714   */\n              0x20\n                /* \"#utility.yul\":10701:10710   */\n              dup3\n                /* \"#utility.yul\":10697:10715   */\n              add\n                /* \"#utility.yul\":10689:10715   */\n              swap1\n              pop\n                /* \"#utility.yul\":10761:10770   */\n              dup2\n                /* \"#utility.yul\":10755:10759   */\n              dup2\n                /* \"#utility.yul\":10751:10771   */\n              sub\n                /* \"#utility.yul\":10747:10748   */\n              0x00\n                /* \"#utility.yul\":10736:10745   */\n              dup4\n                /* \"#utility.yul\":10732:10749   */\n              add\n                /* \"#utility.yul\":10725:10772   */\n              mstore\n                /* \"#utility.yul\":10789:10920   */\n              tag_334\n                /* \"#utility.yul\":10915:10919   */\n              dup2\n                /* \"#utility.yul\":10789:10920   */\n              tag_267\n              jump\t// in\n            tag_334:\n                /* \"#utility.yul\":10781:10920   */\n              swap1\n              pop\n                /* \"#utility.yul\":10679:10927   */\n              swap2\n              swap1\n              pop\n              jump\t// out\n                /* \"#utility.yul\":10933:11352   */\n            tag_94:\n                /* \"#utility.yul\":11099:11103   */\n              0x00\n                /* \"#utility.yul\":11137:11139   */\n              0x20\n                /* \"#utility.yul\":11126:11135   */\n              dup3\n                /* \"#utility.yul\":11122:11140   */\n              add\n                /* \"#utility.yul\":11114:11140   */\n              swap1\n              pop\n                /* \"#utility.yul\":11186:11195   */\n              dup2\n                /* \"#utility.yul\":11180:11184   */\n              dup2\n                /* \"#utility.yul\":11176:11196   */\n              sub\n                /* \"#utility.yul\":11172:11173   */\n              0x00\n                /* \"#utility.yul\":11161:11170   */\n              dup4\n                /* \"#utility.yul\":11157:11174   */\n              add\n                /* \"#utility.yul\":11150:11197   */\n              mstore\n                /* \"#utility.yul\":11214:11345   */\n              tag_336\n                /* \"#utility.yul\":11340:11344   */\n              dup2\n                /* \"#utility.yul\":11214:11345   */\n              tag_272\n              jump\t// in\n            tag_336:\n                /* \"#utility.yul\":11206:11345   */\n              swap1\n              pop\n                /* \"#utility.yul\":11104:11352   */\n              swap2\n              swap1\n              pop\n              jump\t// out\n                /* \"#utility.yul\":11358:11777   */\n            tag_168:\n                /* \"#utility.yul\":11524:11528   */\n              0x00\n                /* \"#utility.yul\":11562:11564   */\n              0x20\n                /* \"#utility.yul\":11551:11560   */\n              dup3\n                /* \"#utility.yul\":11547:11565   */\n              add\n                /* \"#utility.yul\":11539:11565   */\n              swap1\n              pop\n                /* \"#utility.yul\":11611:11620   */\n              dup2\n                /* \"#utility.yul\":11605:11609   */\n              dup2\n                /* \"#utility.yul\":11601:11621   */\n              sub\n                /* \"#utility.yul\":11597:11598   */\n              0x00\n                /* \"#utility.yul\":11586:11595   */\n              dup4\n                /* \"#utility.yul\":11582:11599   */\n              add\n                /* \"#utility.yul\":11575:11622   */\n              mstore\n                /* \"#utility.yul\":11639:11770   */\n              tag_338\n                /* \"#utility.yul\":11765:11769   */\n              dup2\n                /* \"#utility.yul\":11639:11770   */\n              tag_277\n              jump\t// in\n            tag_338:\n                /* \"#utility.yul\":11631:11770   */\n              swap1\n              pop\n                /* \"#utility.yul\":11529:11777   */\n              swap2\n              swap1\n              pop\n              jump\t// out\n                /* \"#utility.yul\":11783:12202   */\n            tag_134:\n                /* \"#utility.yul\":11949:11953   */\n              0x00\n                /* \"#utility.yul\":11987:11989   */\n              0x20\n                /* \"#utility.yul\":11976:11985   */\n              dup3\n                /* \"#utility.yul\":11972:11990   */\n              add\n                /* \"#utility.yul\":11964:11990   */\n              swap1\n              pop\n                /* \"#utility.yul\":12036:12045   */\n              dup2\n                /* \"#utility.yul\":12030:12034   */\n              dup2\n                /* \"#utility.yul\":12026:12046   */\n              sub\n                /* \"#utility.yul\":12022:12023   */\n              0x00\n                /* \"#utility.yul\":12011:12020   */\n              dup4\n                /* \"#utility.yul\":12007:12024   */\n              add\n                /* \"#utility.yul\":12000:12047   */\n              mstore\n                /* \"#utility.yul\":12064:12195   */\n              tag_340\n                /* \"#utility.yul\":12190:12194   */\n              dup2\n                /* \"#utility.yul\":12064:12195   */\n              tag_282\n              jump\t// in\n            tag_340:\n                /* \"#utility.yul\":12056:12195   */\n              swap1\n              pop\n                /* \"#utility.yul\":11954:12202   */\n              swap2\n              swap1\n              pop\n              jump\t// out\n                /* \"#utility.yul\":12208:12627   */\n            tag_165:\n                /* \"#utility.yul\":12374:12378   */\n              0x00\n                /* \"#utility.yul\":12412:12414   */\n              0x20\n                /* \"#utility.yul\":12401:12410   */\n              dup3\n                /* \"#utility.yul\":12397:12415   */\n              add\n                /* \"#utility.yul\":12389:12415   */\n              swap1\n              pop\n                /* \"#utility.yul\":12461:12470   */\n              dup2\n                /* \"#utility.yul\":12455:12459   */\n              dup2\n                /* \"#utility.yul\":12451:12471   */\n              sub\n                /* \"#utility.yul\":12447:12448   */\n              0x00\n                /* \"#utility.yul\":12436:12445   */\n              dup4\n                /* \"#utility.yul\":12432:12449   */\n              add\n                /* \"#utility.yul\":12425:12472   */\n              mstore\n                /* \"#utility.yul\":12489:12620   */\n              tag_342\n                /* \"#utility.yul\":12615:12619   */\n              dup2\n                /* \"#utility.yul\":12489:12620   */\n              tag_287\n              jump\t// in\n            tag_342:\n                /* \"#utility.yul\":12481:12620   */\n              swap1\n              pop\n                /* \"#utility.yul\":12379:12627   */\n              swap2\n              swap1\n              pop\n              jump\t// out\n                /* \"#utility.yul\":12633:13052   */\n            tag_171:\n                /* \"#utility.yul\":12799:12803   */\n              0x00\n                /* \"#utility.yul\":12837:12839   */\n              0x20\n                /* \"#utility.yul\":12826:12835   */\n              dup3\n                /* \"#utility.yul\":12822:12840   */\n              add\n                /* \"#utility.yul\":12814:12840   */\n              swap1\n              pop\n                /* \"#utility.yul\":12886:12895   */\n              dup2\n                /* \"#utility.yul\":12880:12884   */\n              dup2\n                /* \"#utility.yul\":12876:12896   */\n              sub\n                /* \"#utility.yul\":12872:12873   */\n              0x00\n                /* \"#utility.yul\":12861:12870   */\n              dup4\n                /* \"#utility.yul\":12857:12874   */\n              add\n                /* \"#utility.yul\":12850:12897   */\n              mstore\n                /* \"#utility.yul\":12914:13045   */\n              tag_344\n                /* \"#utility.yul\":13040:13044   */\n              dup2\n                /* \"#utility.yul\":12914:13045   */\n              tag_292\n              jump\t// in\n            tag_344:\n                /* \"#utility.yul\":12906:13045   */\n              swap1\n              pop\n                /* \"#utility.yul\":12804:13052   */\n              swap2\n              swap1\n              pop\n              jump\t// out\n                /* \"#utility.yul\":13058:13477   */\n            tag_159:\n                /* \"#utility.yul\":13224:13228   */\n              0x00\n                /* \"#utility.yul\":13262:13264   */\n              0x20\n                /* \"#utility.yul\":13251:13260   */\n              dup3\n                /* \"#utility.yul\":13247:13265   */\n              add\n                /* \"#utility.yul\":13239:13265   */\n              swap1\n              pop\n                /* \"#utility.yul\":13311:13320   */\n              dup2\n                /* \"#utility.yul\":13305:13309   */\n              dup2\n                /* \"#utility.yul\":13301:13321   */\n              sub\n                /* \"#utility.yul\":13297:13298   */\n              0x00\n                /* \"#utility.yul\":13286:13295   */\n              dup4\n                /* \"#utility.yul\":13282:13299   */\n              add\n                /* \"#utility.yul\":13275:13322   */\n              mstore\n                /* \"#utility.yul\":13339:13470   */\n              tag_346\n                /* \"#utility.yul\":13465:13469   */\n              dup2\n                /* \"#utility.yul\":13339:13470   */\n              tag_297\n              jump\t// in\n            tag_346:\n                /* \"#utility.yul\":13331:13470   */\n              swap1\n              pop\n                /* \"#utility.yul\":13229:13477   */\n              swap2\n              swap1\n              pop\n              jump\t// out\n                /* \"#utility.yul\":13483:13902   */\n            tag_109:\n                /* \"#utility.yul\":13649:13653   */\n              0x00\n                /* \"#utility.yul\":13687:13689   */\n              0x20\n                /* \"#utility.yul\":13676:13685   */\n              dup3\n                /* \"#utility.yul\":13672:13690   */\n              add\n                /* \"#utility.yul\":13664:13690   */\n              swap1\n              pop\n                /* \"#utility.yul\":13736:13745   */\n              dup2\n                /* \"#utility.yul\":13730:13734   */\n              dup2\n                /* \"#utility.yul\":13726:13746   */\n              sub\n                /* \"#utility.yul\":13722:13723   */\n              0x00\n                /* \"#utility.yul\":13711:13720   */\n              dup4\n                /* \"#utility.yul\":13707:13724   */\n              add\n                /* \"#utility.yul\":13700:13747   */\n              mstore\n                /* \"#utility.yul\":13764:13895   */\n              tag_348\n                /* \"#utility.yul\":13890:13894   */\n              dup2\n                /* \"#utility.yul\":13764:13895   */\n              tag_302\n              jump\t// in\n            tag_348:\n                /* \"#utility.yul\":13756:13895   */\n              swap1\n              pop\n                /* \"#utility.yul\":13654:13902   */\n              swap2\n              swap1\n              pop\n              jump\t// out\n                /* \"#utility.yul\":13908:14130   */\n            tag_52:\n                /* \"#utility.yul\":14001:14005   */\n              0x00\n                /* \"#utility.yul\":14039:14041   */\n              0x20\n                /* \"#utility.yul\":14028:14037   */\n              dup3\n                /* \"#utility.yul\":14024:14042   */\n              add\n                /* \"#utility.yul\":14016:14042   */\n              swap1\n              pop\n                /* \"#utility.yul\":14052:14123   */\n              tag_350\n                /* \"#utility.yul\":14120:14121   */\n              0x00\n                /* \"#utility.yul\":14109:14118   */\n              dup4\n                /* \"#utility.yul\":14105:14122   */\n              add\n                /* \"#utility.yul\":14096:14102   */\n              dup5\n                /* \"#utility.yul\":14052:14123   */\n              tag_307\n              jump\t// in\n            tag_350:\n                /* \"#utility.yul\":14006:14130   */\n              swap3\n              swap2\n              pop\n              pop\n              jump\t// out\n                /* \"#utility.yul\":14136:15204   */\n            tag_70:\n                /* \"#utility.yul\":14437:14441   */\n              0x00\n                /* \"#utility.yul\":14475:14478   */\n              0xe0\n                /* \"#utility.yul\":14464:14473   */\n              dup3\n                /* \"#utility.yul\":14460:14479   */\n              add\n                /* \"#utility.yul\":14452:14479   */\n              swap1\n              pop\n                /* \"#utility.yul\":14489:14560   */\n              tag_352\n                /* \"#utility.yul\":14557:14558   */\n              0x00\n                /* \"#utility.yul\":14546:14555   */\n              dup4\n                /* \"#utility.yul\":14542:14559   */\n              add\n                /* \"#utility.yul\":14533:14539   */\n              dup11\n                /* \"#utility.yul\":14489:14560   */\n              tag_307\n              jump\t// in\n            tag_352:\n                /* \"#utility.yul\":14607:14616   */\n              dup2\n                /* \"#utility.yul\":14601:14605   */\n              dup2\n                /* \"#utility.yul\":14597:14617   */\n              sub\n                /* \"#utility.yul\":14592:14594   */\n              0x20\n                /* \"#utility.yul\":14581:14590   */\n              dup4\n                /* \"#utility.yul\":14577:14595   */\n              add\n                /* \"#utility.yul\":14570:14618   */\n              mstore\n                /* \"#utility.yul\":14635:14713   */\n              tag_353\n                /* \"#utility.yul\":14708:14712   */\n              dup2\n                /* \"#utility.yul\":14699:14705   */\n              dup10\n                /* \"#utility.yul\":14635:14713   */\n              tag_247\n              jump\t// in\n            tag_353:\n                /* \"#utility.yul\":14627:14713   */\n              swap1\n              pop\n                /* \"#utility.yul\":14760:14769   */\n              dup2\n                /* \"#utility.yul\":14754:14758   */\n              dup2\n                /* \"#utility.yul\":14750:14770   */\n              sub\n                /* \"#utility.yul\":14745:14747   */\n              0x40\n                /* \"#utility.yul\":14734:14743   */\n              dup4\n                /* \"#utility.yul\":14730:14748   */\n              add\n                /* \"#utility.yul\":14723:14771   */\n              mstore\n                /* \"#utility.yul\":14788:14866   */\n              tag_354\n                /* \"#utility.yul\":14861:14865   */\n              dup2\n                /* \"#utility.yul\":14852:14858   */\n              dup9\n                /* \"#utility.yul\":14788:14866   */\n              tag_247\n              jump\t// in\n            tag_354:\n                /* \"#utility.yul\":14780:14866   */\n              swap1\n              pop\n                /* \"#utility.yul\":14876:14948   */\n              tag_355\n                /* \"#utility.yul\":14944:14946   */\n              0x60\n                /* \"#utility.yul\":14933:14942   */\n              dup4\n                /* \"#utility.yul\":14929:14947   */\n              add\n                /* \"#utility.yul\":14920:14926   */\n              dup8\n                /* \"#utility.yul\":14876:14948   */\n              tag_307\n              jump\t// in\n            tag_355:\n                /* \"#utility.yul\":14958:15031   */\n              tag_356\n                /* \"#utility.yul\":15026:15029   */\n              0x80\n                /* \"#utility.yul\":15015:15024   */\n              dup4\n                /* \"#utility.yul\":15011:15030   */\n              add\n                /* \"#utility.yul\":15002:15008   */\n              dup7\n                /* \"#utility.yul\":14958:15031   */\n              tag_307\n              jump\t// in\n            tag_356:\n                /* \"#utility.yul\":15041:15114   */\n              tag_357\n                /* \"#utility.yul\":15109:15112   */\n              0xa0\n                /* \"#utility.yul\":15098:15107   */\n              dup4\n                /* \"#utility.yul\":15094:15113   */\n              add\n                /* \"#utility.yul\":15085:15091   */\n              dup6\n                /* \"#utility.yul\":15041:15114   */\n              tag_307\n              jump\t// in\n            tag_357:\n                /* \"#utility.yul\":15124:15197   */\n              tag_358\n                /* \"#utility.yul\":15192:15195   */\n              0xc0\n                /* \"#utility.yul\":15181:15190   */\n              dup4\n                /* \"#utility.yul\":15177:15196   */\n              add\n                /* \"#utility.yul\":15168:15174   */\n              dup5\n                /* \"#utility.yul\":15124:15197   */\n              tag_239\n              jump\t// in\n            tag_358:\n                /* \"#utility.yul\":14442:15204   */\n              swap9\n              swap8\n              pop\n              pop\n              pop\n              pop\n              pop\n              pop\n              pop\n              pop\n              jump\t// out\n                /* \"#utility.yul\":15210:15339   */\n            tag_197:\n                /* \"#utility.yul\":15244:15250   */\n              0x00\n                /* \"#utility.yul\":15271:15291   */\n              tag_360\n              tag_361\n              jump\t// in\n            tag_360:\n                /* \"#utility.yul\":15261:15291   */\n              swap1\n              pop\n                /* \"#utility.yul\":15300:15333   */\n              tag_362\n                /* \"#utility.yul\":15328:15332   */\n              dup3\n                /* \"#utility.yul\":15320:15326   */\n              dup3\n                /* \"#utility.yul\":15300:15333   */\n              tag_363\n              jump\t// in\n            tag_362:\n                /* \"#utility.yul\":15251:15339   */\n              swap2\n              swap1\n              pop\n              jump\t// out\n                /* \"#utility.yul\":15345:15420   */\n            tag_361:\n                /* \"#utility.yul\":15378:15384   */\n              0x00\n                /* \"#utility.yul\":15411:15413   */\n              0x40\n                /* \"#utility.yul\":15405:15414   */\n              mload\n                /* \"#utility.yul\":15395:15414   */\n              swap1\n              pop\n                /* \"#utility.yul\":15385:15420   */\n              swap1\n              jump\t// out\n                /* \"#utility.yul\":15426:15734   */\n            tag_196:\n                /* \"#utility.yul\":15488:15492   */\n              0x00\n                /* \"#utility.yul\":15578:15596   */\n              0xffffffffffffffff\n                /* \"#utility.yul\":15570:15576   */\n              dup3\n                /* \"#utility.yul\":15567:15597   */\n              gt\n                /* \"#utility.yul\":15564:15566   */\n              iszero\n              tag_366\n              jumpi\n                /* \"#utility.yul\":15600:15618   */\n              tag_367\n              tag_368\n              jump\t// in\n            tag_367:\n                /* \"#utility.yul\":15564:15566   */\n            tag_366:\n                /* \"#utility.yul\":15638:15667   */\n              tag_369\n                /* \"#utility.yul\":15660:15666   */\n              dup3\n                /* \"#utility.yul\":15638:15667   */\n              tag_256\n              jump\t// in\n            tag_369:\n                /* \"#utility.yul\":15630:15667   */\n              swap1\n              pop\n                /* \"#utility.yul\":15722:15726   */\n              0x20\n                /* \"#utility.yul\":15716:15720   */\n              dup2\n                /* \"#utility.yul\":15712:15727   */\n              add\n                /* \"#utility.yul\":15704:15727   */\n              swap1\n              pop\n                /* \"#utility.yul\":15493:15734   */\n              swap2\n              swap1\n              pop\n              jump\t// out\n                /* \"#utility.yul\":15740:15839   */\n            tag_250:\n                /* \"#utility.yul\":15792:15798   */\n              0x00\n                /* \"#utility.yul\":15826:15831   */\n              dup2\n                /* \"#utility.yul\":15820:15832   */\n              mload\n                /* \"#utility.yul\":15810:15832   */\n              swap1\n              pop\n                /* \"#utility.yul\":15799:15839   */\n              swap2\n              swap1\n              pop\n              jump\t// out\n                /* \"#utility.yul\":15845:16014   */\n            tag_252:\n                /* \"#utility.yul\":15929:15940   */\n              0x00\n                /* \"#utility.yul\":15963:15969   */\n              dup3\n                /* \"#utility.yul\":15958:15961   */\n              dup3\n                /* \"#utility.yul\":15951:15970   */\n              mstore\n                /* \"#utility.yul\":16003:16007   */\n              0x20\n                /* \"#utility.yul\":15998:16001   */\n              dup3\n                /* \"#utility.yul\":15994:16008   */\n              add\n                /* \"#utility.yul\":15979:16008   */\n              swap1\n              pop\n                /* \"#utility.yul\":15941:16014   */\n              swap3\n              swap2\n              pop\n              pop\n              jump\t// out\n                /* \"#utility.yul\":16020:16205   */\n            tag_106:\n                /* \"#utility.yul\":16060:16061   */\n              0x00\n                /* \"#utility.yul\":16077:16097   */\n              tag_373\n                /* \"#utility.yul\":16095:16096   */\n              dup3\n                /* \"#utility.yul\":16077:16097   */\n              tag_310\n              jump\t// in\n            tag_373:\n                /* \"#utility.yul\":16072:16097   */\n              swap2\n              pop\n                /* \"#utility.yul\":16111:16131   */\n              tag_374\n                /* \"#utility.yul\":16129:16130   */\n              dup4\n                /* \"#utility.yul\":16111:16131   */\n              tag_310\n              jump\t// in\n            tag_374:\n                /* \"#utility.yul\":16106:16131   */\n              swap3\n              pop\n                /* \"#utility.yul\":16150:16151   */\n              dup3\n                /* \"#utility.yul\":16140:16142   */\n              tag_375\n              jumpi\n                /* \"#utility.yul\":16155:16173   */\n              tag_376\n              tag_377\n              jump\t// in\n            tag_376:\n                /* \"#utility.yul\":16140:16142   */\n            tag_375:\n                /* \"#utility.yul\":16197:16198   */\n              dup3\n                /* \"#utility.yul\":16194:16195   */\n              dup3\n                /* \"#utility.yul\":16190:16199   */\n              div\n                /* \"#utility.yul\":16185:16199   */\n              swap1\n              pop\n                /* \"#utility.yul\":16062:16205   */\n              swap3\n              swap2\n              pop\n              pop\n              jump\t// out\n                /* \"#utility.yul\":16211:16307   */\n            tag_242:\n                /* \"#utility.yul\":16248:16255   */\n              0x00\n                /* \"#utility.yul\":16277:16301   */\n              tag_379\n                /* \"#utility.yul\":16295:16300   */\n              dup3\n                /* \"#utility.yul\":16277:16301   */\n              tag_380\n              jump\t// in\n            tag_379:\n                /* \"#utility.yul\":16266:16301   */\n              swap1\n              pop\n                /* \"#utility.yul\":16256:16307   */\n              swap2\n              swap1\n              pop\n              jump\t// out\n                /* \"#utility.yul\":16313:16417   */\n            tag_238:\n                /* \"#utility.yul\":16358:16365   */\n              0x00\n                /* \"#utility.yul\":16387:16411   */\n              tag_382\n                /* \"#utility.yul\":16405:16410   */\n              dup3\n                /* \"#utility.yul\":16387:16411   */\n              tag_380\n              jump\t// in\n            tag_382:\n                /* \"#utility.yul\":16376:16411   */\n              swap1\n              pop\n                /* \"#utility.yul\":16366:16417   */\n              swap2\n              swap1\n              pop\n              jump\t// out\n                /* \"#utility.yul\":16423:16513   */\n            tag_246:\n                /* \"#utility.yul\":16457:16464   */\n              0x00\n                /* \"#utility.yul\":16500:16505   */\n              dup2\n                /* \"#utility.yul\":16493:16506   */\n              iszero\n                /* \"#utility.yul\":16486:16507   */\n              iszero\n                /* \"#utility.yul\":16475:16507   */\n              swap1\n              pop\n                /* \"#utility.yul\":16465:16513   */\n              swap2\n              swap1\n              pop\n              jump\t// out\n                /* \"#utility.yul\":16519:16645   */\n            tag_380:\n                /* \"#utility.yul\":16556:16563   */\n              0x00\n                /* \"#utility.yul\":16596:16638   */\n              0xffffffffffffffffffffffffffffffffffffffff\n                /* \"#utility.yul\":16589:16594   */\n              dup3\n                /* \"#utility.yul\":16585:16639   */\n              and\n                /* \"#utility.yul\":16574:16639   */\n              swap1\n              pop\n                /* \"#utility.yul\":16564:16645   */\n              swap2\n              swap1\n              pop\n              jump\t// out\n                /* \"#utility.yul\":16651:16728   */\n            tag_310:\n                /* \"#utility.yul\":16688:16695   */\n              0x00\n                /* \"#utility.yul\":16717:16722   */\n              dup2\n                /* \"#utility.yul\":16706:16722   */\n              swap1\n              pop\n                /* \"#utility.yul\":16696:16728   */\n              swap2\n              swap1\n              pop\n              jump\t// out\n                /* \"#utility.yul\":16734:16888   */\n            tag_200:\n                /* \"#utility.yul\":16818:16824   */\n              dup3\n                /* \"#utility.yul\":16813:16816   */\n              dup2\n                /* \"#utility.yul\":16808:16811   */\n              dup4\n                /* \"#utility.yul\":16795:16825   */\n              calldatacopy\n                /* \"#utility.yul\":16880:16881   */\n              0x00\n                /* \"#utility.yul\":16871:16877   */\n              dup4\n                /* \"#utility.yul\":16866:16869   */\n              dup4\n                /* \"#utility.yul\":16862:16878   */\n              add\n                /* \"#utility.yul\":16855:16882   */\n              mstore\n                /* \"#utility.yul\":16785:16888   */\n              pop\n              pop\n              pop\n              jump\t// out\n                /* \"#utility.yul\":16894:17201   */\n            tag_254:\n                /* \"#utility.yul\":16962:16963   */\n              0x00\n                /* \"#utility.yul\":16972:17085   */\n            tag_388:\n                /* \"#utility.yul\":16986:16992   */\n              dup4\n                /* \"#utility.yul\":16983:16984   */\n              dup2\n                /* \"#utility.yul\":16980:16993   */\n              lt\n                /* \"#utility.yul\":16972:17085   */\n              iszero\n              tag_390\n              jumpi\n                /* \"#utility.yul\":17071:17072   */\n              dup1\n                /* \"#utility.yul\":17066:17069   */\n              dup3\n                /* \"#utility.yul\":17062:17073   */\n              add\n                /* \"#utility.yul\":17056:17074   */\n              mload\n                /* \"#utility.yul\":17052:17053   */\n              dup2\n                /* \"#utility.yul\":17047:17050   */\n              dup5\n                /* \"#utility.yul\":17043:17054   */\n              add\n                /* \"#utility.yul\":17036:17075   */\n              mstore\n                /* \"#utility.yul\":17008:17010   */\n              0x20\n                /* \"#utility.yul\":17005:17006   */\n              dup2\n                /* \"#utility.yul\":17001:17011   */\n              add\n                /* \"#utility.yul\":16996:17011   */\n              swap1\n              pop\n                /* \"#utility.yul\":16972:17085   */\n              jump(tag_388)\n            tag_390:\n                /* \"#utility.yul\":17103:17109   */\n              dup4\n                /* \"#utility.yul\":17100:17101   */\n              dup2\n                /* \"#utility.yul\":17097:17110   */\n              gt\n                /* \"#utility.yul\":17094:17096   */\n              iszero\n              tag_391\n              jumpi\n                /* \"#utility.yul\":17183:17184   */\n              0x00\n                /* \"#utility.yul\":17174:17180   */\n              dup5\n                /* \"#utility.yul\":17169:17172   */\n              dup5\n                /* \"#utility.yul\":17165:17181   */\n              add\n                /* \"#utility.yul\":17158:17185   */\n              mstore\n                /* \"#utility.yul\":17094:17096   */\n            tag_391:\n                /* \"#utility.yul\":16943:17201   */\n              pop\n              pop\n              pop\n              pop\n              jump\t// out\n                /* \"#utility.yul\":17207:17527   */\n            tag_113:\n                /* \"#utility.yul\":17251:17257   */\n              0x00\n                /* \"#utility.yul\":17288:17289   */\n              0x02\n                /* \"#utility.yul\":17282:17286   */\n              dup3\n                /* \"#utility.yul\":17278:17290   */\n              div\n                /* \"#utility.yul\":17268:17290   */\n              swap1\n              pop\n                /* \"#utility.yul\":17335:17336   */\n              0x01\n                /* \"#utility.yul\":17329:17333   */\n              dup3\n                /* \"#utility.yul\":17325:17337   */\n              and\n                /* \"#utility.yul\":17356:17374   */\n              dup1\n                /* \"#utility.yul\":17346:17348   */\n              tag_393\n              jumpi\n                /* \"#utility.yul\":17412:17416   */\n              0x7f\n                /* \"#utility.yul\":17404:17410   */\n              dup3\n                /* \"#utility.yul\":17400:17417   */\n              and\n                /* \"#utility.yul\":17390:17417   */\n              swap2\n              pop\n                /* \"#utility.yul\":17346:17348   */\n            tag_393:\n                /* \"#utility.yul\":17474:17476   */\n              0x20\n                /* \"#utility.yul\":17466:17472   */\n              dup3\n                /* \"#utility.yul\":17463:17477   */\n              lt\n                /* \"#utility.yul\":17443:17461   */\n              dup2\n                /* \"#utility.yul\":17440:17478   */\n              eq\n                /* \"#utility.yul\":17437:17439   */\n              iszero\n              tag_394\n              jumpi\n                /* \"#utility.yul\":17493:17511   */\n              tag_395\n              tag_396\n              jump\t// in\n            tag_395:\n                /* \"#utility.yul\":17437:17439   */\n            tag_394:\n                /* \"#utility.yul\":17258:17527   */\n              pop\n              swap2\n              swap1\n              pop\n              jump\t// out\n                /* \"#utility.yul\":17533:17814   */\n            tag_363:\n                /* \"#utility.yul\":17616:17643   */\n              tag_398\n                /* \"#utility.yul\":17638:17642   */\n              dup3\n                /* \"#utility.yul\":17616:17643   */\n              tag_256\n              jump\t// in\n            tag_398:\n                /* \"#utility.yul\":17608:17614   */\n              dup2\n                /* \"#utility.yul\":17604:17644   */\n              add\n                /* \"#utility.yul\":17746:17752   */\n              dup2\n                /* \"#utility.yul\":17734:17744   */\n              dup2\n                /* \"#utility.yul\":17731:17753   */\n              lt\n                /* \"#utility.yul\":17710:17728   */\n              0xffffffffffffffff\n                /* \"#utility.yul\":17698:17708   */\n              dup3\n                /* \"#utility.yul\":17695:17729   */\n              gt\n                /* \"#utility.yul\":17692:17754   */\n              or\n                /* \"#utility.yul\":17689:17691   */\n              iszero\n              tag_399\n              jumpi\n                /* \"#utility.yul\":17757:17775   */\n              tag_400\n              tag_368\n              jump\t// in\n            tag_400:\n                /* \"#utility.yul\":17689:17691   */\n            tag_399:\n                /* \"#utility.yul\":17797:17807   */\n              dup1\n                /* \"#utility.yul\":17793:17795   */\n              0x40\n                /* \"#utility.yul\":17786:17808   */\n              mstore\n                /* \"#utility.yul\":17576:17814   */\n              pop\n              pop\n              pop\n              jump\t// out\n                /* \"#utility.yul\":17820:18053   */\n            tag_136:\n                /* \"#utility.yul\":17859:17862   */\n              0x00\n                /* \"#utility.yul\":17882:17906   */\n              tag_402\n                /* \"#utility.yul\":17900:17905   */\n              dup3\n                /* \"#utility.yul\":17882:17906   */\n              tag_310\n              jump\t// in\n            tag_402:\n                /* \"#utility.yul\":17873:17906   */\n              swap2\n              pop\n                /* \"#utility.yul\":17928:17994   */\n              0xffffffffffffffffffffffffffffffffffffffffffffffffffffffffffffffff\n                /* \"#utility.yul\":17921:17926   */\n              dup3\n                /* \"#utility.yul\":17918:17995   */\n              eq\n                /* \"#utility.yul\":17915:17917   */\n              iszero\n              tag_403\n              jumpi\n                /* \"#utility.yul\":17998:18016   */\n              tag_404\n              tag_405\n              jump\t// in\n            tag_404:\n                /* \"#utility.yul\":17915:17917   */\n            tag_403:\n                /* \"#utility.yul\":18045:18046   */\n              0x01\n                /* \"#utility.yul\":18038:18043   */\n              dup3\n                /* \"#utility.yul\":18034:18047   */\n              add\n                /* \"#utility.yul\":18027:18047   */\n              swap1\n              pop\n                /* \"#utility.yul\":17863:18053   */\n              swap2\n              swap1\n              pop\n              jump\t// out\n                /* \"#utility.yul\":18059:18239   */\n            tag_405:\n                /* \"#utility.yul\":18107:18184   */\n              0x4e487b7100000000000000000000000000000000000000000000000000000000\n                /* \"#utility.yul\":18104:18105   */\n              0x00\n                /* \"#utility.yul\":18097:18185   */\n              mstore\n                /* \"#utility.yul\":18204:18208   */\n              0x11\n                /* \"#utility.yul\":18201:18202   */\n              0x04\n                /* \"#utility.yul\":18194:18209   */\n              mstore\n                /* \"#utility.yul\":18228:18232   */\n              0x24\n                /* \"#utility.yul\":18225:18226   */\n              0x00\n                /* \"#utility.yul\":18218:18233   */\n              revert\n                /* \"#utility.yul\":18245:18425   */\n            tag_377:\n                /* \"#utility.yul\":18293:18370   */\n              0x4e487b7100000000000000000000000000000000000000000000000000000000\n                /* \"#utility.yul\":18290:18291   */\n              0x00\n                /* \"#utility.yul\":18283:18371   */\n              mstore\n                /* \"#utility.yul\":18390:18394   */\n              0x12\n                /* \"#utility.yul\":18387:18388   */\n              0x04\n                /* \"#utility.yul\":18380:18395   */\n              mstore\n                /* \"#utility.yul\":18414:18418   */\n              0x24\n                /* \"#utility.yul\":18411:18412   */\n              0x00\n                /* \"#utility.yul\":18404:18419   */\n              revert\n                /* \"#utility.yul\":18431:18611   */\n            tag_396:\n                /* \"#utility.yul\":18479:18556   */\n              0x4e487b7100000000000000000000000000000000000000000000000000000000\n                /* \"#utility.yul\":18476:18477   */\n              0x00\n                /* \"#utility.yul\":18469:18557   */\n              mstore\n                /* \"#utility.yul\":18576:18580   */\n              0x22\n                /* \"#utility.yul\":18573:18574   */\n              0x04\n                /* \"#utility.yul\":18566:18581   */\n              mstore\n                /* \"#utility.yul\":18600:18604   */\n              0x24\n                /* \"#utility.yul\":18597:18598   */\n              0x00\n                /* \"#utility.yul\":18590:18605   */\n              revert\n                /* \"#utility.yul\":18617:18797   */\n            tag_368:\n                /* \"#utility.yul\":18665:18742   */\n              0x4e487b7100000000000000000000000000000000000000000000000000000000\n                /* \"#utility.yul\":18662:18663   */\n              0x00\n                /* \"#utility.yul\":18655:18743   */\n              mstore\n                /* \"#utility.yul\":18762:18766   */\n              0x41\n                /* \"#utility.yul\":18759:18760   */\n              0x04\n                /* \"#utility.yul\":18752:18767   */\n              mstore\n                /* \"#utility.yul\":18786:18790   */\n              0x24\n                /* \"#utility.yul\":18783:18784   */\n              0x00\n                /* \"#utility.yul\":18776:18791   */\n              revert\n                /* \"#utility.yul\":18803:18905   */\n            tag_256:\n                /* \"#utility.yul\":18844:18850   */\n              0x00\n                /* \"#utility.yul\":18895:18897   */\n              0x1f\n                /* \"#utility.yul\":18891:18898   */\n              not\n                /* \"#utility.yul\":18886:18888   */\n              0x1f\n                /* \"#utility.yul\":18879:18884   */\n              dup4\n                /* \"#utility.yul\":18875:18889   */\n              add\n                /* \"#utility.yul\":18871:18899   */\n              and\n                /* \"#utility.yul\":18861:18899   */\n              swap1\n              pop\n                /* \"#utility.yul\":18851:18905   */\n              swap2\n              swap1\n              pop\n              jump\t// out\n                /* \"#utility.yul\":18911:19143   */\n            tag_261:\n                /* \"#utility.yul\":19051:19085   */\n              0x54686973207265717565737420686173206e6f74206265656e20617070726f76\n                /* \"#utility.yul\":19047:19048   */\n              0x00\n                /* \"#utility.yul\":19039:19045   */\n              dup3\n                /* \"#utility.yul\":19035:19049   */\n              add\n                /* \"#utility.yul\":19028:19086   */\n              mstore\n                /* \"#utility.yul\":19120:19135   */\n              0x656420627920616e796f6e652e00000000000000000000000000000000000000\n                /* \"#utility.yul\":19115:19117   */\n              0x20\n                /* \"#utility.yul\":19107:19113   */\n              dup3\n                /* \"#utility.yul\":19103:19118   */\n              add\n                /* \"#utility.yul\":19096:19136   */\n              mstore\n                /* \"#utility.yul\":19017:19143   */\n              pop\n              jump\t// out\n                /* \"#utility.yul\":19149:19371   */\n            tag_266:\n                /* \"#utility.yul\":19289:19323   */\n              0x5468697320726571756573742077617320616c726561647920636f6d706c6574\n                /* \"#utility.yul\":19285:19286   */\n              0x00\n                /* \"#utility.yul\":19277:19283   */\n              dup3\n                /* \"#utility.yul\":19273:19287   */\n              add\n                /* \"#utility.yul\":19266:19324   */\n              mstore\n                /* \"#utility.yul\":19358:19363   */\n              0x65642e0000000000000000000000000000000000000000000000000000000000\n                /* \"#utility.yul\":19353:19355   */\n              0x20\n                /* \"#utility.yul\":19345:19351   */\n              dup3\n                /* \"#utility.yul\":19341:19356   */\n              add\n                /* \"#utility.yul\":19334:19364   */\n              mstore\n                /* \"#utility.yul\":19255:19371   */\n              pop\n              jump\t// out\n                /* \"#utility.yul\":19377:19673   */\n            tag_271:\n                /* \"#utility.yul\":19517:19551   */\n              0x596f7520617474656d707420746f2066696e616c697a652061206e6f6e2d6578\n                /* \"#utility.yul\":19513:19514   */\n              0x00\n                /* \"#utility.yul\":19505:19511   */\n              dup3\n                /* \"#utility.yul\":19501:19515   */\n              add\n                /* \"#utility.yul\":19494:19552   */\n              mstore\n                /* \"#utility.yul\":19586:19620   */\n              0x697374656e7420726571756573742e20436865636b2074686520726571756573\n                /* \"#utility.yul\":19581:19583   */\n              0x20\n                /* \"#utility.yul\":19573:19579   */\n              dup3\n                /* \"#utility.yul\":19569:19584   */\n              add\n                /* \"#utility.yul\":19562:19621   */\n              mstore\n                /* \"#utility.yul\":19655:19665   */\n              0x7420696e64657821000000000000000000000000000000000000000000000000\n                /* \"#utility.yul\":19650:19652   */\n              0x40\n                /* \"#utility.yul\":19642:19648   */\n              dup3\n                /* \"#utility.yul\":19638:19653   */\n              add\n                /* \"#utility.yul\":19631:19666   */\n              mstore\n                /* \"#utility.yul\":19483:19673   */\n              pop\n              jump\t// out\n                /* \"#utility.yul\":19679:19914   */\n            tag_276:\n                /* \"#utility.yul\":19819:19853   */\n              0x4f6e6c79206d616e6167657220697320616c6c6f77656420746f2063616c6c65\n                /* \"#utility.yul\":19815:19816   */\n              0x00\n                /* \"#utility.yul\":19807:19813   */\n              dup3\n                /* \"#utility.yul\":19803:19817   */\n              add\n                /* \"#utility.yul\":19796:19854   */\n              mstore\n                /* \"#utility.yul\":19888:19906   */\n              0x6420746869732066756e6374696f6e2e00000000000000000000000000000000\n                /* \"#utility.yul\":19883:19885   */\n              0x20\n                /* \"#utility.yul\":19875:19881   */\n              dup3\n                /* \"#utility.yul\":19871:19886   */\n              add\n                /* \"#utility.yul\":19864:19907   */\n              mstore\n                /* \"#utility.yul\":19785:19914   */\n              pop\n              jump\t// out\n                /* \"#utility.yul\":19920:20088   */\n            tag_281:\n                /* \"#utility.yul\":20060:20080   */\n              0x596f7520616c726561647920766f746564210000000000000000000000000000\n                /* \"#utility.yul\":20056:20057   */\n              0x00\n                /* \"#utility.yul\":20048:20054   */\n              dup3\n                /* \"#utility.yul\":20044:20058   */\n              add\n                /* \"#utility.yul\":20037:20081   */\n              mstore\n                /* \"#utility.yul\":20026:20088   */\n              pop\n              jump\t// out\n                /* \"#utility.yul\":20094:20329   */\n            tag_286:\n                /* \"#utility.yul\":20234:20268   */\n              0x526571756573742076616c75652069732067726561746572207468616e206361\n                /* \"#utility.yul\":20230:20231   */\n              0x00\n                /* \"#utility.yul\":20222:20228   */\n              dup3\n                /* \"#utility.yul\":20218:20232   */\n              add\n                /* \"#utility.yul\":20211:20269   */\n              mstore\n                /* \"#utility.yul\":20303:20321   */\n              0x6d706169676e2062616c616e6365212100000000000000000000000000000000\n                /* \"#utility.yul\":20298:20300   */\n              0x20\n                /* \"#utility.yul\":20290:20296   */\n              dup3\n                /* \"#utility.yul\":20286:20301   */\n              add\n                /* \"#utility.yul\":20279:20322   */\n              mstore\n                /* \"#utility.yul\":20200:20329   */\n              pop\n              jump\t// out\n                /* \"#utility.yul\":20335:20558   */\n            tag_291:\n                /* \"#utility.yul\":20475:20509   */\n              0x596f752068617665206e6f7420646f6e6174656420746f207468652070726f6a\n                /* \"#utility.yul\":20471:20472   */\n              0x00\n                /* \"#utility.yul\":20463:20469   */\n              dup3\n                /* \"#utility.yul\":20459:20473   */\n              add\n                /* \"#utility.yul\":20452:20510   */\n              mstore\n                /* \"#utility.yul\":20544:20550   */\n              0x6563742e00000000000000000000000000000000000000000000000000000000\n                /* \"#utility.yul\":20539:20541   */\n              0x20\n                /* \"#utility.yul\":20531:20537   */\n              dup3\n                /* \"#utility.yul\":20527:20542   */\n              add\n                /* \"#utility.yul\":20520:20551   */\n              mstore\n                /* \"#utility.yul\":20441:20558   */\n              pop\n              jump\t// out\n                /* \"#utility.yul\":20564:20859   */\n            tag_296:\n                /* \"#utility.yul\":20704:20738   */\n              0x596f7520617474656d707420746f20617070726f76652061206e6f6e2d657869\n                /* \"#utility.yul\":20700:20701   */\n              0x00\n                /* \"#utility.yul\":20692:20698   */\n              dup3\n                /* \"#utility.yul\":20688:20702   */\n              add\n                /* \"#utility.yul\":20681:20739   */\n              mstore\n                /* \"#utility.yul\":20773:20807   */\n              0x7374656e7420726571756573742e20436865636b207468652072657175657374\n                /* \"#utility.yul\":20768:20770   */\n              0x20\n                /* \"#utility.yul\":20760:20766   */\n              dup3\n                /* \"#utility.yul\":20756:20771   */\n              add\n                /* \"#utility.yul\":20749:20808   */\n              mstore\n                /* \"#utility.yul\":20842:20851   */\n              0x20696e6465782100000000000000000000000000000000000000000000000000\n                /* \"#utility.yul\":20837:20839   */\n              0x40\n                /* \"#utility.yul\":20829:20835   */\n              dup3\n                /* \"#utility.yul\":20825:20840   */\n              add\n                /* \"#utility.yul\":20818:20852   */\n              mstore\n                /* \"#utility.yul\":20670:20859   */\n              pop\n              jump\t// out\n                /* \"#utility.yul\":20865:21047   */\n            tag_301:\n                /* \"#utility.yul\":21005:21039   */\n              0x4d696e696e756d20636f6e747269627574696f6e206973206e6f74206d65742e\n                /* \"#utility.yul\":21001:21002   */\n              0x00\n                /* \"#utility.yul\":20993:20999   */\n              dup3\n                /* \"#utility.yul\":20989:21003   */\n              add\n                /* \"#utility.yul\":20982:21040   */\n              mstore\n                /* \"#utility.yul\":20971:21047   */\n              pop\n              jump\t// out\n                /* \"#utility.yul\":21053:21231   */\n            tag_306:\n                /* \"#utility.yul\":21193:21223   */\n              0x417070726f76616c2072617465206c65737320207468616e2035302500000000\n                /* \"#utility.yul\":21189:21190   */\n              0x00\n                /* \"#utility.yul\":21181:21187   */\n              dup3\n                /* \"#utility.yul\":21177:21191   */\n              add\n                /* \"#utility.yul\":21170:21224   */\n              mstore\n                /* \"#utility.yul\":21159:21231   */\n              pop\n              jump\t// out\n                /* \"#utility.yul\":21237:21359   */\n            tag_204:\n                /* \"#utility.yul\":21310:21334   */\n              tag_422\n                /* \"#utility.yul\":21328:21333   */\n              dup2\n                /* \"#utility.yul\":21310:21334   */\n              tag_242\n              jump\t// in\n            tag_422:\n                /* \"#utility.yul\":21303:21308   */\n              dup2\n                /* \"#utility.yul\":21300:21335   */\n              eq\n                /* \"#utility.yul\":21290:21292   */\n              tag_423\n              jumpi\n                /* \"#utility.yul\":21349:21350   */\n              0x00\n                /* \"#utility.yul\":21346:21347   */\n              dup1\n                /* \"#utility.yul\":21339:21351   */\n              revert\n                /* \"#utility.yul\":21290:21292   */\n            tag_423:\n                /* \"#utility.yul\":21280:21359   */\n              pop\n              jump\t// out\n                /* \"#utility.yul\":21365:21503   */\n            tag_208:\n                /* \"#utility.yul\":21446:21478   */\n              tag_425\n                /* \"#utility.yul\":21472:21477   */\n              dup2\n                /* \"#utility.yul\":21446:21478   */\n              tag_238\n              jump\t// in\n            tag_425:\n                /* \"#utility.yul\":21439:21444   */\n              dup2\n                /* \"#utility.yul\":21436:21479   */\n              eq\n                /* \"#utility.yul\":21426:21428   */\n              tag_426\n              jumpi\n                /* \"#utility.yul\":21493:21494   */\n              0x00\n                /* \"#utility.yul\":21490:21491   */\n              dup1\n                /* \"#utility.yul\":21483:21495   */\n              revert\n                /* \"#utility.yul\":21426:21428   */\n            tag_426:\n                /* \"#utility.yul\":21416:21503   */\n              pop\n              jump\t// out\n                /* \"#utility.yul\":21509:21631   */\n            tag_216:\n                /* \"#utility.yul\":21582:21606   */\n              tag_428\n                /* \"#utility.yul\":21600:21605   */\n              dup2\n                /* \"#utility.yul\":21582:21606   */\n              tag_310\n              jump\t// in\n            tag_428:\n                /* \"#utility.yul\":21575:21580   */\n              dup2\n                /* \"#utility.yul\":21572:21607   */\n              eq\n                /* \"#utility.yul\":21562:21564   */\n              tag_429\n              jumpi\n                /* \"#utility.yul\":21621:21622   */\n              0x00\n                /* \"#utility.yul\":21618:21619   */\n              dup1\n                /* \"#utility.yul\":21611:21623   */\n              revert\n                /* \"#utility.yul\":21562:21564   */\n            tag_429:\n                /* \"#utility.yul\":21552:21631   */\n              pop\n              jump\t// out\n\n            auxdata: 0xa264697066735822122098a5c7032dbc295455805ddc5831462fd69df842dfc8cbb8e105dfdde256dc3164736f6c63430008040033\n        }\n    }\n\n    auxdata: 0xa2646970667358221220a857bc804dab495027fe3afac5ca0a0e1dab0c68249932e8ff774d71fe40f27064736f6c63430008040033\n}\n","bytecode":{"linkReferences":{},"object":"608060405234801561001057600080fd5b5033600160006101000a81548173ffffffffffffffffffffffffffffffffffffffff021916908373ffffffffffffffffffffffffffffffffffffffff160217905550612e00806100616000396000f3fe60806040523480156200001157600080fd5b5060043610620000945760003560e01c8063b56083961162000063578063b5608396146200015d578063bed21344146200017f578063d4b7d4a014620001b5578063fad4dee314620001eb5762000094565b806325c501ff14620000995780632d0d8a5d14620000cf578063339d50a514620001055780634acb9d4f146200013b575b600080fd5b620000b76004803603810190620000b1919062000733565b6200020b565b604051620000c6919062000969565b60405180910390f35b620000ed6004803603810190620000e7919062000733565b620002da565b604051620000fc91906200094c565b60405180910390f35b6200012360048036038101906200011d9190620007a0565b6200030d565b6040516200013291906200094c565b60405180910390f35b620001456200034d565b60405162000154919062000969565b60405180910390f35b62000167620003dd565b6040516200017691906200094c565b60405180910390f35b6200019d600480360381019062000197919062000733565b62000403565b604051620001ac91906200094c565b60405180910390f35b620001d36004803603810190620001cd91906200075f565b6200046c565b604051620001e291906200094c565b60405180910390f35b620002096004803603810190620002039190620007cc565b620004bb565b005b6060600260008373ffffffffffffffffffffffffffffffffffffffff1673ffffffffffffffffffffffffffffffffffffffff168152602001908152602001600020805480602002602001604051908101604052809291908181526020018280548015620002ce57602002820191906000526020600020905b8160009054906101000a900473ffffffffffffffffffffffffffffffffffffffff1673ffffffffffffffffffffffffffffffffffffffff168152602001906001019080831162000283575b50505050509050919050565b60036020528060005260406000206000915054906101000a900473ffffffffffffffffffffffffffffffffffffffff1681565b600081815481106200031e57600080fd5b906000526020600020016000915054906101000a900473ffffffffffffffffffffffffffffffffffffffff1681565b60606000805480602002602001604051908101604052809291908181526020018280548015620003d357602002820191906000526020600020905b8160009054906101000a900473ffffffffffffffffffffffffffffffffffffffff1673ffffffffffffffffffffffffffffffffffffffff168152602001906001019080831162000388575b5050505050905090565b600160009054906101000a900473ffffffffffffffffffffffffffffffffffffffff1681565b6000600360008373ffffffffffffffffffffffffffffffffffffffff1673ffffffffffffffffffffffffffffffffffffffff16815260200190815260200160002060009054906101000a900473ffffffffffffffffffffffffffffffffffffffff169050919050565b600260205281600052604060002081815481106200048957600080fd5b906000526020600020016000915091509054906101000a900473ffffffffffffffffffffffffffffffffffffffff1681565b600083838333604051620004cf9062000685565b620004de94939291906200098d565b604051809103906000f080158015620004fb573d6000803e3d6000fd5b5090506000819080600181540180825580915050600190039060005260206000200160009091909190916101000a81548173ffffffffffffffffffffffffffffffffffffffff021916908373ffffffffffffffffffffffffffffffffffffffff160217905550600260003373ffffffffffffffffffffffffffffffffffffffff1673ffffffffffffffffffffffffffffffffffffffff168152602001908152602001600020819080600181540180825580915050600190039060005260206000200160009091909190916101000a81548173ffffffffffffffffffffffffffffffffffffffff021916908373ffffffffffffffffffffffffffffffffffffffff16021790555033600360008373ffffffffffffffffffffffffffffffffffffffff1673ffffffffffffffffffffffffffffffffffffffff16815260200190815260200160002060006101000a81548173ffffffffffffffffffffffffffffffffffffffff021916908373ffffffffffffffffffffffffffffffffffffffff16021790555050505050565b6122018062000bca83390190565b6000620006aa620006a48462000a11565b620009e8565b905082815260208101848484011115620006c357600080fd5b620006d084828562000ada565b509392505050565b600081359050620006e98162000b95565b92915050565b600082601f8301126200070157600080fd5b81356200071384826020860162000693565b91505092915050565b6000813590506200072d8162000baf565b92915050565b6000602082840312156200074657600080fd5b60006200075684828501620006d8565b91505092915050565b600080604083850312156200077357600080fd5b60006200078385828601620006d8565b925050602062000796858286016200071c565b9150509250929050565b600060208284031215620007b357600080fd5b6000620007c3848285016200071c565b91505092915050565b600080600060608486031215620007e257600080fd5b6000620007f2868287016200071c565b935050602084013567ffffffffffffffff8111156200081057600080fd5b6200081e86828701620006ef565b925050604084013567ffffffffffffffff8111156200083c57600080fd5b6200084a86828701620006ef565b9150509250925092565b60006200086283836200086e565b60208301905092915050565b620008798162000a9c565b82525050565b6200088a8162000a9c565b82525050565b60006200089d8262000a57565b620008a9818562000a7a565b9350620008b68362000a47565b8060005b83811015620008ed578151620008d1888262000854565b9750620008de8362000a6d565b925050600181019050620008ba565b5085935050505092915050565b6000620009078262000a62565b62000913818562000a8b565b93506200092581856020860162000ae9565b620009308162000b84565b840191505092915050565b620009468162000ad0565b82525050565b60006020820190506200096360008301846200087f565b92915050565b6000602082019050818103600083015262000985818462000890565b905092915050565b6000608082019050620009a460008301876200093b565b8181036020830152620009b88186620008fa565b90508181036040830152620009ce8185620008fa565b9050620009df60608301846200087f565b95945050505050565b6000620009f462000a07565b905062000a02828262000b1f565b919050565b6000604051905090565b600067ffffffffffffffff82111562000a2f5762000a2e62000b55565b5b62000a3a8262000b84565b9050602081019050919050565b6000819050602082019050919050565b600081519050919050565b600081519050919050565b6000602082019050919050565b600082825260208201905092915050565b600082825260208201905092915050565b600062000aa98262000ab0565b9050919050565b600073ffffffffffffffffffffffffffffffffffffffff82169050919050565b6000819050919050565b82818337600083830152505050565b60005b8381101562000b0957808201518184015260208101905062000aec565b8381111562000b19576000848401525b50505050565b62000b2a8262000b84565b810181811067ffffffffffffffff8211171562000b4c5762000b4b62000b55565b5b80604052505050565b7f4e487b7100000000000000000000000000000000000000000000000000000000600052604160045260246000fd5b6000601f19601f8301169050919050565b62000ba08162000a9c565b811462000bac57600080fd5b50565b62000bba8162000ad0565b811462000bc657600080fd5b5056fe60806040523480156200001157600080fd5b506040516200220138038062002201833981810160405281019062000037919062000213565b600060028190555080600360006101000a81548173ffffffffffffffffffffffffffffffffffffffff021916908373ffffffffffffffffffffffffffffffffffffffff1602179055508360068190555082600490805190602001906200009f929190620000c3565b508160059080519060200190620000b8929190620000c3565b505050505062000493565b828054620000d19062000384565b90600052602060002090601f016020900481019282620000f5576000855562000141565b82601f106200011057805160ff191683800117855562000141565b8280016001018555821562000141579182015b828111156200014057825182559160200191906001019062000123565b5b50905062000150919062000154565b5090565b5b808211156200016f57600081600090555060010162000155565b5090565b60006200018a6200018484620002da565b620002b1565b905082815260208101848484011115620001a357600080fd5b620001b08482856200034e565b509392505050565b600081519050620001c9816200045f565b92915050565b600082601f830112620001e157600080fd5b8151620001f384826020860162000173565b91505092915050565b6000815190506200020d8162000479565b92915050565b600080600080608085870312156200022a57600080fd5b60006200023a87828801620001fc565b945050602085015167ffffffffffffffff8111156200025857600080fd5b6200026687828801620001cf565b935050604085015167ffffffffffffffff8111156200028457600080fd5b6200029287828801620001cf565b9250506060620002a587828801620001b8565b91505092959194509250565b6000620002bd620002d0565b9050620002cb8282620003ba565b919050565b6000604051905090565b600067ffffffffffffffff821115620002f857620002f76200041f565b5b62000303826200044e565b9050602081019050919050565b60006200031d8262000324565b9050919050565b600073ffffffffffffffffffffffffffffffffffffffff82169050919050565b6000819050919050565b60005b838110156200036e57808201518184015260208101905062000351565b838111156200037e576000848401525b50505050565b600060028204905060018216806200039d57607f821691505b60208210811415620003b457620003b3620003f0565b5b50919050565b620003c5826200044e565b810181811067ffffffffffffffff82111715620003e757620003e66200041f565b5b80604052505050565b7f4e487b7100000000000000000000000000000000000000000000000000000000600052602260045260246000fd5b7f4e487b7100000000000000000000000000000000000000000000000000000000600052604160045260246000fd5b6000601f19601f8301169050919050565b6200046a8162000310565b81146200047657600080fd5b50565b620004848162000344565b81146200049057600080fd5b50565b611d5e80620004a36000396000f3fe6080604052600436106100e85760003560e01c80638a9cfd551161008a578063d7bb99ba11610059578063d7bb99ba146102f0578063d7d1bbdb146102fa578063f34d4c6314610323578063fbfa4b7f14610364576100e8565b80638a9cfd5514610240578063937e09b114610269578063a00c96d714610294578063bfeba227146102c5576100e8565b8063481c6a75116100c6578063481c6a751461017e57806381d12c58146101a957806382fde093146101ea578063835a617214610215576100e8565b806303441006146100ed5780630a14439114610116578063110842cb14610153575b600080fd5b3480156100f957600080fd5b50610114600480360381019061010f9190611232565b61038f565b005b34801561012257600080fd5b5061013d600480360381019061013891906111a2565b6105f7565b60405161014a9190611472565b60405180910390f35b34801561015f57600080fd5b50610168610617565b604051610175919061148d565b60405180910390f35b34801561018a57600080fd5b506101936106a5565b6040516101a09190611457565b60405180910390f35b3480156101b557600080fd5b506101d060048036038101906101cb9190611232565b6106cb565b6040516101e19594939291906114af565b60405180910390f35b3480156101f657600080fd5b506101ff6107b6565b60405161020c91906116a3565b60405180910390f35b34801561022157600080fd5b5061022a6107bc565b604051610237919061148d565b60405180910390f35b34801561024c57600080fd5b50610267600480360381019061026291906111cb565b61084a565b005b34801561027557600080fd5b5061027e6109da565b60405161028b91906116a3565b60405180910390f35b3480156102a057600080fd5b506102a96109e0565b6040516102bc97969594939291906116be565b60405180910390f35b3480156102d157600080fd5b506102da610bc8565b6040516102e791906116a3565b60405180910390f35b6102f8610bd0565b005b34801561030657600080fd5b50610321600480360381019061031c9190611232565b610ce0565b005b34801561032f57600080fd5b5061034a60048036038101906103459190611232565b610f1f565b60405161035b959493929190611509565b60405180910390f35b34801561037057600080fd5b5061037961103d565b60405161038691906116a3565b60405180910390f35b600360009054906101000a900473ffffffffffffffffffffffffffffffffffffffff1673ffffffffffffffffffffffffffffffffffffffff163373ffffffffffffffffffffffffffffffffffffffff161461041f576040517f08c379a0000000000000000000000000000000000000000000000000000000008152600401610416906115c3565b60405180910390fd5b600080600083815260200190815260200160002090506002548210610479576040517f08c379a0000000000000000000000000000000000000000000000000000000008152600401610470906115a3565b60405180910390fd5b8060020160149054906101000a900460ff16156104cb576040517f08c379a00000000000000000000000000000000000000000000000000000000081526004016104c290611583565b60405180910390fd5b600181600301541015610513576040517f08c379a000000000000000000000000000000000000000000000000000000000815260040161050a90611563565b60405180910390fd5b600260075461052291906117ad565b816003015411610567576040517f08c379a000000000000000000000000000000000000000000000000000000000815260040161055e90611683565b60405180910390fd5b60018160020160146101000a81548160ff0219169083151502179055508060020160009054906101000a900473ffffffffffffffffffffffffffffffffffffffff1673ffffffffffffffffffffffffffffffffffffffff166108fc82600101549081150290604051600060405180830381858888f193505050501580156105f2573d6000803e3d6000fd5b505050565b60016020528060005260406000206000915054906101000a900460ff1681565b600580546106249061187a565b80601f01602080910402602001604051908101604052809291908181526020018280546106509061187a565b801561069d5780601f106106725761010080835404028352916020019161069d565b820191906000526020600020905b81548152906001019060200180831161068057829003601f168201915b505050505081565b600360009054906101000a900473ffffffffffffffffffffffffffffffffffffffff1681565b60006020528060005260406000206000915090508060000180546106ee9061187a565b80601f016020809104026020016040519081016040528092919081815260200182805461071a9061187a565b80156107675780601f1061073c57610100808354040283529160200191610767565b820191906000526020600020905b81548152906001019060200180831161074a57829003601f168201915b5050505050908060010154908060020160009054906101000a900473ffffffffffffffffffffffffffffffffffffffff16908060020160149054906101000a900460ff16908060030154905085565b60075481565b600480546107c99061187a565b80601f01602080910402602001604051908101604052809291908181526020018280546107f59061187a565b80156108425780601f1061081757610100808354040283529160200191610842565b820191906000526020600020905b81548152906001019060200180831161082557829003601f168201915b505050505081565b600360009054906101000a900473ffffffffffffffffffffffffffffffffffffffff1673ffffffffffffffffffffffffffffffffffffffff163373ffffffffffffffffffffffffffffffffffffffff16146108da576040517f08c379a00000000000000000000000000000000000000000000000000000000081526004016108d1906115c3565b60405180910390fd5b47821061091c576040517f08c379a000000000000000000000000000000000000000000000000000000000815260040161091390611603565b60405180910390fd5b600080600060026000815480929190610934906118dd565b919050558152602001908152602001600020905083816000019080519060200190610960929190611043565b50828160010181905550818160020160006101000a81548173ffffffffffffffffffffffffffffffffffffffff021916908373ffffffffffffffffffffffffffffffffffffffff16021790555060008160020160146101000a81548160ff0219169083151502179055506000816003018190555050505050565b60065481565b6000606080600080600080600654600460053073ffffffffffffffffffffffffffffffffffffffff1663bfeba2276040518163ffffffff1660e01b815260040160206040518083038186803b158015610a3857600080fd5b505afa158015610a4c573d6000803e3d6000fd5b505050506040513d601f19601f82011682018060405250810190610a70919061125b565b600254600754600360009054906101000a900473ffffffffffffffffffffffffffffffffffffffff16858054610aa59061187a565b80601f0160208091040260200160405190810160405280929190818152602001828054610ad19061187a565b8015610b1e5780601f10610af357610100808354040283529160200191610b1e565b820191906000526020600020905b815481529060010190602001808311610b0157829003601f168201915b50505050509550848054610b319061187a565b80601f0160208091040260200160405190810160405280929190818152602001828054610b5d9061187a565b8015610baa5780601f10610b7f57610100808354040283529160200191610baa565b820191906000526020600020905b815481529060010190602001808311610b8d57829003601f168201915b50505050509450965096509650965096509650965090919293949596565b600047905090565b600654341015610c15576040517f08c379a0000000000000000000000000000000000000000000000000000000008152600401610c0c90611663565b60405180910390fd5b60001515600160003373ffffffffffffffffffffffffffffffffffffffff1673ffffffffffffffffffffffffffffffffffffffff16815260200190815260200160002060009054906101000a900460ff1615151415610cde5760076000815480929190610c81906118dd565b919050555060018060003373ffffffffffffffffffffffffffffffffffffffff1673ffffffffffffffffffffffffffffffffffffffff16815260200190815260200160002060006101000a81548160ff0219169083151502179055505b565b600160003373ffffffffffffffffffffffffffffffffffffffff1673ffffffffffffffffffffffffffffffffffffffff16815260200190815260200160002060009054906101000a900460ff16610d6c576040517f08c379a0000000000000000000000000000000000000000000000000000000008152600401610d6390611623565b60405180910390fd5b600080600083815260200190815260200160002090508060040160003373ffffffffffffffffffffffffffffffffffffffff1673ffffffffffffffffffffffffffffffffffffffff16815260200190815260200160002060009054906101000a900460ff1615610e11576040517f08c379a0000000000000000000000000000000000000000000000000000000008152600401610e08906115e3565b60405180910390fd5b6002548210610e55576040517f08c379a0000000000000000000000000000000000000000000000000000000008152600401610e4c90611643565b60405180910390fd5b8060020160149054906101000a900460ff1615610ea7576040517f08c379a0000000000000000000000000000000000000000000000000000000008152600401610e9e90611583565b60405180910390fd5b60018160040160003373ffffffffffffffffffffffffffffffffffffffff1673ffffffffffffffffffffffffffffffffffffffff16815260200190815260200160002060006101000a81548160ff021916908315150217905550806003016000815480929190610f16906118dd565b91905055505050565b6060600080600080600080600088815260200190815260200160002090506000816000018054610f4e9061187a565b80601f0160208091040260200160405190810160405280929190818152602001828054610f7a9061187a565b8015610fc75780601f10610f9c57610100808354040283529160200191610fc7565b820191906000526020600020905b815481529060010190602001808311610faa57829003601f168201915b5050505050905060008260010154905060008360020160009054906101000a900473ffffffffffffffffffffffffffffffffffffffff16905060008460020160149054906101000a900460ff16905060008560030154905084848484849a509a509a509a509a5050505050505091939590929450565b60025481565b82805461104f9061187a565b90600052602060002090601f01602090048101928261107157600085556110b8565b82601f1061108a57805160ff19168380011785556110b8565b828001600101855582156110b8579182015b828111156110b757825182559160200191906001019061109c565b5b5090506110c591906110c9565b5090565b5b808211156110e25760008160009055506001016110ca565b5090565b60006110f96110f484611760565b61173b565b90508281526020810184848401111561111157600080fd5b61111c848285611838565b509392505050565b60008135905061113381611ce3565b92915050565b60008135905061114881611cfa565b92915050565b600082601f83011261115f57600080fd5b813561116f8482602086016110e6565b91505092915050565b60008135905061118781611d11565b92915050565b60008151905061119c81611d11565b92915050565b6000602082840312156111b457600080fd5b60006111c284828501611124565b91505092915050565b6000806000606084860312156111e057600080fd5b600084013567ffffffffffffffff8111156111fa57600080fd5b6112068682870161114e565b935050602061121786828701611178565b925050604061122886828701611139565b9150509250925092565b60006020828403121561124457600080fd5b600061125284828501611178565b91505092915050565b60006020828403121561126d57600080fd5b600061127b8482850161118d565b91505092915050565b61128d816117f0565b82525050565b61129c816117de565b82525050565b6112ab81611802565b82525050565b60006112bc82611791565b6112c6818561179c565b93506112d6818560208601611847565b6112df816119e2565b840191505092915050565b60006112f7602d8361179c565b9150611302826119f3565b604082019050919050565b600061131a60238361179c565b915061132582611a42565b604082019050919050565b600061133d60488361179c565b915061134882611a91565b606082019050919050565b600061136060308361179c565b915061136b82611b06565b604082019050919050565b600061138360128361179c565b915061138e82611b55565b602082019050919050565b60006113a660308361179c565b91506113b182611b7e565b604082019050919050565b60006113c960248361179c565b91506113d482611bcd565b604082019050919050565b60006113ec60478361179c565b91506113f782611c1c565b606082019050919050565b600061140f60208361179c565b915061141a82611c91565b602082019050919050565b6000611432601c8361179c565b915061143d82611cba565b602082019050919050565b6114518161182e565b82525050565b600060208201905061146c6000830184611293565b92915050565b600060208201905061148760008301846112a2565b92915050565b600060208201905081810360008301526114a781846112b1565b905092915050565b600060a08201905081810360008301526114c981886112b1565b90506114d86020830187611448565b6114e56040830186611284565b6114f260608301856112a2565b6114ff6080830184611448565b9695505050505050565b600060a082019050818103600083015261152381886112b1565b90506115326020830187611448565b61153f6040830186611293565b61154c60608301856112a2565b6115596080830184611448565b9695505050505050565b6000602082019050818103600083015261157c816112ea565b9050919050565b6000602082019050818103600083015261159c8161130d565b9050919050565b600060208201905081810360008301526115bc81611330565b9050919050565b600060208201905081810360008301526115dc81611353565b9050919050565b600060208201905081810360008301526115fc81611376565b9050919050565b6000602082019050818103600083015261161c81611399565b9050919050565b6000602082019050818103600083015261163c816113bc565b9050919050565b6000602082019050818103600083015261165c816113df565b9050919050565b6000602082019050818103600083015261167c81611402565b9050919050565b6000602082019050818103600083015261169c81611425565b9050919050565b60006020820190506116b86000830184611448565b92915050565b600060e0820190506116d3600083018a611448565b81810360208301526116e581896112b1565b905081810360408301526116f981886112b1565b90506117086060830187611448565b6117156080830186611448565b61172260a0830185611448565b61172f60c0830184611293565b98975050505050505050565b6000611745611756565b905061175182826118ac565b919050565b6000604051905090565b600067ffffffffffffffff82111561177b5761177a6119b3565b5b611784826119e2565b9050602081019050919050565b600081519050919050565b600082825260208201905092915050565b60006117b88261182e565b91506117c38361182e565b9250826117d3576117d2611955565b5b828204905092915050565b60006117e98261180e565b9050919050565b60006117fb8261180e565b9050919050565b60008115159050919050565b600073ffffffffffffffffffffffffffffffffffffffff82169050919050565b6000819050919050565b82818337600083830152505050565b60005b8381101561186557808201518184015260208101905061184a565b83811115611874576000848401525b50505050565b6000600282049050600182168061189257607f821691505b602082108114156118a6576118a5611984565b5b50919050565b6118b5826119e2565b810181811067ffffffffffffffff821117156118d4576118d36119b3565b5b80604052505050565b60006118e88261182e565b91507fffffffffffffffffffffffffffffffffffffffffffffffffffffffffffffffff82141561191b5761191a611926565b5b600182019050919050565b7f4e487b7100000000000000000000000000000000000000000000000000000000600052601160045260246000fd5b7f4e487b7100000000000000000000000000000000000000000000000000000000600052601260045260246000fd5b7f4e487b7100000000000000000000000000000000000000000000000000000000600052602260045260246000fd5b7f4e487b7100000000000000000000000000000000000000000000000000000000600052604160045260246000fd5b6000601f19601f8301169050919050565b7f54686973207265717565737420686173206e6f74206265656e20617070726f7660008201527f656420627920616e796f6e652e00000000000000000000000000000000000000602082015250565b7f5468697320726571756573742077617320616c726561647920636f6d706c657460008201527f65642e0000000000000000000000000000000000000000000000000000000000602082015250565b7f596f7520617474656d707420746f2066696e616c697a652061206e6f6e2d657860008201527f697374656e7420726571756573742e20436865636b207468652072657175657360208201527f7420696e64657821000000000000000000000000000000000000000000000000604082015250565b7f4f6e6c79206d616e6167657220697320616c6c6f77656420746f2063616c6c6560008201527f6420746869732066756e6374696f6e2e00000000000000000000000000000000602082015250565b7f596f7520616c726561647920766f746564210000000000000000000000000000600082015250565b7f526571756573742076616c75652069732067726561746572207468616e20636160008201527f6d706169676e2062616c616e6365212100000000000000000000000000000000602082015250565b7f596f752068617665206e6f7420646f6e6174656420746f207468652070726f6a60008201527f6563742e00000000000000000000000000000000000000000000000000000000602082015250565b7f596f7520617474656d707420746f20617070726f76652061206e6f6e2d65786960008201527f7374656e7420726571756573742e20436865636b20746865207265717565737460208201527f20696e6465782100000000000000000000000000000000000000000000000000604082015250565b7f4d696e696e756d20636f6e747269627574696f6e206973206e6f74206d65742e600082015250565b7f417070726f76616c2072617465206c65737320207468616e2035302500000000600082015250565b611cec816117de565b8114611cf757600080fd5b50565b611d03816117f0565b8114611d0e57600080fd5b50565b611d1a8161182e565b8114611d2557600080fd5b5056fea264697066735822122098a5c7032dbc295455805ddc5831462fd69df842dfc8cbb8e105dfdde256dc3164736f6c63430008040033a2646970667358221220a857bc804dab495027fe3afac5ca0a0e1dab0c68249932e8ff774d71fe40f27064736f6c63430008040033","opcodes":"PUSH1 0x80 PUSH1 0x40 MSTORE CALLVALUE DUP1 ISZERO PUSH2 0x10 JUMPI PUSH1 0x0 DUP1 REVERT JUMPDEST POP CALLER PUSH1 0x1 PUSH1 0x0 PUSH2 0x100 EXP DUP2 SLOAD DUP2 PUSH20 0xFFFFFFFFFFFFFFFFFFFFFFFFFFFFFFFFFFFFFFFF MUL NOT AND SWAP1 DUP4 PUSH20 0xFFFFFFFFFFFFFFFFFFFFFFFFFFFFFFFFFFFFFFFF AND MUL OR SWAP1 SSTORE POP PUSH2 0x2E00 DUP1 PUSH2 0x61 PUSH1 0x0 CODECOPY PUSH1 0x0 RETURN INVALID PUSH1 0x80 PUSH1 0x40 MSTORE CALLVALUE DUP1 ISZERO PUSH3 0x11 JUMPI PUSH1 0x0 DUP1 REVERT JUMPDEST POP PUSH1 0x4 CALLDATASIZE LT PUSH3 0x94 JUMPI PUSH1 0x0 CALLDATALOAD PUSH1 0xE0 SHR DUP1 PUSH4 0xB5608396 GT PUSH3 0x63 JUMPI DUP1 PUSH4 0xB5608396 EQ PUSH3 0x15D JUMPI DUP1 PUSH4 0xBED21344 EQ PUSH3 0x17F JUMPI DUP1 PUSH4 0xD4B7D4A0 EQ PUSH3 0x1B5 JUMPI DUP1 PUSH4 0xFAD4DEE3 EQ PUSH3 0x1EB JUMPI PUSH3 0x94 JUMP JUMPDEST DUP1 PUSH4 0x25C501FF EQ PUSH3 0x99 JUMPI DUP1 PUSH4 0x2D0D8A5D EQ PUSH3 0xCF JUMPI DUP1 PUSH4 0x339D50A5 EQ PUSH3 0x105 JUMPI DUP1 PUSH4 0x4ACB9D4F EQ PUSH3 0x13B JUMPI JUMPDEST PUSH1 0x0 DUP1 REVERT JUMPDEST PUSH3 0xB7 PUSH1 0x4 DUP1 CALLDATASIZE SUB DUP2 ADD SWAP1 PUSH3 0xB1 SWAP2 SWAP1 PUSH3 0x733 JUMP JUMPDEST PUSH3 0x20B JUMP JUMPDEST PUSH1 0x40 MLOAD PUSH3 0xC6 SWAP2 SWAP1 PUSH3 0x969 JUMP JUMPDEST PUSH1 0x40 MLOAD DUP1 SWAP2 SUB SWAP1 RETURN JUMPDEST PUSH3 0xED PUSH1 0x4 DUP1 CALLDATASIZE SUB DUP2 ADD SWAP1 PUSH3 0xE7 SWAP2 SWAP1 PUSH3 0x733 JUMP JUMPDEST PUSH3 0x2DA JUMP JUMPDEST PUSH1 0x40 MLOAD PUSH3 0xFC SWAP2 SWAP1 PUSH3 0x94C JUMP JUMPDEST PUSH1 0x40 MLOAD DUP1 SWAP2 SUB SWAP1 RETURN JUMPDEST PUSH3 0x123 PUSH1 0x4 DUP1 CALLDATASIZE SUB DUP2 ADD SWAP1 PUSH3 0x11D SWAP2 SWAP1 PUSH3 0x7A0 JUMP JUMPDEST PUSH3 0x30D JUMP JUMPDEST PUSH1 0x40 MLOAD PUSH3 0x132 SWAP2 SWAP1 PUSH3 0x94C JUMP JUMPDEST PUSH1 0x40 MLOAD DUP1 SWAP2 SUB SWAP1 RETURN JUMPDEST PUSH3 0x145 PUSH3 0x34D JUMP JUMPDEST PUSH1 0x40 MLOAD PUSH3 0x154 SWAP2 SWAP1 PUSH3 0x969 JUMP JUMPDEST PUSH1 0x40 MLOAD DUP1 SWAP2 SUB SWAP1 RETURN JUMPDEST PUSH3 0x167 PUSH3 0x3DD JUMP JUMPDEST PUSH1 0x40 MLOAD PUSH3 0x176 SWAP2 SWAP1 PUSH3 0x94C JUMP JUMPDEST PUSH1 0x40 MLOAD DUP1 SWAP2 SUB SWAP1 RETURN JUMPDEST PUSH3 0x19D PUSH1 0x4 DUP1 CALLDATASIZE SUB DUP2 ADD SWAP1 PUSH3 0x197 SWAP2 SWAP1 PUSH3 0x733 JUMP JUMPDEST PUSH3 0x403 JUMP JUMPDEST PUSH1 0x40 MLOAD PUSH3 0x1AC SWAP2 SWAP1 PUSH3 0x94C JUMP JUMPDEST PUSH1 0x40 MLOAD DUP1 SWAP2 SUB SWAP1 RETURN JUMPDEST PUSH3 0x1D3 PUSH1 0x4 DUP1 CALLDATASIZE SUB DUP2 ADD SWAP1 PUSH3 0x1CD SWAP2 SWAP1 PUSH3 0x75F JUMP JUMPDEST PUSH3 0x46C JUMP JUMPDEST PUSH1 0x40 MLOAD PUSH3 0x1E2 SWAP2 SWAP1 PUSH3 0x94C JUMP JUMPDEST PUSH1 0x40 MLOAD DUP1 SWAP2 SUB SWAP1 RETURN JUMPDEST PUSH3 0x209 PUSH1 0x4 DUP1 CALLDATASIZE SUB DUP2 ADD SWAP1 PUSH3 0x203 SWAP2 SWAP1 PUSH3 0x7CC JUMP JUMPDEST PUSH3 0x4BB JUMP JUMPDEST STOP JUMPDEST PUSH1 0x60 PUSH1 0x2 PUSH1 0x0 DUP4 PUSH20 0xFFFFFFFFFFFFFFFFFFFFFFFFFFFFFFFFFFFFFFFF AND PUSH20 0xFFFFFFFFFFFFFFFFFFFFFFFFFFFFFFFFFFFFFFFF AND DUP2 MSTORE PUSH1 0x20 ADD SWAP1 DUP2 MSTORE PUSH1 0x20 ADD PUSH1 0x0 KECCAK256 DUP1 SLOAD DUP1 PUSH1 0x20 MUL PUSH1 0x20 ADD PUSH1 0x40 MLOAD SWAP1 DUP2 ADD PUSH1 0x40 MSTORE DUP1 SWAP3 SWAP2 SWAP1 DUP2 DUP2 MSTORE PUSH1 0x20 ADD DUP3 DUP1 SLOAD DUP1 ISZERO PUSH3 0x2CE JUMPI PUSH1 0x20 MUL DUP3 ADD SWAP2 SWAP1 PUSH1 0x0 MSTORE PUSH1 0x20 PUSH1 0x0 KECCAK256 SWAP1 JUMPDEST DUP2 PUSH1 0x0 SWAP1 SLOAD SWAP1 PUSH2 0x100 EXP SWAP1 DIV PUSH20 0xFFFFFFFFFFFFFFFFFFFFFFFFFFFFFFFFFFFFFFFF AND PUSH20 0xFFFFFFFFFFFFFFFFFFFFFFFFFFFFFFFFFFFFFFFF AND DUP2 MSTORE PUSH1 0x20 ADD SWAP1 PUSH1 0x1 ADD SWAP1 DUP1 DUP4 GT PUSH3 0x283 JUMPI JUMPDEST POP POP POP POP POP SWAP1 POP SWAP2 SWAP1 POP JUMP JUMPDEST PUSH1 0x3 PUSH1 0x20 MSTORE DUP1 PUSH1 0x0 MSTORE PUSH1 0x40 PUSH1 0x0 KECCAK256 PUSH1 0x0 SWAP2 POP SLOAD SWAP1 PUSH2 0x100 EXP SWAP1 DIV PUSH20 0xFFFFFFFFFFFFFFFFFFFFFFFFFFFFFFFFFFFFFFFF AND DUP2 JUMP JUMPDEST PUSH1 0x0 DUP2 DUP2 SLOAD DUP2 LT PUSH3 0x31E JUMPI PUSH1 0x0 DUP1 REVERT JUMPDEST SWAP1 PUSH1 0x0 MSTORE PUSH1 0x20 PUSH1 0x0 KECCAK256 ADD PUSH1 0x0 SWAP2 POP SLOAD SWAP1 PUSH2 0x100 EXP SWAP1 DIV PUSH20 0xFFFFFFFFFFFFFFFFFFFFFFFFFFFFFFFFFFFFFFFF AND DUP2 JUMP JUMPDEST PUSH1 0x60 PUSH1 0x0 DUP1 SLOAD DUP1 PUSH1 0x20 MUL PUSH1 0x20 ADD PUSH1 0x40 MLOAD SWAP1 DUP2 ADD PUSH1 0x40 MSTORE DUP1 SWAP3 SWAP2 SWAP1 DUP2 DUP2 MSTORE PUSH1 0x20 ADD DUP3 DUP1 SLOAD DUP1 ISZERO PUSH3 0x3D3 JUMPI PUSH1 0x20 MUL DUP3 ADD SWAP2 SWAP1 PUSH1 0x0 MSTORE PUSH1 0x20 PUSH1 0x0 KECCAK256 SWAP1 JUMPDEST DUP2 PUSH1 0x0 SWAP1 SLOAD SWAP1 PUSH2 0x100 EXP SWAP1 DIV PUSH20 0xFFFFFFFFFFFFFFFFFFFFFFFFFFFFFFFFFFFFFFFF AND PUSH20 0xFFFFFFFFFFFFFFFFFFFFFFFFFFFFFFFFFFFFFFFF AND DUP2 MSTORE PUSH1 0x20 ADD SWAP1 PUSH1 0x1 ADD SWAP1 DUP1 DUP4 GT PUSH3 0x388 JUMPI JUMPDEST POP POP POP POP POP SWAP1 POP SWAP1 JUMP JUMPDEST PUSH1 0x1 PUSH1 0x0 SWAP1 SLOAD SWAP1 PUSH2 0x100 EXP SWAP1 DIV PUSH20 0xFFFFFFFFFFFFFFFFFFFFFFFFFFFFFFFFFFFFFFFF AND DUP2 JUMP JUMPDEST PUSH1 0x0 PUSH1 0x3 PUSH1 0x0 DUP4 PUSH20 0xFFFFFFFFFFFFFFFFFFFFFFFFFFFFFFFFFFFFFFFF AND PUSH20 0xFFFFFFFFFFFFFFFFFFFFFFFFFFFFFFFFFFFFFFFF AND DUP2 MSTORE PUSH1 0x20 ADD SWAP1 DUP2 MSTORE PUSH1 0x20 ADD PUSH1 0x0 KECCAK256 PUSH1 0x0 SWAP1 SLOAD SWAP1 PUSH2 0x100 EXP SWAP1 DIV PUSH20 0xFFFFFFFFFFFFFFFFFFFFFFFFFFFFFFFFFFFFFFFF AND SWAP1 POP SWAP2 SWAP1 POP JUMP JUMPDEST PUSH1 0x2 PUSH1 0x20 MSTORE DUP2 PUSH1 0x0 MSTORE PUSH1 0x40 PUSH1 0x0 KECCAK256 DUP2 DUP2 SLOAD DUP2 LT PUSH3 0x489 JUMPI PUSH1 0x0 DUP1 REVERT JUMPDEST SWAP1 PUSH1 0x0 MSTORE PUSH1 0x20 PUSH1 0x0 KECCAK256 ADD PUSH1 0x0 SWAP2 POP SWAP2 POP SWAP1 SLOAD SWAP1 PUSH2 0x100 EXP SWAP1 DIV PUSH20 0xFFFFFFFFFFFFFFFFFFFFFFFFFFFFFFFFFFFFFFFF AND DUP2 JUMP JUMPDEST PUSH1 0x0 DUP4 DUP4 DUP4 CALLER PUSH1 0x40 MLOAD PUSH3 0x4CF SWAP1 PUSH3 0x685 JUMP JUMPDEST PUSH3 0x4DE SWAP5 SWAP4 SWAP3 SWAP2 SWAP1 PUSH3 0x98D JUMP JUMPDEST PUSH1 0x40 MLOAD DUP1 SWAP2 SUB SWAP1 PUSH1 0x0 CREATE DUP1 ISZERO DUP1 ISZERO PUSH3 0x4FB JUMPI RETURNDATASIZE PUSH1 0x0 DUP1 RETURNDATACOPY RETURNDATASIZE PUSH1 0x0 REVERT JUMPDEST POP SWAP1 POP PUSH1 0x0 DUP2 SWAP1 DUP1 PUSH1 0x1 DUP2 SLOAD ADD DUP1 DUP3 SSTORE DUP1 SWAP2 POP POP PUSH1 0x1 SWAP1 SUB SWAP1 PUSH1 0x0 MSTORE PUSH1 0x20 PUSH1 0x0 KECCAK256 ADD PUSH1 0x0 SWAP1 SWAP2 SWAP1 SWAP2 SWAP1 SWAP2 PUSH2 0x100 EXP DUP2 SLOAD DUP2 PUSH20 0xFFFFFFFFFFFFFFFFFFFFFFFFFFFFFFFFFFFFFFFF MUL NOT AND SWAP1 DUP4 PUSH20 0xFFFFFFFFFFFFFFFFFFFFFFFFFFFFFFFFFFFFFFFF AND MUL OR SWAP1 SSTORE POP PUSH1 0x2 PUSH1 0x0 CALLER PUSH20 0xFFFFFFFFFFFFFFFFFFFFFFFFFFFFFFFFFFFFFFFF AND PUSH20 0xFFFFFFFFFFFFFFFFFFFFFFFFFFFFFFFFFFFFFFFF AND DUP2 MSTORE PUSH1 0x20 ADD SWAP1 DUP2 MSTORE PUSH1 0x20 ADD PUSH1 0x0 KECCAK256 DUP2 SWAP1 DUP1 PUSH1 0x1 DUP2 SLOAD ADD DUP1 DUP3 SSTORE DUP1 SWAP2 POP POP PUSH1 0x1 SWAP1 SUB SWAP1 PUSH1 0x0 MSTORE PUSH1 0x20 PUSH1 0x0 KECCAK256 ADD PUSH1 0x0 SWAP1 SWAP2 SWAP1 SWAP2 SWAP1 SWAP2 PUSH2 0x100 EXP DUP2 SLOAD DUP2 PUSH20 0xFFFFFFFFFFFFFFFFFFFFFFFFFFFFFFFFFFFFFFFF MUL NOT AND SWAP1 DUP4 PUSH20 0xFFFFFFFFFFFFFFFFFFFFFFFFFFFFFFFFFFFFFFFF AND MUL OR SWAP1 SSTORE POP CALLER PUSH1 0x3 PUSH1 0x0 DUP4 PUSH20 0xFFFFFFFFFFFFFFFFFFFFFFFFFFFFFFFFFFFFFFFF AND PUSH20 0xFFFFFFFFFFFFFFFFFFFFFFFFFFFFFFFFFFFFFFFF AND DUP2 MSTORE PUSH1 0x20 ADD SWAP1 DUP2 MSTORE PUSH1 0x20 ADD PUSH1 0x0 KECCAK256 PUSH1 0x0 PUSH2 0x100 EXP DUP2 SLOAD DUP2 PUSH20 0xFFFFFFFFFFFFFFFFFFFFFFFFFFFFFFFFFFFFFFFF MUL NOT AND SWAP1 DUP4 PUSH20 0xFFFFFFFFFFFFFFFFFFFFFFFFFFFFFFFFFFFFFFFF AND MUL OR SWAP1 SSTORE POP POP POP POP POP JUMP JUMPDEST PUSH2 0x2201 DUP1 PUSH3 0xBCA DUP4 CODECOPY ADD SWAP1 JUMP JUMPDEST PUSH1 0x0 PUSH3 0x6AA PUSH3 0x6A4 DUP5 PUSH3 0xA11 JUMP JUMPDEST PUSH3 0x9E8 JUMP JUMPDEST SWAP1 POP DUP3 DUP2 MSTORE PUSH1 0x20 DUP2 ADD DUP5 DUP5 DUP5 ADD GT ISZERO PUSH3 0x6C3 JUMPI PUSH1 0x0 DUP1 REVERT JUMPDEST PUSH3 0x6D0 DUP5 DUP3 DUP6 PUSH3 0xADA JUMP JUMPDEST POP SWAP4 SWAP3 POP POP POP JUMP JUMPDEST PUSH1 0x0 DUP2 CALLDATALOAD SWAP1 POP PUSH3 0x6E9 DUP2 PUSH3 0xB95 JUMP JUMPDEST SWAP3 SWAP2 POP POP JUMP JUMPDEST PUSH1 0x0 DUP3 PUSH1 0x1F DUP4 ADD SLT PUSH3 0x701 JUMPI PUSH1 0x0 DUP1 REVERT JUMPDEST DUP2 CALLDATALOAD PUSH3 0x713 DUP5 DUP3 PUSH1 0x20 DUP7 ADD PUSH3 0x693 JUMP JUMPDEST SWAP2 POP POP SWAP3 SWAP2 POP POP JUMP JUMPDEST PUSH1 0x0 DUP2 CALLDATALOAD SWAP1 POP PUSH3 0x72D DUP2 PUSH3 0xBAF JUMP JUMPDEST SWAP3 SWAP2 POP POP JUMP JUMPDEST PUSH1 0x0 PUSH1 0x20 DUP3 DUP5 SUB SLT ISZERO PUSH3 0x746 JUMPI PUSH1 0x0 DUP1 REVERT JUMPDEST PUSH1 0x0 PUSH3 0x756 DUP5 DUP3 DUP6 ADD PUSH3 0x6D8 JUMP JUMPDEST SWAP2 POP POP SWAP3 SWAP2 POP POP JUMP JUMPDEST PUSH1 0x0 DUP1 PUSH1 0x40 DUP4 DUP6 SUB SLT ISZERO PUSH3 0x773 JUMPI PUSH1 0x0 DUP1 REVERT JUMPDEST PUSH1 0x0 PUSH3 0x783 DUP6 DUP3 DUP7 ADD PUSH3 0x6D8 JUMP JUMPDEST SWAP3 POP POP PUSH1 0x20 PUSH3 0x796 DUP6 DUP3 DUP7 ADD PUSH3 0x71C JUMP JUMPDEST SWAP2 POP POP SWAP3 POP SWAP3 SWAP1 POP JUMP JUMPDEST PUSH1 0x0 PUSH1 0x20 DUP3 DUP5 SUB SLT ISZERO PUSH3 0x7B3 JUMPI PUSH1 0x0 DUP1 REVERT JUMPDEST PUSH1 0x0 PUSH3 0x7C3 DUP5 DUP3 DUP6 ADD PUSH3 0x71C JUMP JUMPDEST SWAP2 POP POP SWAP3 SWAP2 POP POP JUMP JUMPDEST PUSH1 0x0 DUP1 PUSH1 0x0 PUSH1 0x60 DUP5 DUP7 SUB SLT ISZERO PUSH3 0x7E2 JUMPI PUSH1 0x0 DUP1 REVERT JUMPDEST PUSH1 0x0 PUSH3 0x7F2 DUP7 DUP3 DUP8 ADD PUSH3 0x71C JUMP JUMPDEST SWAP4 POP POP PUSH1 0x20 DUP5 ADD CALLDATALOAD PUSH8 0xFFFFFFFFFFFFFFFF DUP2 GT ISZERO PUSH3 0x810 JUMPI PUSH1 0x0 DUP1 REVERT JUMPDEST PUSH3 0x81E DUP7 DUP3 DUP8 ADD PUSH3 0x6EF JUMP JUMPDEST SWAP3 POP POP PUSH1 0x40 DUP5 ADD CALLDATALOAD PUSH8 0xFFFFFFFFFFFFFFFF DUP2 GT ISZERO PUSH3 0x83C JUMPI PUSH1 0x0 DUP1 REVERT JUMPDEST PUSH3 0x84A DUP7 DUP3 DUP8 ADD PUSH3 0x6EF JUMP JUMPDEST SWAP2 POP POP SWAP3 POP SWAP3 POP SWAP3 JUMP JUMPDEST PUSH1 0x0 PUSH3 0x862 DUP4 DUP4 PUSH3 0x86E JUMP JUMPDEST PUSH1 0x20 DUP4 ADD SWAP1 POP SWAP3 SWAP2 POP POP JUMP JUMPDEST PUSH3 0x879 DUP2 PUSH3 0xA9C JUMP JUMPDEST DUP3 MSTORE POP POP JUMP JUMPDEST PUSH3 0x88A DUP2 PUSH3 0xA9C JUMP JUMPDEST DUP3 MSTORE POP POP JUMP JUMPDEST PUSH1 0x0 PUSH3 0x89D DUP3 PUSH3 0xA57 JUMP JUMPDEST PUSH3 0x8A9 DUP2 DUP6 PUSH3 0xA7A JUMP JUMPDEST SWAP4 POP PUSH3 0x8B6 DUP4 PUSH3 0xA47 JUMP JUMPDEST DUP1 PUSH1 0x0 JUMPDEST DUP4 DUP2 LT ISZERO PUSH3 0x8ED JUMPI DUP2 MLOAD PUSH3 0x8D1 DUP9 DUP3 PUSH3 0x854 JUMP JUMPDEST SWAP8 POP PUSH3 0x8DE DUP4 PUSH3 0xA6D JUMP JUMPDEST SWAP3 POP POP PUSH1 0x1 DUP2 ADD SWAP1 POP PUSH3 0x8BA JUMP JUMPDEST POP DUP6 SWAP4 POP POP POP POP SWAP3 SWAP2 POP POP JUMP JUMPDEST PUSH1 0x0 PUSH3 0x907 DUP3 PUSH3 0xA62 JUMP JUMPDEST PUSH3 0x913 DUP2 DUP6 PUSH3 0xA8B JUMP JUMPDEST SWAP4 POP PUSH3 0x925 DUP2 DUP6 PUSH1 0x20 DUP7 ADD PUSH3 0xAE9 JUMP JUMPDEST PUSH3 0x930 DUP2 PUSH3 0xB84 JUMP JUMPDEST DUP5 ADD SWAP2 POP POP SWAP3 SWAP2 POP POP JUMP JUMPDEST PUSH3 0x946 DUP2 PUSH3 0xAD0 JUMP JUMPDEST DUP3 MSTORE POP POP JUMP JUMPDEST PUSH1 0x0 PUSH1 0x20 DUP3 ADD SWAP1 POP PUSH3 0x963 PUSH1 0x0 DUP4 ADD DUP5 PUSH3 0x87F JUMP JUMPDEST SWAP3 SWAP2 POP POP JUMP JUMPDEST PUSH1 0x0 PUSH1 0x20 DUP3 ADD SWAP1 POP DUP2 DUP2 SUB PUSH1 0x0 DUP4 ADD MSTORE PUSH3 0x985 DUP2 DUP5 PUSH3 0x890 JUMP JUMPDEST SWAP1 POP SWAP3 SWAP2 POP POP JUMP JUMPDEST PUSH1 0x0 PUSH1 0x80 DUP3 ADD SWAP1 POP PUSH3 0x9A4 PUSH1 0x0 DUP4 ADD DUP8 PUSH3 0x93B JUMP JUMPDEST DUP2 DUP2 SUB PUSH1 0x20 DUP4 ADD MSTORE PUSH3 0x9B8 DUP2 DUP7 PUSH3 0x8FA JUMP JUMPDEST SWAP1 POP DUP2 DUP2 SUB PUSH1 0x40 DUP4 ADD MSTORE PUSH3 0x9CE DUP2 DUP6 PUSH3 0x8FA JUMP JUMPDEST SWAP1 POP PUSH3 0x9DF PUSH1 0x60 DUP4 ADD DUP5 PUSH3 0x87F JUMP JUMPDEST SWAP6 SWAP5 POP POP POP POP POP JUMP JUMPDEST PUSH1 0x0 PUSH3 0x9F4 PUSH3 0xA07 JUMP JUMPDEST SWAP1 POP PUSH3 0xA02 DUP3 DUP3 PUSH3 0xB1F JUMP JUMPDEST SWAP2 SWAP1 POP JUMP JUMPDEST PUSH1 0x0 PUSH1 0x40 MLOAD SWAP1 POP SWAP1 JUMP JUMPDEST PUSH1 0x0 PUSH8 0xFFFFFFFFFFFFFFFF DUP3 GT ISZERO PUSH3 0xA2F JUMPI PUSH3 0xA2E PUSH3 0xB55 JUMP JUMPDEST JUMPDEST PUSH3 0xA3A DUP3 PUSH3 0xB84 JUMP JUMPDEST SWAP1 POP PUSH1 0x20 DUP2 ADD SWAP1 POP SWAP2 SWAP1 POP JUMP JUMPDEST PUSH1 0x0 DUP2 SWAP1 POP PUSH1 0x20 DUP3 ADD SWAP1 POP SWAP2 SWAP1 POP JUMP JUMPDEST PUSH1 0x0 DUP2 MLOAD SWAP1 POP SWAP2 SWAP1 POP JUMP JUMPDEST PUSH1 0x0 DUP2 MLOAD SWAP1 POP SWAP2 SWAP1 POP JUMP JUMPDEST PUSH1 0x0 PUSH1 0x20 DUP3 ADD SWAP1 POP SWAP2 SWAP1 POP JUMP JUMPDEST PUSH1 0x0 DUP3 DUP3 MSTORE PUSH1 0x20 DUP3 ADD SWAP1 POP SWAP3 SWAP2 POP POP JUMP JUMPDEST PUSH1 0x0 DUP3 DUP3 MSTORE PUSH1 0x20 DUP3 ADD SWAP1 POP SWAP3 SWAP2 POP POP JUMP JUMPDEST PUSH1 0x0 PUSH3 0xAA9 DUP3 PUSH3 0xAB0 JUMP JUMPDEST SWAP1 POP SWAP2 SWAP1 POP JUMP JUMPDEST PUSH1 0x0 PUSH20 0xFFFFFFFFFFFFFFFFFFFFFFFFFFFFFFFFFFFFFFFF DUP3 AND SWAP1 POP SWAP2 SWAP1 POP JUMP JUMPDEST PUSH1 0x0 DUP2 SWAP1 POP SWAP2 SWAP1 POP JUMP JUMPDEST DUP3 DUP2 DUP4 CALLDATACOPY PUSH1 0x0 DUP4 DUP4 ADD MSTORE POP POP POP JUMP JUMPDEST PUSH1 0x0 JUMPDEST DUP4 DUP2 LT ISZERO PUSH3 0xB09 JUMPI DUP1 DUP3 ADD MLOAD DUP2 DUP5 ADD MSTORE PUSH1 0x20 DUP2 ADD SWAP1 POP PUSH3 0xAEC JUMP JUMPDEST DUP4 DUP2 GT ISZERO PUSH3 0xB19 JUMPI PUSH1 0x0 DUP5 DUP5 ADD MSTORE JUMPDEST POP POP POP POP JUMP JUMPDEST PUSH3 0xB2A DUP3 PUSH3 0xB84 JUMP JUMPDEST DUP2 ADD DUP2 DUP2 LT PUSH8 0xFFFFFFFFFFFFFFFF DUP3 GT OR ISZERO PUSH3 0xB4C JUMPI PUSH3 0xB4B PUSH3 0xB55 JUMP JUMPDEST JUMPDEST DUP1 PUSH1 0x40 MSTORE POP POP POP JUMP JUMPDEST PUSH32 0x4E487B7100000000000000000000000000000000000000000000000000000000 PUSH1 0x0 MSTORE PUSH1 0x41 PUSH1 0x4 MSTORE PUSH1 0x24 PUSH1 0x0 REVERT JUMPDEST PUSH1 0x0 PUSH1 0x1F NOT PUSH1 0x1F DUP4 ADD AND SWAP1 POP SWAP2 SWAP1 POP JUMP JUMPDEST PUSH3 0xBA0 DUP2 PUSH3 0xA9C JUMP JUMPDEST DUP2 EQ PUSH3 0xBAC JUMPI PUSH1 0x0 DUP1 REVERT JUMPDEST POP JUMP JUMPDEST PUSH3 0xBBA DUP2 PUSH3 0xAD0 JUMP JUMPDEST DUP2 EQ PUSH3 0xBC6 JUMPI PUSH1 0x0 DUP1 REVERT JUMPDEST POP JUMP INVALID PUSH1 0x80 PUSH1 0x40 MSTORE CALLVALUE DUP1 ISZERO PUSH3 0x11 JUMPI PUSH1 0x0 DUP1 REVERT JUMPDEST POP PUSH1 0x40 MLOAD PUSH3 0x2201 CODESIZE SUB DUP1 PUSH3 0x2201 DUP4 CODECOPY DUP2 DUP2 ADD PUSH1 0x40 MSTORE DUP2 ADD SWAP1 PUSH3 0x37 SWAP2 SWAP1 PUSH3 0x213 JUMP JUMPDEST PUSH1 0x0 PUSH1 0x2 DUP2 SWAP1 SSTORE POP DUP1 PUSH1 0x3 PUSH1 0x0 PUSH2 0x100 EXP DUP2 SLOAD DUP2 PUSH20 0xFFFFFFFFFFFFFFFFFFFFFFFFFFFFFFFFFFFFFFFF MUL NOT AND SWAP1 DUP4 PUSH20 0xFFFFFFFFFFFFFFFFFFFFFFFFFFFFFFFFFFFFFFFF AND MUL OR SWAP1 SSTORE POP DUP4 PUSH1 0x6 DUP2 SWAP1 SSTORE POP DUP3 PUSH1 0x4 SWAP1 DUP1 MLOAD SWAP1 PUSH1 0x20 ADD SWAP1 PUSH3 0x9F SWAP3 SWAP2 SWAP1 PUSH3 0xC3 JUMP JUMPDEST POP DUP2 PUSH1 0x5 SWAP1 DUP1 MLOAD SWAP1 PUSH1 0x20 ADD SWAP1 PUSH3 0xB8 SWAP3 SWAP2 SWAP1 PUSH3 0xC3 JUMP JUMPDEST POP POP POP POP POP PUSH3 0x493 JUMP JUMPDEST DUP3 DUP1 SLOAD PUSH3 0xD1 SWAP1 PUSH3 0x384 JUMP JUMPDEST SWAP1 PUSH1 0x0 MSTORE PUSH1 0x20 PUSH1 0x0 KECCAK256 SWAP1 PUSH1 0x1F ADD PUSH1 0x20 SWAP1 DIV DUP2 ADD SWAP3 DUP3 PUSH3 0xF5 JUMPI PUSH1 0x0 DUP6 SSTORE PUSH3 0x141 JUMP JUMPDEST DUP3 PUSH1 0x1F LT PUSH3 0x110 JUMPI DUP1 MLOAD PUSH1 0xFF NOT AND DUP4 DUP1 ADD OR DUP6 SSTORE PUSH3 0x141 JUMP JUMPDEST DUP3 DUP1 ADD PUSH1 0x1 ADD DUP6 SSTORE DUP3 ISZERO PUSH3 0x141 JUMPI SWAP2 DUP3 ADD JUMPDEST DUP3 DUP2 GT ISZERO PUSH3 0x140 JUMPI DUP3 MLOAD DUP3 SSTORE SWAP2 PUSH1 0x20 ADD SWAP2 SWAP1 PUSH1 0x1 ADD SWAP1 PUSH3 0x123 JUMP JUMPDEST JUMPDEST POP SWAP1 POP PUSH3 0x150 SWAP2 SWAP1 PUSH3 0x154 JUMP JUMPDEST POP SWAP1 JUMP JUMPDEST JUMPDEST DUP1 DUP3 GT ISZERO PUSH3 0x16F JUMPI PUSH1 0x0 DUP2 PUSH1 0x0 SWAP1 SSTORE POP PUSH1 0x1 ADD PUSH3 0x155 JUMP JUMPDEST POP SWAP1 JUMP JUMPDEST PUSH1 0x0 PUSH3 0x18A PUSH3 0x184 DUP5 PUSH3 0x2DA JUMP JUMPDEST PUSH3 0x2B1 JUMP JUMPDEST SWAP1 POP DUP3 DUP2 MSTORE PUSH1 0x20 DUP2 ADD DUP5 DUP5 DUP5 ADD GT ISZERO PUSH3 0x1A3 JUMPI PUSH1 0x0 DUP1 REVERT JUMPDEST PUSH3 0x1B0 DUP5 DUP3 DUP6 PUSH3 0x34E JUMP JUMPDEST POP SWAP4 SWAP3 POP POP POP JUMP JUMPDEST PUSH1 0x0 DUP2 MLOAD SWAP1 POP PUSH3 0x1C9 DUP2 PUSH3 0x45F JUMP JUMPDEST SWAP3 SWAP2 POP POP JUMP JUMPDEST PUSH1 0x0 DUP3 PUSH1 0x1F DUP4 ADD SLT PUSH3 0x1E1 JUMPI PUSH1 0x0 DUP1 REVERT JUMPDEST DUP2 MLOAD PUSH3 0x1F3 DUP5 DUP3 PUSH1 0x20 DUP7 ADD PUSH3 0x173 JUMP JUMPDEST SWAP2 POP POP SWAP3 SWAP2 POP POP JUMP JUMPDEST PUSH1 0x0 DUP2 MLOAD SWAP1 POP PUSH3 0x20D DUP2 PUSH3 0x479 JUMP JUMPDEST SWAP3 SWAP2 POP POP JUMP JUMPDEST PUSH1 0x0 DUP1 PUSH1 0x0 DUP1 PUSH1 0x80 DUP6 DUP8 SUB SLT ISZERO PUSH3 0x22A JUMPI PUSH1 0x0 DUP1 REVERT JUMPDEST PUSH1 0x0 PUSH3 0x23A DUP8 DUP3 DUP9 ADD PUSH3 0x1FC JUMP JUMPDEST SWAP5 POP POP PUSH1 0x20 DUP6 ADD MLOAD PUSH8 0xFFFFFFFFFFFFFFFF DUP2 GT ISZERO PUSH3 0x258 JUMPI PUSH1 0x0 DUP1 REVERT JUMPDEST PUSH3 0x266 DUP8 DUP3 DUP9 ADD PUSH3 0x1CF JUMP JUMPDEST SWAP4 POP POP PUSH1 0x40 DUP6 ADD MLOAD PUSH8 0xFFFFFFFFFFFFFFFF DUP2 GT ISZERO PUSH3 0x284 JUMPI PUSH1 0x0 DUP1 REVERT JUMPDEST PUSH3 0x292 DUP8 DUP3 DUP9 ADD PUSH3 0x1CF JUMP JUMPDEST SWAP3 POP POP PUSH1 0x60 PUSH3 0x2A5 DUP8 DUP3 DUP9 ADD PUSH3 0x1B8 JUMP JUMPDEST SWAP2 POP POP SWAP3 SWAP6 SWAP2 SWAP5 POP SWAP3 POP JUMP JUMPDEST PUSH1 0x0 PUSH3 0x2BD PUSH3 0x2D0 JUMP JUMPDEST SWAP1 POP PUSH3 0x2CB DUP3 DUP3 PUSH3 0x3BA JUMP JUMPDEST SWAP2 SWAP1 POP JUMP JUMPDEST PUSH1 0x0 PUSH1 0x40 MLOAD SWAP1 POP SWAP1 JUMP JUMPDEST PUSH1 0x0 PUSH8 0xFFFFFFFFFFFFFFFF DUP3 GT ISZERO PUSH3 0x2F8 JUMPI PUSH3 0x2F7 PUSH3 0x41F JUMP JUMPDEST JUMPDEST PUSH3 0x303 DUP3 PUSH3 0x44E JUMP JUMPDEST SWAP1 POP PUSH1 0x20 DUP2 ADD SWAP1 POP SWAP2 SWAP1 POP JUMP JUMPDEST PUSH1 0x0 PUSH3 0x31D DUP3 PUSH3 0x324 JUMP JUMPDEST SWAP1 POP SWAP2 SWAP1 POP JUMP JUMPDEST PUSH1 0x0 PUSH20 0xFFFFFFFFFFFFFFFFFFFFFFFFFFFFFFFFFFFFFFFF DUP3 AND SWAP1 POP SWAP2 SWAP1 POP JUMP JUMPDEST PUSH1 0x0 DUP2 SWAP1 POP SWAP2 SWAP1 POP JUMP JUMPDEST PUSH1 0x0 JUMPDEST DUP4 DUP2 LT ISZERO PUSH3 0x36E JUMPI DUP1 DUP3 ADD MLOAD DUP2 DUP5 ADD MSTORE PUSH1 0x20 DUP2 ADD SWAP1 POP PUSH3 0x351 JUMP JUMPDEST DUP4 DUP2 GT ISZERO PUSH3 0x37E JUMPI PUSH1 0x0 DUP5 DUP5 ADD MSTORE JUMPDEST POP POP POP POP JUMP JUMPDEST PUSH1 0x0 PUSH1 0x2 DUP3 DIV SWAP1 POP PUSH1 0x1 DUP3 AND DUP1 PUSH3 0x39D JUMPI PUSH1 0x7F DUP3 AND SWAP2 POP JUMPDEST PUSH1 0x20 DUP3 LT DUP2 EQ ISZERO PUSH3 0x3B4 JUMPI PUSH3 0x3B3 PUSH3 0x3F0 JUMP JUMPDEST JUMPDEST POP SWAP2 SWAP1 POP JUMP JUMPDEST PUSH3 0x3C5 DUP3 PUSH3 0x44E JUMP JUMPDEST DUP2 ADD DUP2 DUP2 LT PUSH8 0xFFFFFFFFFFFFFFFF DUP3 GT OR ISZERO PUSH3 0x3E7 JUMPI PUSH3 0x3E6 PUSH3 0x41F JUMP JUMPDEST JUMPDEST DUP1 PUSH1 0x40 MSTORE POP POP POP JUMP JUMPDEST PUSH32 0x4E487B7100000000000000000000000000000000000000000000000000000000 PUSH1 0x0 MSTORE PUSH1 0x22 PUSH1 0x4 MSTORE PUSH1 0x24 PUSH1 0x0 REVERT JUMPDEST PUSH32 0x4E487B7100000000000000000000000000000000000000000000000000000000 PUSH1 0x0 MSTORE PUSH1 0x41 PUSH1 0x4 MSTORE PUSH1 0x24 PUSH1 0x0 REVERT JUMPDEST PUSH1 0x0 PUSH1 0x1F NOT PUSH1 0x1F DUP4 ADD AND SWAP1 POP SWAP2 SWAP1 POP JUMP JUMPDEST PUSH3 0x46A DUP2 PUSH3 0x310 JUMP JUMPDEST DUP2 EQ PUSH3 0x476 JUMPI PUSH1 0x0 DUP1 REVERT JUMPDEST POP JUMP JUMPDEST PUSH3 0x484 DUP2 PUSH3 0x344 JUMP JUMPDEST DUP2 EQ PUSH3 0x490 JUMPI PUSH1 0x0 DUP1 REVERT JUMPDEST POP JUMP JUMPDEST PUSH2 0x1D5E DUP1 PUSH3 0x4A3 PUSH1 0x0 CODECOPY PUSH1 0x0 RETURN INVALID PUSH1 0x80 PUSH1 0x40 MSTORE PUSH1 0x4 CALLDATASIZE LT PUSH2 0xE8 JUMPI PUSH1 0x0 CALLDATALOAD PUSH1 0xE0 SHR DUP1 PUSH4 0x8A9CFD55 GT PUSH2 0x8A JUMPI DUP1 PUSH4 0xD7BB99BA GT PUSH2 0x59 JUMPI DUP1 PUSH4 0xD7BB99BA EQ PUSH2 0x2F0 JUMPI DUP1 PUSH4 0xD7D1BBDB EQ PUSH2 0x2FA JUMPI DUP1 PUSH4 0xF34D4C63 EQ PUSH2 0x323 JUMPI DUP1 PUSH4 0xFBFA4B7F EQ PUSH2 0x364 JUMPI PUSH2 0xE8 JUMP JUMPDEST DUP1 PUSH4 0x8A9CFD55 EQ PUSH2 0x240 JUMPI DUP1 PUSH4 0x937E09B1 EQ PUSH2 0x269 JUMPI DUP1 PUSH4 0xA00C96D7 EQ PUSH2 0x294 JUMPI DUP1 PUSH4 0xBFEBA227 EQ PUSH2 0x2C5 JUMPI PUSH2 0xE8 JUMP JUMPDEST DUP1 PUSH4 0x481C6A75 GT PUSH2 0xC6 JUMPI DUP1 PUSH4 0x481C6A75 EQ PUSH2 0x17E JUMPI DUP1 PUSH4 0x81D12C58 EQ PUSH2 0x1A9 JUMPI DUP1 PUSH4 0x82FDE093 EQ PUSH2 0x1EA JUMPI DUP1 PUSH4 0x835A6172 EQ PUSH2 0x215 JUMPI PUSH2 0xE8 JUMP JUMPDEST DUP1 PUSH4 0x3441006 EQ PUSH2 0xED JUMPI DUP1 PUSH4 0xA144391 EQ PUSH2 0x116 JUMPI DUP1 PUSH4 0x110842CB EQ PUSH2 0x153 JUMPI JUMPDEST PUSH1 0x0 DUP1 REVERT JUMPDEST CALLVALUE DUP1 ISZERO PUSH2 0xF9 JUMPI PUSH1 0x0 DUP1 REVERT JUMPDEST POP PUSH2 0x114 PUSH1 0x4 DUP1 CALLDATASIZE SUB DUP2 ADD SWAP1 PUSH2 0x10F SWAP2 SWAP1 PUSH2 0x1232 JUMP JUMPDEST PUSH2 0x38F JUMP JUMPDEST STOP JUMPDEST CALLVALUE DUP1 ISZERO PUSH2 0x122 JUMPI PUSH1 0x0 DUP1 REVERT JUMPDEST POP PUSH2 0x13D PUSH1 0x4 DUP1 CALLDATASIZE SUB DUP2 ADD SWAP1 PUSH2 0x138 SWAP2 SWAP1 PUSH2 0x11A2 JUMP JUMPDEST PUSH2 0x5F7 JUMP JUMPDEST PUSH1 0x40 MLOAD PUSH2 0x14A SWAP2 SWAP1 PUSH2 0x1472 JUMP JUMPDEST PUSH1 0x40 MLOAD DUP1 SWAP2 SUB SWAP1 RETURN JUMPDEST CALLVALUE DUP1 ISZERO PUSH2 0x15F JUMPI PUSH1 0x0 DUP1 REVERT JUMPDEST POP PUSH2 0x168 PUSH2 0x617 JUMP JUMPDEST PUSH1 0x40 MLOAD PUSH2 0x175 SWAP2 SWAP1 PUSH2 0x148D JUMP JUMPDEST PUSH1 0x40 MLOAD DUP1 SWAP2 SUB SWAP1 RETURN JUMPDEST CALLVALUE DUP1 ISZERO PUSH2 0x18A JUMPI PUSH1 0x0 DUP1 REVERT JUMPDEST POP PUSH2 0x193 PUSH2 0x6A5 JUMP JUMPDEST PUSH1 0x40 MLOAD PUSH2 0x1A0 SWAP2 SWAP1 PUSH2 0x1457 JUMP JUMPDEST PUSH1 0x40 MLOAD DUP1 SWAP2 SUB SWAP1 RETURN JUMPDEST CALLVALUE DUP1 ISZERO PUSH2 0x1B5 JUMPI PUSH1 0x0 DUP1 REVERT JUMPDEST POP PUSH2 0x1D0 PUSH1 0x4 DUP1 CALLDATASIZE SUB DUP2 ADD SWAP1 PUSH2 0x1CB SWAP2 SWAP1 PUSH2 0x1232 JUMP JUMPDEST PUSH2 0x6CB JUMP JUMPDEST PUSH1 0x40 MLOAD PUSH2 0x1E1 SWAP6 SWAP5 SWAP4 SWAP3 SWAP2 SWAP1 PUSH2 0x14AF JUMP JUMPDEST PUSH1 0x40 MLOAD DUP1 SWAP2 SUB SWAP1 RETURN JUMPDEST CALLVALUE DUP1 ISZERO PUSH2 0x1F6 JUMPI PUSH1 0x0 DUP1 REVERT JUMPDEST POP PUSH2 0x1FF PUSH2 0x7B6 JUMP JUMPDEST PUSH1 0x40 MLOAD PUSH2 0x20C SWAP2 SWAP1 PUSH2 0x16A3 JUMP JUMPDEST PUSH1 0x40 MLOAD DUP1 SWAP2 SUB SWAP1 RETURN JUMPDEST CALLVALUE DUP1 ISZERO PUSH2 0x221 JUMPI PUSH1 0x0 DUP1 REVERT JUMPDEST POP PUSH2 0x22A PUSH2 0x7BC JUMP JUMPDEST PUSH1 0x40 MLOAD PUSH2 0x237 SWAP2 SWAP1 PUSH2 0x148D JUMP JUMPDEST PUSH1 0x40 MLOAD DUP1 SWAP2 SUB SWAP1 RETURN JUMPDEST CALLVALUE DUP1 ISZERO PUSH2 0x24C JUMPI PUSH1 0x0 DUP1 REVERT JUMPDEST POP PUSH2 0x267 PUSH1 0x4 DUP1 CALLDATASIZE SUB DUP2 ADD SWAP1 PUSH2 0x262 SWAP2 SWAP1 PUSH2 0x11CB JUMP JUMPDEST PUSH2 0x84A JUMP JUMPDEST STOP JUMPDEST CALLVALUE DUP1 ISZERO PUSH2 0x275 JUMPI PUSH1 0x0 DUP1 REVERT JUMPDEST POP PUSH2 0x27E PUSH2 0x9DA JUMP JUMPDEST PUSH1 0x40 MLOAD PUSH2 0x28B SWAP2 SWAP1 PUSH2 0x16A3 JUMP JUMPDEST PUSH1 0x40 MLOAD DUP1 SWAP2 SUB SWAP1 RETURN JUMPDEST CALLVALUE DUP1 ISZERO PUSH2 0x2A0 JUMPI PUSH1 0x0 DUP1 REVERT JUMPDEST POP PUSH2 0x2A9 PUSH2 0x9E0 JUMP JUMPDEST PUSH1 0x40 MLOAD PUSH2 0x2BC SWAP8 SWAP7 SWAP6 SWAP5 SWAP4 SWAP3 SWAP2 SWAP1 PUSH2 0x16BE JUMP JUMPDEST PUSH1 0x40 MLOAD DUP1 SWAP2 SUB SWAP1 RETURN JUMPDEST CALLVALUE DUP1 ISZERO PUSH2 0x2D1 JUMPI PUSH1 0x0 DUP1 REVERT JUMPDEST POP PUSH2 0x2DA PUSH2 0xBC8 JUMP JUMPDEST PUSH1 0x40 MLOAD PUSH2 0x2E7 SWAP2 SWAP1 PUSH2 0x16A3 JUMP JUMPDEST PUSH1 0x40 MLOAD DUP1 SWAP2 SUB SWAP1 RETURN JUMPDEST PUSH2 0x2F8 PUSH2 0xBD0 JUMP JUMPDEST STOP JUMPDEST CALLVALUE DUP1 ISZERO PUSH2 0x306 JUMPI PUSH1 0x0 DUP1 REVERT JUMPDEST POP PUSH2 0x321 PUSH1 0x4 DUP1 CALLDATASIZE SUB DUP2 ADD SWAP1 PUSH2 0x31C SWAP2 SWAP1 PUSH2 0x1232 JUMP JUMPDEST PUSH2 0xCE0 JUMP JUMPDEST STOP JUMPDEST CALLVALUE DUP1 ISZERO PUSH2 0x32F JUMPI PUSH1 0x0 DUP1 REVERT JUMPDEST POP PUSH2 0x34A PUSH1 0x4 DUP1 CALLDATASIZE SUB DUP2 ADD SWAP1 PUSH2 0x345 SWAP2 SWAP1 PUSH2 0x1232 JUMP JUMPDEST PUSH2 0xF1F JUMP JUMPDEST PUSH1 0x40 MLOAD PUSH2 0x35B SWAP6 SWAP5 SWAP4 SWAP3 SWAP2 SWAP1 PUSH2 0x1509 JUMP JUMPDEST PUSH1 0x40 MLOAD DUP1 SWAP2 SUB SWAP1 RETURN JUMPDEST CALLVALUE DUP1 ISZERO PUSH2 0x370 JUMPI PUSH1 0x0 DUP1 REVERT JUMPDEST POP PUSH2 0x379 PUSH2 0x103D JUMP JUMPDEST PUSH1 0x40 MLOAD PUSH2 0x386 SWAP2 SWAP1 PUSH2 0x16A3 JUMP JUMPDEST PUSH1 0x40 MLOAD DUP1 SWAP2 SUB SWAP1 RETURN JUMPDEST PUSH1 0x3 PUSH1 0x0 SWAP1 SLOAD SWAP1 PUSH2 0x100 EXP SWAP1 DIV PUSH20 0xFFFFFFFFFFFFFFFFFFFFFFFFFFFFFFFFFFFFFFFF AND PUSH20 0xFFFFFFFFFFFFFFFFFFFFFFFFFFFFFFFFFFFFFFFF AND CALLER PUSH20 0xFFFFFFFFFFFFFFFFFFFFFFFFFFFFFFFFFFFFFFFF AND EQ PUSH2 0x41F JUMPI PUSH1 0x40 MLOAD PUSH32 0x8C379A000000000000000000000000000000000000000000000000000000000 DUP2 MSTORE PUSH1 0x4 ADD PUSH2 0x416 SWAP1 PUSH2 0x15C3 JUMP JUMPDEST PUSH1 0x40 MLOAD DUP1 SWAP2 SUB SWAP1 REVERT JUMPDEST PUSH1 0x0 DUP1 PUSH1 0x0 DUP4 DUP2 MSTORE PUSH1 0x20 ADD SWAP1 DUP2 MSTORE PUSH1 0x20 ADD PUSH1 0x0 KECCAK256 SWAP1 POP PUSH1 0x2 SLOAD DUP3 LT PUSH2 0x479 JUMPI PUSH1 0x40 MLOAD PUSH32 0x8C379A000000000000000000000000000000000000000000000000000000000 DUP2 MSTORE PUSH1 0x4 ADD PUSH2 0x470 SWAP1 PUSH2 0x15A3 JUMP JUMPDEST PUSH1 0x40 MLOAD DUP1 SWAP2 SUB SWAP1 REVERT JUMPDEST DUP1 PUSH1 0x2 ADD PUSH1 0x14 SWAP1 SLOAD SWAP1 PUSH2 0x100 EXP SWAP1 DIV PUSH1 0xFF AND ISZERO PUSH2 0x4CB JUMPI PUSH1 0x40 MLOAD PUSH32 0x8C379A000000000000000000000000000000000000000000000000000000000 DUP2 MSTORE PUSH1 0x4 ADD PUSH2 0x4C2 SWAP1 PUSH2 0x1583 JUMP JUMPDEST PUSH1 0x40 MLOAD DUP1 SWAP2 SUB SWAP1 REVERT JUMPDEST PUSH1 0x1 DUP2 PUSH1 0x3 ADD SLOAD LT ISZERO PUSH2 0x513 JUMPI PUSH1 0x40 MLOAD PUSH32 0x8C379A000000000000000000000000000000000000000000000000000000000 DUP2 MSTORE PUSH1 0x4 ADD PUSH2 0x50A SWAP1 PUSH2 0x1563 JUMP JUMPDEST PUSH1 0x40 MLOAD DUP1 SWAP2 SUB SWAP1 REVERT JUMPDEST PUSH1 0x2 PUSH1 0x7 SLOAD PUSH2 0x522 SWAP2 SWAP1 PUSH2 0x17AD JUMP JUMPDEST DUP2 PUSH1 0x3 ADD SLOAD GT PUSH2 0x567 JUMPI PUSH1 0x40 MLOAD PUSH32 0x8C379A000000000000000000000000000000000000000000000000000000000 DUP2 MSTORE PUSH1 0x4 ADD PUSH2 0x55E SWAP1 PUSH2 0x1683 JUMP JUMPDEST PUSH1 0x40 MLOAD DUP1 SWAP2 SUB SWAP1 REVERT JUMPDEST PUSH1 0x1 DUP2 PUSH1 0x2 ADD PUSH1 0x14 PUSH2 0x100 EXP DUP2 SLOAD DUP2 PUSH1 0xFF MUL NOT AND SWAP1 DUP4 ISZERO ISZERO MUL OR SWAP1 SSTORE POP DUP1 PUSH1 0x2 ADD PUSH1 0x0 SWAP1 SLOAD SWAP1 PUSH2 0x100 EXP SWAP1 DIV PUSH20 0xFFFFFFFFFFFFFFFFFFFFFFFFFFFFFFFFFFFFFFFF AND PUSH20 0xFFFFFFFFFFFFFFFFFFFFFFFFFFFFFFFFFFFFFFFF AND PUSH2 0x8FC DUP3 PUSH1 0x1 ADD SLOAD SWAP1 DUP2 ISZERO MUL SWAP1 PUSH1 0x40 MLOAD PUSH1 0x0 PUSH1 0x40 MLOAD DUP1 DUP4 SUB DUP2 DUP6 DUP9 DUP9 CALL SWAP4 POP POP POP POP ISZERO DUP1 ISZERO PUSH2 0x5F2 JUMPI RETURNDATASIZE PUSH1 0x0 DUP1 RETURNDATACOPY RETURNDATASIZE PUSH1 0x0 REVERT JUMPDEST POP POP POP JUMP JUMPDEST PUSH1 0x1 PUSH1 0x20 MSTORE DUP1 PUSH1 0x0 MSTORE PUSH1 0x40 PUSH1 0x0 KECCAK256 PUSH1 0x0 SWAP2 POP SLOAD SWAP1 PUSH2 0x100 EXP SWAP1 DIV PUSH1 0xFF AND DUP2 JUMP JUMPDEST PUSH1 0x5 DUP1 SLOAD PUSH2 0x624 SWAP1 PUSH2 0x187A JUMP JUMPDEST DUP1 PUSH1 0x1F ADD PUSH1 0x20 DUP1 SWAP2 DIV MUL PUSH1 0x20 ADD PUSH1 0x40 MLOAD SWAP1 DUP2 ADD PUSH1 0x40 MSTORE DUP1 SWAP3 SWAP2 SWAP1 DUP2 DUP2 MSTORE PUSH1 0x20 ADD DUP3 DUP1 SLOAD PUSH2 0x650 SWAP1 PUSH2 0x187A JUMP JUMPDEST DUP1 ISZERO PUSH2 0x69D JUMPI DUP1 PUSH1 0x1F LT PUSH2 0x672 JUMPI PUSH2 0x100 DUP1 DUP4 SLOAD DIV MUL DUP4 MSTORE SWAP2 PUSH1 0x20 ADD SWAP2 PUSH2 0x69D JUMP JUMPDEST DUP3 ADD SWAP2 SWAP1 PUSH1 0x0 MSTORE PUSH1 0x20 PUSH1 0x0 KECCAK256 SWAP1 JUMPDEST DUP2 SLOAD DUP2 MSTORE SWAP1 PUSH1 0x1 ADD SWAP1 PUSH1 0x20 ADD DUP1 DUP4 GT PUSH2 0x680 JUMPI DUP3 SWAP1 SUB PUSH1 0x1F AND DUP3 ADD SWAP2 JUMPDEST POP POP POP POP POP DUP2 JUMP JUMPDEST PUSH1 0x3 PUSH1 0x0 SWAP1 SLOAD SWAP1 PUSH2 0x100 EXP SWAP1 DIV PUSH20 0xFFFFFFFFFFFFFFFFFFFFFFFFFFFFFFFFFFFFFFFF AND DUP2 JUMP JUMPDEST PUSH1 0x0 PUSH1 0x20 MSTORE DUP1 PUSH1 0x0 MSTORE PUSH1 0x40 PUSH1 0x0 KECCAK256 PUSH1 0x0 SWAP2 POP SWAP1 POP DUP1 PUSH1 0x0 ADD DUP1 SLOAD PUSH2 0x6EE SWAP1 PUSH2 0x187A JUMP JUMPDEST DUP1 PUSH1 0x1F ADD PUSH1 0x20 DUP1 SWAP2 DIV MUL PUSH1 0x20 ADD PUSH1 0x40 MLOAD SWAP1 DUP2 ADD PUSH1 0x40 MSTORE DUP1 SWAP3 SWAP2 SWAP1 DUP2 DUP2 MSTORE PUSH1 0x20 ADD DUP3 DUP1 SLOAD PUSH2 0x71A SWAP1 PUSH2 0x187A JUMP JUMPDEST DUP1 ISZERO PUSH2 0x767 JUMPI DUP1 PUSH1 0x1F LT PUSH2 0x73C JUMPI PUSH2 0x100 DUP1 DUP4 SLOAD DIV MUL DUP4 MSTORE SWAP2 PUSH1 0x20 ADD SWAP2 PUSH2 0x767 JUMP JUMPDEST DUP3 ADD SWAP2 SWAP1 PUSH1 0x0 MSTORE PUSH1 0x20 PUSH1 0x0 KECCAK256 SWAP1 JUMPDEST DUP2 SLOAD DUP2 MSTORE SWAP1 PUSH1 0x1 ADD SWAP1 PUSH1 0x20 ADD DUP1 DUP4 GT PUSH2 0x74A JUMPI DUP3 SWAP1 SUB PUSH1 0x1F AND DUP3 ADD SWAP2 JUMPDEST POP POP POP POP POP SWAP1 DUP1 PUSH1 0x1 ADD SLOAD SWAP1 DUP1 PUSH1 0x2 ADD PUSH1 0x0 SWAP1 SLOAD SWAP1 PUSH2 0x100 EXP SWAP1 DIV PUSH20 0xFFFFFFFFFFFFFFFFFFFFFFFFFFFFFFFFFFFFFFFF AND SWAP1 DUP1 PUSH1 0x2 ADD PUSH1 0x14 SWAP1 SLOAD SWAP1 PUSH2 0x100 EXP SWAP1 DIV PUSH1 0xFF AND SWAP1 DUP1 PUSH1 0x3 ADD SLOAD SWAP1 POP DUP6 JUMP JUMPDEST PUSH1 0x7 SLOAD DUP2 JUMP JUMPDEST PUSH1 0x4 DUP1 SLOAD PUSH2 0x7C9 SWAP1 PUSH2 0x187A JUMP JUMPDEST DUP1 PUSH1 0x1F ADD PUSH1 0x20 DUP1 SWAP2 DIV MUL PUSH1 0x20 ADD PUSH1 0x40 MLOAD SWAP1 DUP2 ADD PUSH1 0x40 MSTORE DUP1 SWAP3 SWAP2 SWAP1 DUP2 DUP2 MSTORE PUSH1 0x20 ADD DUP3 DUP1 SLOAD PUSH2 0x7F5 SWAP1 PUSH2 0x187A JUMP JUMPDEST DUP1 ISZERO PUSH2 0x842 JUMPI DUP1 PUSH1 0x1F LT PUSH2 0x817 JUMPI PUSH2 0x100 DUP1 DUP4 SLOAD DIV MUL DUP4 MSTORE SWAP2 PUSH1 0x20 ADD SWAP2 PUSH2 0x842 JUMP JUMPDEST DUP3 ADD SWAP2 SWAP1 PUSH1 0x0 MSTORE PUSH1 0x20 PUSH1 0x0 KECCAK256 SWAP1 JUMPDEST DUP2 SLOAD DUP2 MSTORE SWAP1 PUSH1 0x1 ADD SWAP1 PUSH1 0x20 ADD DUP1 DUP4 GT PUSH2 0x825 JUMPI DUP3 SWAP1 SUB PUSH1 0x1F AND DUP3 ADD SWAP2 JUMPDEST POP POP POP POP POP DUP2 JUMP JUMPDEST PUSH1 0x3 PUSH1 0x0 SWAP1 SLOAD SWAP1 PUSH2 0x100 EXP SWAP1 DIV PUSH20 0xFFFFFFFFFFFFFFFFFFFFFFFFFFFFFFFFFFFFFFFF AND PUSH20 0xFFFFFFFFFFFFFFFFFFFFFFFFFFFFFFFFFFFFFFFF AND CALLER PUSH20 0xFFFFFFFFFFFFFFFFFFFFFFFFFFFFFFFFFFFFFFFF AND EQ PUSH2 0x8DA JUMPI PUSH1 0x40 MLOAD PUSH32 0x8C379A000000000000000000000000000000000000000000000000000000000 DUP2 MSTORE PUSH1 0x4 ADD PUSH2 0x8D1 SWAP1 PUSH2 0x15C3 JUMP JUMPDEST PUSH1 0x40 MLOAD DUP1 SWAP2 SUB SWAP1 REVERT JUMPDEST SELFBALANCE DUP3 LT PUSH2 0x91C JUMPI PUSH1 0x40 MLOAD PUSH32 0x8C379A000000000000000000000000000000000000000000000000000000000 DUP2 MSTORE PUSH1 0x4 ADD PUSH2 0x913 SWAP1 PUSH2 0x1603 JUMP JUMPDEST PUSH1 0x40 MLOAD DUP1 SWAP2 SUB SWAP1 REVERT JUMPDEST PUSH1 0x0 DUP1 PUSH1 0x0 PUSH1 0x2 PUSH1 0x0 DUP2 SLOAD DUP1 SWAP3 SWAP2 SWAP1 PUSH2 0x934 SWAP1 PUSH2 0x18DD JUMP JUMPDEST SWAP2 SWAP1 POP SSTORE DUP2 MSTORE PUSH1 0x20 ADD SWAP1 DUP2 MSTORE PUSH1 0x20 ADD PUSH1 0x0 KECCAK256 SWAP1 POP DUP4 DUP2 PUSH1 0x0 ADD SWAP1 DUP1 MLOAD SWAP1 PUSH1 0x20 ADD SWAP1 PUSH2 0x960 SWAP3 SWAP2 SWAP1 PUSH2 0x1043 JUMP JUMPDEST POP DUP3 DUP2 PUSH1 0x1 ADD DUP2 SWAP1 SSTORE POP DUP2 DUP2 PUSH1 0x2 ADD PUSH1 0x0 PUSH2 0x100 EXP DUP2 SLOAD DUP2 PUSH20 0xFFFFFFFFFFFFFFFFFFFFFFFFFFFFFFFFFFFFFFFF MUL NOT AND SWAP1 DUP4 PUSH20 0xFFFFFFFFFFFFFFFFFFFFFFFFFFFFFFFFFFFFFFFF AND MUL OR SWAP1 SSTORE POP PUSH1 0x0 DUP2 PUSH1 0x2 ADD PUSH1 0x14 PUSH2 0x100 EXP DUP2 SLOAD DUP2 PUSH1 0xFF MUL NOT AND SWAP1 DUP4 ISZERO ISZERO MUL OR SWAP1 SSTORE POP PUSH1 0x0 DUP2 PUSH1 0x3 ADD DUP2 SWAP1 SSTORE POP POP POP POP POP JUMP JUMPDEST PUSH1 0x6 SLOAD DUP2 JUMP JUMPDEST PUSH1 0x0 PUSH1 0x60 DUP1 PUSH1 0x0 DUP1 PUSH1 0x0 DUP1 PUSH1 0x6 SLOAD PUSH1 0x4 PUSH1 0x5 ADDRESS PUSH20 0xFFFFFFFFFFFFFFFFFFFFFFFFFFFFFFFFFFFFFFFF AND PUSH4 0xBFEBA227 PUSH1 0x40 MLOAD DUP2 PUSH4 0xFFFFFFFF AND PUSH1 0xE0 SHL DUP2 MSTORE PUSH1 0x4 ADD PUSH1 0x20 PUSH1 0x40 MLOAD DUP1 DUP4 SUB DUP2 DUP7 DUP1 EXTCODESIZE ISZERO DUP1 ISZERO PUSH2 0xA38 JUMPI PUSH1 0x0 DUP1 REVERT JUMPDEST POP GAS STATICCALL ISZERO DUP1 ISZERO PUSH2 0xA4C JUMPI RETURNDATASIZE PUSH1 0x0 DUP1 RETURNDATACOPY RETURNDATASIZE PUSH1 0x0 REVERT JUMPDEST POP POP POP POP PUSH1 0x40 MLOAD RETURNDATASIZE PUSH1 0x1F NOT PUSH1 0x1F DUP3 ADD AND DUP3 ADD DUP1 PUSH1 0x40 MSTORE POP DUP2 ADD SWAP1 PUSH2 0xA70 SWAP2 SWAP1 PUSH2 0x125B JUMP JUMPDEST PUSH1 0x2 SLOAD PUSH1 0x7 SLOAD PUSH1 0x3 PUSH1 0x0 SWAP1 SLOAD SWAP1 PUSH2 0x100 EXP SWAP1 DIV PUSH20 0xFFFFFFFFFFFFFFFFFFFFFFFFFFFFFFFFFFFFFFFF AND DUP6 DUP1 SLOAD PUSH2 0xAA5 SWAP1 PUSH2 0x187A JUMP JUMPDEST DUP1 PUSH1 0x1F ADD PUSH1 0x20 DUP1 SWAP2 DIV MUL PUSH1 0x20 ADD PUSH1 0x40 MLOAD SWAP1 DUP2 ADD PUSH1 0x40 MSTORE DUP1 SWAP3 SWAP2 SWAP1 DUP2 DUP2 MSTORE PUSH1 0x20 ADD DUP3 DUP1 SLOAD PUSH2 0xAD1 SWAP1 PUSH2 0x187A JUMP JUMPDEST DUP1 ISZERO PUSH2 0xB1E JUMPI DUP1 PUSH1 0x1F LT PUSH2 0xAF3 JUMPI PUSH2 0x100 DUP1 DUP4 SLOAD DIV MUL DUP4 MSTORE SWAP2 PUSH1 0x20 ADD SWAP2 PUSH2 0xB1E JUMP JUMPDEST DUP3 ADD SWAP2 SWAP1 PUSH1 0x0 MSTORE PUSH1 0x20 PUSH1 0x0 KECCAK256 SWAP1 JUMPDEST DUP2 SLOAD DUP2 MSTORE SWAP1 PUSH1 0x1 ADD SWAP1 PUSH1 0x20 ADD DUP1 DUP4 GT PUSH2 0xB01 JUMPI DUP3 SWAP1 SUB PUSH1 0x1F AND DUP3 ADD SWAP2 JUMPDEST POP POP POP POP POP SWAP6 POP DUP5 DUP1 SLOAD PUSH2 0xB31 SWAP1 PUSH2 0x187A JUMP JUMPDEST DUP1 PUSH1 0x1F ADD PUSH1 0x20 DUP1 SWAP2 DIV MUL PUSH1 0x20 ADD PUSH1 0x40 MLOAD SWAP1 DUP2 ADD PUSH1 0x40 MSTORE DUP1 SWAP3 SWAP2 SWAP1 DUP2 DUP2 MSTORE PUSH1 0x20 ADD DUP3 DUP1 SLOAD PUSH2 0xB5D SWAP1 PUSH2 0x187A JUMP JUMPDEST DUP1 ISZERO PUSH2 0xBAA JUMPI DUP1 PUSH1 0x1F LT PUSH2 0xB7F JUMPI PUSH2 0x100 DUP1 DUP4 SLOAD DIV MUL DUP4 MSTORE SWAP2 PUSH1 0x20 ADD SWAP2 PUSH2 0xBAA JUMP JUMPDEST DUP3 ADD SWAP2 SWAP1 PUSH1 0x0 MSTORE PUSH1 0x20 PUSH1 0x0 KECCAK256 SWAP1 JUMPDEST DUP2 SLOAD DUP2 MSTORE SWAP1 PUSH1 0x1 ADD SWAP1 PUSH1 0x20 ADD DUP1 DUP4 GT PUSH2 0xB8D JUMPI DUP3 SWAP1 SUB PUSH1 0x1F AND DUP3 ADD SWAP2 JUMPDEST POP POP POP POP POP SWAP5 POP SWAP7 POP SWAP7 POP SWAP7 POP SWAP7 POP SWAP7 POP SWAP7 POP SWAP7 POP SWAP1 SWAP2 SWAP3 SWAP4 SWAP5 SWAP6 SWAP7 JUMP JUMPDEST PUSH1 0x0 SELFBALANCE SWAP1 POP SWAP1 JUMP JUMPDEST PUSH1 0x6 SLOAD CALLVALUE LT ISZERO PUSH2 0xC15 JUMPI PUSH1 0x40 MLOAD PUSH32 0x8C379A000000000000000000000000000000000000000000000000000000000 DUP2 MSTORE PUSH1 0x4 ADD PUSH2 0xC0C SWAP1 PUSH2 0x1663 JUMP JUMPDEST PUSH1 0x40 MLOAD DUP1 SWAP2 SUB SWAP1 REVERT JUMPDEST PUSH1 0x0 ISZERO ISZERO PUSH1 0x1 PUSH1 0x0 CALLER PUSH20 0xFFFFFFFFFFFFFFFFFFFFFFFFFFFFFFFFFFFFFFFF AND PUSH20 0xFFFFFFFFFFFFFFFFFFFFFFFFFFFFFFFFFFFFFFFF AND DUP2 MSTORE PUSH1 0x20 ADD SWAP1 DUP2 MSTORE PUSH1 0x20 ADD PUSH1 0x0 KECCAK256 PUSH1 0x0 SWAP1 SLOAD SWAP1 PUSH2 0x100 EXP SWAP1 DIV PUSH1 0xFF AND ISZERO ISZERO EQ ISZERO PUSH2 0xCDE JUMPI PUSH1 0x7 PUSH1 0x0 DUP2 SLOAD DUP1 SWAP3 SWAP2 SWAP1 PUSH2 0xC81 SWAP1 PUSH2 0x18DD JUMP JUMPDEST SWAP2 SWAP1 POP SSTORE POP PUSH1 0x1 DUP1 PUSH1 0x0 CALLER PUSH20 0xFFFFFFFFFFFFFFFFFFFFFFFFFFFFFFFFFFFFFFFF AND PUSH20 0xFFFFFFFFFFFFFFFFFFFFFFFFFFFFFFFFFFFFFFFF AND DUP2 MSTORE PUSH1 0x20 ADD SWAP1 DUP2 MSTORE PUSH1 0x20 ADD PUSH1 0x0 KECCAK256 PUSH1 0x0 PUSH2 0x100 EXP DUP2 SLOAD DUP2 PUSH1 0xFF MUL NOT AND SWAP1 DUP4 ISZERO ISZERO MUL OR SWAP1 SSTORE POP JUMPDEST JUMP JUMPDEST PUSH1 0x1 PUSH1 0x0 CALLER PUSH20 0xFFFFFFFFFFFFFFFFFFFFFFFFFFFFFFFFFFFFFFFF AND PUSH20 0xFFFFFFFFFFFFFFFFFFFFFFFFFFFFFFFFFFFFFFFF AND DUP2 MSTORE PUSH1 0x20 ADD SWAP1 DUP2 MSTORE PUSH1 0x20 ADD PUSH1 0x0 KECCAK256 PUSH1 0x0 SWAP1 SLOAD SWAP1 PUSH2 0x100 EXP SWAP1 DIV PUSH1 0xFF AND PUSH2 0xD6C JUMPI PUSH1 0x40 MLOAD PUSH32 0x8C379A000000000000000000000000000000000000000000000000000000000 DUP2 MSTORE PUSH1 0x4 ADD PUSH2 0xD63 SWAP1 PUSH2 0x1623 JUMP JUMPDEST PUSH1 0x40 MLOAD DUP1 SWAP2 SUB SWAP1 REVERT JUMPDEST PUSH1 0x0 DUP1 PUSH1 0x0 DUP4 DUP2 MSTORE PUSH1 0x20 ADD SWAP1 DUP2 MSTORE PUSH1 0x20 ADD PUSH1 0x0 KECCAK256 SWAP1 POP DUP1 PUSH1 0x4 ADD PUSH1 0x0 CALLER PUSH20 0xFFFFFFFFFFFFFFFFFFFFFFFFFFFFFFFFFFFFFFFF AND PUSH20 0xFFFFFFFFFFFFFFFFFFFFFFFFFFFFFFFFFFFFFFFF AND DUP2 MSTORE PUSH1 0x20 ADD SWAP1 DUP2 MSTORE PUSH1 0x20 ADD PUSH1 0x0 KECCAK256 PUSH1 0x0 SWAP1 SLOAD SWAP1 PUSH2 0x100 EXP SWAP1 DIV PUSH1 0xFF AND ISZERO PUSH2 0xE11 JUMPI PUSH1 0x40 MLOAD PUSH32 0x8C379A000000000000000000000000000000000000000000000000000000000 DUP2 MSTORE PUSH1 0x4 ADD PUSH2 0xE08 SWAP1 PUSH2 0x15E3 JUMP JUMPDEST PUSH1 0x40 MLOAD DUP1 SWAP2 SUB SWAP1 REVERT JUMPDEST PUSH1 0x2 SLOAD DUP3 LT PUSH2 0xE55 JUMPI PUSH1 0x40 MLOAD PUSH32 0x8C379A000000000000000000000000000000000000000000000000000000000 DUP2 MSTORE PUSH1 0x4 ADD PUSH2 0xE4C SWAP1 PUSH2 0x1643 JUMP JUMPDEST PUSH1 0x40 MLOAD DUP1 SWAP2 SUB SWAP1 REVERT JUMPDEST DUP1 PUSH1 0x2 ADD PUSH1 0x14 SWAP1 SLOAD SWAP1 PUSH2 0x100 EXP SWAP1 DIV PUSH1 0xFF AND ISZERO PUSH2 0xEA7 JUMPI PUSH1 0x40 MLOAD PUSH32 0x8C379A000000000000000000000000000000000000000000000000000000000 DUP2 MSTORE PUSH1 0x4 ADD PUSH2 0xE9E SWAP1 PUSH2 0x1583 JUMP JUMPDEST PUSH1 0x40 MLOAD DUP1 SWAP2 SUB SWAP1 REVERT JUMPDEST PUSH1 0x1 DUP2 PUSH1 0x4 ADD PUSH1 0x0 CALLER PUSH20 0xFFFFFFFFFFFFFFFFFFFFFFFFFFFFFFFFFFFFFFFF AND PUSH20 0xFFFFFFFFFFFFFFFFFFFFFFFFFFFFFFFFFFFFFFFF AND DUP2 MSTORE PUSH1 0x20 ADD SWAP1 DUP2 MSTORE PUSH1 0x20 ADD PUSH1 0x0 KECCAK256 PUSH1 0x0 PUSH2 0x100 EXP DUP2 SLOAD DUP2 PUSH1 0xFF MUL NOT AND SWAP1 DUP4 ISZERO ISZERO MUL OR SWAP1 SSTORE POP DUP1 PUSH1 0x3 ADD PUSH1 0x0 DUP2 SLOAD DUP1 SWAP3 SWAP2 SWAP1 PUSH2 0xF16 SWAP1 PUSH2 0x18DD JUMP JUMPDEST SWAP2 SWAP1 POP SSTORE POP POP POP JUMP JUMPDEST PUSH1 0x60 PUSH1 0x0 DUP1 PUSH1 0x0 DUP1 PUSH1 0x0 DUP1 PUSH1 0x0 DUP9 DUP2 MSTORE PUSH1 0x20 ADD SWAP1 DUP2 MSTORE PUSH1 0x20 ADD PUSH1 0x0 KECCAK256 SWAP1 POP PUSH1 0x0 DUP2 PUSH1 0x0 ADD DUP1 SLOAD PUSH2 0xF4E SWAP1 PUSH2 0x187A JUMP JUMPDEST DUP1 PUSH1 0x1F ADD PUSH1 0x20 DUP1 SWAP2 DIV MUL PUSH1 0x20 ADD PUSH1 0x40 MLOAD SWAP1 DUP2 ADD PUSH1 0x40 MSTORE DUP1 SWAP3 SWAP2 SWAP1 DUP2 DUP2 MSTORE PUSH1 0x20 ADD DUP3 DUP1 SLOAD PUSH2 0xF7A SWAP1 PUSH2 0x187A JUMP JUMPDEST DUP1 ISZERO PUSH2 0xFC7 JUMPI DUP1 PUSH1 0x1F LT PUSH2 0xF9C JUMPI PUSH2 0x100 DUP1 DUP4 SLOAD DIV MUL DUP4 MSTORE SWAP2 PUSH1 0x20 ADD SWAP2 PUSH2 0xFC7 JUMP JUMPDEST DUP3 ADD SWAP2 SWAP1 PUSH1 0x0 MSTORE PUSH1 0x20 PUSH1 0x0 KECCAK256 SWAP1 JUMPDEST DUP2 SLOAD DUP2 MSTORE SWAP1 PUSH1 0x1 ADD SWAP1 PUSH1 0x20 ADD DUP1 DUP4 GT PUSH2 0xFAA JUMPI DUP3 SWAP1 SUB PUSH1 0x1F AND DUP3 ADD SWAP2 JUMPDEST POP POP POP POP POP SWAP1 POP PUSH1 0x0 DUP3 PUSH1 0x1 ADD SLOAD SWAP1 POP PUSH1 0x0 DUP4 PUSH1 0x2 ADD PUSH1 0x0 SWAP1 SLOAD SWAP1 PUSH2 0x100 EXP SWAP1 DIV PUSH20 0xFFFFFFFFFFFFFFFFFFFFFFFFFFFFFFFFFFFFFFFF AND SWAP1 POP PUSH1 0x0 DUP5 PUSH1 0x2 ADD PUSH1 0x14 SWAP1 SLOAD SWAP1 PUSH2 0x100 EXP SWAP1 DIV PUSH1 0xFF AND SWAP1 POP PUSH1 0x0 DUP6 PUSH1 0x3 ADD SLOAD SWAP1 POP DUP5 DUP5 DUP5 DUP5 DUP5 SWAP11 POP SWAP11 POP SWAP11 POP SWAP11 POP SWAP11 POP POP POP POP POP POP POP SWAP2 SWAP4 SWAP6 SWAP1 SWAP3 SWAP5 POP JUMP JUMPDEST PUSH1 0x2 SLOAD DUP2 JUMP JUMPDEST DUP3 DUP1 SLOAD PUSH2 0x104F SWAP1 PUSH2 0x187A JUMP JUMPDEST SWAP1 PUSH1 0x0 MSTORE PUSH1 0x20 PUSH1 0x0 KECCAK256 SWAP1 PUSH1 0x1F ADD PUSH1 0x20 SWAP1 DIV DUP2 ADD SWAP3 DUP3 PUSH2 0x1071 JUMPI PUSH1 0x0 DUP6 SSTORE PUSH2 0x10B8 JUMP JUMPDEST DUP3 PUSH1 0x1F LT PUSH2 0x108A JUMPI DUP1 MLOAD PUSH1 0xFF NOT AND DUP4 DUP1 ADD OR DUP6 SSTORE PUSH2 0x10B8 JUMP JUMPDEST DUP3 DUP1 ADD PUSH1 0x1 ADD DUP6 SSTORE DUP3 ISZERO PUSH2 0x10B8 JUMPI SWAP2 DUP3 ADD JUMPDEST DUP3 DUP2 GT ISZERO PUSH2 0x10B7 JUMPI DUP3 MLOAD DUP3 SSTORE SWAP2 PUSH1 0x20 ADD SWAP2 SWAP1 PUSH1 0x1 ADD SWAP1 PUSH2 0x109C JUMP JUMPDEST JUMPDEST POP SWAP1 POP PUSH2 0x10C5 SWAP2 SWAP1 PUSH2 0x10C9 JUMP JUMPDEST POP SWAP1 JUMP JUMPDEST JUMPDEST DUP1 DUP3 GT ISZERO PUSH2 0x10E2 JUMPI PUSH1 0x0 DUP2 PUSH1 0x0 SWAP1 SSTORE POP PUSH1 0x1 ADD PUSH2 0x10CA JUMP JUMPDEST POP SWAP1 JUMP JUMPDEST PUSH1 0x0 PUSH2 0x10F9 PUSH2 0x10F4 DUP5 PUSH2 0x1760 JUMP JUMPDEST PUSH2 0x173B JUMP JUMPDEST SWAP1 POP DUP3 DUP2 MSTORE PUSH1 0x20 DUP2 ADD DUP5 DUP5 DUP5 ADD GT ISZERO PUSH2 0x1111 JUMPI PUSH1 0x0 DUP1 REVERT JUMPDEST PUSH2 0x111C DUP5 DUP3 DUP6 PUSH2 0x1838 JUMP JUMPDEST POP SWAP4 SWAP3 POP POP POP JUMP JUMPDEST PUSH1 0x0 DUP2 CALLDATALOAD SWAP1 POP PUSH2 0x1133 DUP2 PUSH2 0x1CE3 JUMP JUMPDEST SWAP3 SWAP2 POP POP JUMP JUMPDEST PUSH1 0x0 DUP2 CALLDATALOAD SWAP1 POP PUSH2 0x1148 DUP2 PUSH2 0x1CFA JUMP JUMPDEST SWAP3 SWAP2 POP POP JUMP JUMPDEST PUSH1 0x0 DUP3 PUSH1 0x1F DUP4 ADD SLT PUSH2 0x115F JUMPI PUSH1 0x0 DUP1 REVERT JUMPDEST DUP2 CALLDATALOAD PUSH2 0x116F DUP5 DUP3 PUSH1 0x20 DUP7 ADD PUSH2 0x10E6 JUMP JUMPDEST SWAP2 POP POP SWAP3 SWAP2 POP POP JUMP JUMPDEST PUSH1 0x0 DUP2 CALLDATALOAD SWAP1 POP PUSH2 0x1187 DUP2 PUSH2 0x1D11 JUMP JUMPDEST SWAP3 SWAP2 POP POP JUMP JUMPDEST PUSH1 0x0 DUP2 MLOAD SWAP1 POP PUSH2 0x119C DUP2 PUSH2 0x1D11 JUMP JUMPDEST SWAP3 SWAP2 POP POP JUMP JUMPDEST PUSH1 0x0 PUSH1 0x20 DUP3 DUP5 SUB SLT ISZERO PUSH2 0x11B4 JUMPI PUSH1 0x0 DUP1 REVERT JUMPDEST PUSH1 0x0 PUSH2 0x11C2 DUP5 DUP3 DUP6 ADD PUSH2 0x1124 JUMP JUMPDEST SWAP2 POP POP SWAP3 SWAP2 POP POP JUMP JUMPDEST PUSH1 0x0 DUP1 PUSH1 0x0 PUSH1 0x60 DUP5 DUP7 SUB SLT ISZERO PUSH2 0x11E0 JUMPI PUSH1 0x0 DUP1 REVERT JUMPDEST PUSH1 0x0 DUP5 ADD CALLDATALOAD PUSH8 0xFFFFFFFFFFFFFFFF DUP2 GT ISZERO PUSH2 0x11FA JUMPI PUSH1 0x0 DUP1 REVERT JUMPDEST PUSH2 0x1206 DUP7 DUP3 DUP8 ADD PUSH2 0x114E JUMP JUMPDEST SWAP4 POP POP PUSH1 0x20 PUSH2 0x1217 DUP7 DUP3 DUP8 ADD PUSH2 0x1178 JUMP JUMPDEST SWAP3 POP POP PUSH1 0x40 PUSH2 0x1228 DUP7 DUP3 DUP8 ADD PUSH2 0x1139 JUMP JUMPDEST SWAP2 POP POP SWAP3 POP SWAP3 POP SWAP3 JUMP JUMPDEST PUSH1 0x0 PUSH1 0x20 DUP3 DUP5 SUB SLT ISZERO PUSH2 0x1244 JUMPI PUSH1 0x0 DUP1 REVERT JUMPDEST PUSH1 0x0 PUSH2 0x1252 DUP5 DUP3 DUP6 ADD PUSH2 0x1178 JUMP JUMPDEST SWAP2 POP POP SWAP3 SWAP2 POP POP JUMP JUMPDEST PUSH1 0x0 PUSH1 0x20 DUP3 DUP5 SUB SLT ISZERO PUSH2 0x126D JUMPI PUSH1 0x0 DUP1 REVERT JUMPDEST PUSH1 0x0 PUSH2 0x127B DUP5 DUP3 DUP6 ADD PUSH2 0x118D JUMP JUMPDEST SWAP2 POP POP SWAP3 SWAP2 POP POP JUMP JUMPDEST PUSH2 0x128D DUP2 PUSH2 0x17F0 JUMP JUMPDEST DUP3 MSTORE POP POP JUMP JUMPDEST PUSH2 0x129C DUP2 PUSH2 0x17DE JUMP JUMPDEST DUP3 MSTORE POP POP JUMP JUMPDEST PUSH2 0x12AB DUP2 PUSH2 0x1802 JUMP JUMPDEST DUP3 MSTORE POP POP JUMP JUMPDEST PUSH1 0x0 PUSH2 0x12BC DUP3 PUSH2 0x1791 JUMP JUMPDEST PUSH2 0x12C6 DUP2 DUP6 PUSH2 0x179C JUMP JUMPDEST SWAP4 POP PUSH2 0x12D6 DUP2 DUP6 PUSH1 0x20 DUP7 ADD PUSH2 0x1847 JUMP JUMPDEST PUSH2 0x12DF DUP2 PUSH2 0x19E2 JUMP JUMPDEST DUP5 ADD SWAP2 POP POP SWAP3 SWAP2 POP POP JUMP JUMPDEST PUSH1 0x0 PUSH2 0x12F7 PUSH1 0x2D DUP4 PUSH2 0x179C JUMP JUMPDEST SWAP2 POP PUSH2 0x1302 DUP3 PUSH2 0x19F3 JUMP JUMPDEST PUSH1 0x40 DUP3 ADD SWAP1 POP SWAP2 SWAP1 POP JUMP JUMPDEST PUSH1 0x0 PUSH2 0x131A PUSH1 0x23 DUP4 PUSH2 0x179C JUMP JUMPDEST SWAP2 POP PUSH2 0x1325 DUP3 PUSH2 0x1A42 JUMP JUMPDEST PUSH1 0x40 DUP3 ADD SWAP1 POP SWAP2 SWAP1 POP JUMP JUMPDEST PUSH1 0x0 PUSH2 0x133D PUSH1 0x48 DUP4 PUSH2 0x179C JUMP JUMPDEST SWAP2 POP PUSH2 0x1348 DUP3 PUSH2 0x1A91 JUMP JUMPDEST PUSH1 0x60 DUP3 ADD SWAP1 POP SWAP2 SWAP1 POP JUMP JUMPDEST PUSH1 0x0 PUSH2 0x1360 PUSH1 0x30 DUP4 PUSH2 0x179C JUMP JUMPDEST SWAP2 POP PUSH2 0x136B DUP3 PUSH2 0x1B06 JUMP JUMPDEST PUSH1 0x40 DUP3 ADD SWAP1 POP SWAP2 SWAP1 POP JUMP JUMPDEST PUSH1 0x0 PUSH2 0x1383 PUSH1 0x12 DUP4 PUSH2 0x179C JUMP JUMPDEST SWAP2 POP PUSH2 0x138E DUP3 PUSH2 0x1B55 JUMP JUMPDEST PUSH1 0x20 DUP3 ADD SWAP1 POP SWAP2 SWAP1 POP JUMP JUMPDEST PUSH1 0x0 PUSH2 0x13A6 PUSH1 0x30 DUP4 PUSH2 0x179C JUMP JUMPDEST SWAP2 POP PUSH2 0x13B1 DUP3 PUSH2 0x1B7E JUMP JUMPDEST PUSH1 0x40 DUP3 ADD SWAP1 POP SWAP2 SWAP1 POP JUMP JUMPDEST PUSH1 0x0 PUSH2 0x13C9 PUSH1 0x24 DUP4 PUSH2 0x179C JUMP JUMPDEST SWAP2 POP PUSH2 0x13D4 DUP3 PUSH2 0x1BCD JUMP JUMPDEST PUSH1 0x40 DUP3 ADD SWAP1 POP SWAP2 SWAP1 POP JUMP JUMPDEST PUSH1 0x0 PUSH2 0x13EC PUSH1 0x47 DUP4 PUSH2 0x179C JUMP JUMPDEST SWAP2 POP PUSH2 0x13F7 DUP3 PUSH2 0x1C1C JUMP JUMPDEST PUSH1 0x60 DUP3 ADD SWAP1 POP SWAP2 SWAP1 POP JUMP JUMPDEST PUSH1 0x0 PUSH2 0x140F PUSH1 0x20 DUP4 PUSH2 0x179C JUMP JUMPDEST SWAP2 POP PUSH2 0x141A DUP3 PUSH2 0x1C91 JUMP JUMPDEST PUSH1 0x20 DUP3 ADD SWAP1 POP SWAP2 SWAP1 POP JUMP JUMPDEST PUSH1 0x0 PUSH2 0x1432 PUSH1 0x1C DUP4 PUSH2 0x179C JUMP JUMPDEST SWAP2 POP PUSH2 0x143D DUP3 PUSH2 0x1CBA JUMP JUMPDEST PUSH1 0x20 DUP3 ADD SWAP1 POP SWAP2 SWAP1 POP JUMP JUMPDEST PUSH2 0x1451 DUP2 PUSH2 0x182E JUMP JUMPDEST DUP3 MSTORE POP POP JUMP JUMPDEST PUSH1 0x0 PUSH1 0x20 DUP3 ADD SWAP1 POP PUSH2 0x146C PUSH1 0x0 DUP4 ADD DUP5 PUSH2 0x1293 JUMP JUMPDEST SWAP3 SWAP2 POP POP JUMP JUMPDEST PUSH1 0x0 PUSH1 0x20 DUP3 ADD SWAP1 POP PUSH2 0x1487 PUSH1 0x0 DUP4 ADD DUP5 PUSH2 0x12A2 JUMP JUMPDEST SWAP3 SWAP2 POP POP JUMP JUMPDEST PUSH1 0x0 PUSH1 0x20 DUP3 ADD SWAP1 POP DUP2 DUP2 SUB PUSH1 0x0 DUP4 ADD MSTORE PUSH2 0x14A7 DUP2 DUP5 PUSH2 0x12B1 JUMP JUMPDEST SWAP1 POP SWAP3 SWAP2 POP POP JUMP JUMPDEST PUSH1 0x0 PUSH1 0xA0 DUP3 ADD SWAP1 POP DUP2 DUP2 SUB PUSH1 0x0 DUP4 ADD MSTORE PUSH2 0x14C9 DUP2 DUP9 PUSH2 0x12B1 JUMP JUMPDEST SWAP1 POP PUSH2 0x14D8 PUSH1 0x20 DUP4 ADD DUP8 PUSH2 0x1448 JUMP JUMPDEST PUSH2 0x14E5 PUSH1 0x40 DUP4 ADD DUP7 PUSH2 0x1284 JUMP JUMPDEST PUSH2 0x14F2 PUSH1 0x60 DUP4 ADD DUP6 PUSH2 0x12A2 JUMP JUMPDEST PUSH2 0x14FF PUSH1 0x80 DUP4 ADD DUP5 PUSH2 0x1448 JUMP JUMPDEST SWAP7 SWAP6 POP POP POP POP POP POP JUMP JUMPDEST PUSH1 0x0 PUSH1 0xA0 DUP3 ADD SWAP1 POP DUP2 DUP2 SUB PUSH1 0x0 DUP4 ADD MSTORE PUSH2 0x1523 DUP2 DUP9 PUSH2 0x12B1 JUMP JUMPDEST SWAP1 POP PUSH2 0x1532 PUSH1 0x20 DUP4 ADD DUP8 PUSH2 0x1448 JUMP JUMPDEST PUSH2 0x153F PUSH1 0x40 DUP4 ADD DUP7 PUSH2 0x1293 JUMP JUMPDEST PUSH2 0x154C PUSH1 0x60 DUP4 ADD DUP6 PUSH2 0x12A2 JUMP JUMPDEST PUSH2 0x1559 PUSH1 0x80 DUP4 ADD DUP5 PUSH2 0x1448 JUMP JUMPDEST SWAP7 SWAP6 POP POP POP POP POP POP JUMP JUMPDEST PUSH1 0x0 PUSH1 0x20 DUP3 ADD SWAP1 POP DUP2 DUP2 SUB PUSH1 0x0 DUP4 ADD MSTORE PUSH2 0x157C DUP2 PUSH2 0x12EA JUMP JUMPDEST SWAP1 POP SWAP2 SWAP1 POP JUMP JUMPDEST PUSH1 0x0 PUSH1 0x20 DUP3 ADD SWAP1 POP DUP2 DUP2 SUB PUSH1 0x0 DUP4 ADD MSTORE PUSH2 0x159C DUP2 PUSH2 0x130D JUMP JUMPDEST SWAP1 POP SWAP2 SWAP1 POP JUMP JUMPDEST PUSH1 0x0 PUSH1 0x20 DUP3 ADD SWAP1 POP DUP2 DUP2 SUB PUSH1 0x0 DUP4 ADD MSTORE PUSH2 0x15BC DUP2 PUSH2 0x1330 JUMP JUMPDEST SWAP1 POP SWAP2 SWAP1 POP JUMP JUMPDEST PUSH1 0x0 PUSH1 0x20 DUP3 ADD SWAP1 POP DUP2 DUP2 SUB PUSH1 0x0 DUP4 ADD MSTORE PUSH2 0x15DC DUP2 PUSH2 0x1353 JUMP JUMPDEST SWAP1 POP SWAP2 SWAP1 POP JUMP JUMPDEST PUSH1 0x0 PUSH1 0x20 DUP3 ADD SWAP1 POP DUP2 DUP2 SUB PUSH1 0x0 DUP4 ADD MSTORE PUSH2 0x15FC DUP2 PUSH2 0x1376 JUMP JUMPDEST SWAP1 POP SWAP2 SWAP1 POP JUMP JUMPDEST PUSH1 0x0 PUSH1 0x20 DUP3 ADD SWAP1 POP DUP2 DUP2 SUB PUSH1 0x0 DUP4 ADD MSTORE PUSH2 0x161C DUP2 PUSH2 0x1399 JUMP JUMPDEST SWAP1 POP SWAP2 SWAP1 POP JUMP JUMPDEST PUSH1 0x0 PUSH1 0x20 DUP3 ADD SWAP1 POP DUP2 DUP2 SUB PUSH1 0x0 DUP4 ADD MSTORE PUSH2 0x163C DUP2 PUSH2 0x13BC JUMP JUMPDEST SWAP1 POP SWAP2 SWAP1 POP JUMP JUMPDEST PUSH1 0x0 PUSH1 0x20 DUP3 ADD SWAP1 POP DUP2 DUP2 SUB PUSH1 0x0 DUP4 ADD MSTORE PUSH2 0x165C DUP2 PUSH2 0x13DF JUMP JUMPDEST SWAP1 POP SWAP2 SWAP1 POP JUMP JUMPDEST PUSH1 0x0 PUSH1 0x20 DUP3 ADD SWAP1 POP DUP2 DUP2 SUB PUSH1 0x0 DUP4 ADD MSTORE PUSH2 0x167C DUP2 PUSH2 0x1402 JUMP JUMPDEST SWAP1 POP SWAP2 SWAP1 POP JUMP JUMPDEST PUSH1 0x0 PUSH1 0x20 DUP3 ADD SWAP1 POP DUP2 DUP2 SUB PUSH1 0x0 DUP4 ADD MSTORE PUSH2 0x169C DUP2 PUSH2 0x1425 JUMP JUMPDEST SWAP1 POP SWAP2 SWAP1 POP JUMP JUMPDEST PUSH1 0x0 PUSH1 0x20 DUP3 ADD SWAP1 POP PUSH2 0x16B8 PUSH1 0x0 DUP4 ADD DUP5 PUSH2 0x1448 JUMP JUMPDEST SWAP3 SWAP2 POP POP JUMP JUMPDEST PUSH1 0x0 PUSH1 0xE0 DUP3 ADD SWAP1 POP PUSH2 0x16D3 PUSH1 0x0 DUP4 ADD DUP11 PUSH2 0x1448 JUMP JUMPDEST DUP2 DUP2 SUB PUSH1 0x20 DUP4 ADD MSTORE PUSH2 0x16E5 DUP2 DUP10 PUSH2 0x12B1 JUMP JUMPDEST SWAP1 POP DUP2 DUP2 SUB PUSH1 0x40 DUP4 ADD MSTORE PUSH2 0x16F9 DUP2 DUP9 PUSH2 0x12B1 JUMP JUMPDEST SWAP1 POP PUSH2 0x1708 PUSH1 0x60 DUP4 ADD DUP8 PUSH2 0x1448 JUMP JUMPDEST PUSH2 0x1715 PUSH1 0x80 DUP4 ADD DUP7 PUSH2 0x1448 JUMP JUMPDEST PUSH2 0x1722 PUSH1 0xA0 DUP4 ADD DUP6 PUSH2 0x1448 JUMP JUMPDEST PUSH2 0x172F PUSH1 0xC0 DUP4 ADD DUP5 PUSH2 0x1293 JUMP JUMPDEST SWAP9 SWAP8 POP POP POP POP POP POP POP POP JUMP JUMPDEST PUSH1 0x0 PUSH2 0x1745 PUSH2 0x1756 JUMP JUMPDEST SWAP1 POP PUSH2 0x1751 DUP3 DUP3 PUSH2 0x18AC JUMP JUMPDEST SWAP2 SWAP1 POP JUMP JUMPDEST PUSH1 0x0 PUSH1 0x40 MLOAD SWAP1 POP SWAP1 JUMP JUMPDEST PUSH1 0x0 PUSH8 0xFFFFFFFFFFFFFFFF DUP3 GT ISZERO PUSH2 0x177B JUMPI PUSH2 0x177A PUSH2 0x19B3 JUMP JUMPDEST JUMPDEST PUSH2 0x1784 DUP3 PUSH2 0x19E2 JUMP JUMPDEST SWAP1 POP PUSH1 0x20 DUP2 ADD SWAP1 POP SWAP2 SWAP1 POP JUMP JUMPDEST PUSH1 0x0 DUP2 MLOAD SWAP1 POP SWAP2 SWAP1 POP JUMP JUMPDEST PUSH1 0x0 DUP3 DUP3 MSTORE PUSH1 0x20 DUP3 ADD SWAP1 POP SWAP3 SWAP2 POP POP JUMP JUMPDEST PUSH1 0x0 PUSH2 0x17B8 DUP3 PUSH2 0x182E JUMP JUMPDEST SWAP2 POP PUSH2 0x17C3 DUP4 PUSH2 0x182E JUMP JUMPDEST SWAP3 POP DUP3 PUSH2 0x17D3 JUMPI PUSH2 0x17D2 PUSH2 0x1955 JUMP JUMPDEST JUMPDEST DUP3 DUP3 DIV SWAP1 POP SWAP3 SWAP2 POP POP JUMP JUMPDEST PUSH1 0x0 PUSH2 0x17E9 DUP3 PUSH2 0x180E JUMP JUMPDEST SWAP1 POP SWAP2 SWAP1 POP JUMP JUMPDEST PUSH1 0x0 PUSH2 0x17FB DUP3 PUSH2 0x180E JUMP JUMPDEST SWAP1 POP SWAP2 SWAP1 POP JUMP JUMPDEST PUSH1 0x0 DUP2 ISZERO ISZERO SWAP1 POP SWAP2 SWAP1 POP JUMP JUMPDEST PUSH1 0x0 PUSH20 0xFFFFFFFFFFFFFFFFFFFFFFFFFFFFFFFFFFFFFFFF DUP3 AND SWAP1 POP SWAP2 SWAP1 POP JUMP JUMPDEST PUSH1 0x0 DUP2 SWAP1 POP SWAP2 SWAP1 POP JUMP JUMPDEST DUP3 DUP2 DUP4 CALLDATACOPY PUSH1 0x0 DUP4 DUP4 ADD MSTORE POP POP POP JUMP JUMPDEST PUSH1 0x0 JUMPDEST DUP4 DUP2 LT ISZERO PUSH2 0x1865 JUMPI DUP1 DUP3 ADD MLOAD DUP2 DUP5 ADD MSTORE PUSH1 0x20 DUP2 ADD SWAP1 POP PUSH2 0x184A JUMP JUMPDEST DUP4 DUP2 GT ISZERO PUSH2 0x1874 JUMPI PUSH1 0x0 DUP5 DUP5 ADD MSTORE JUMPDEST POP POP POP POP JUMP JUMPDEST PUSH1 0x0 PUSH1 0x2 DUP3 DIV SWAP1 POP PUSH1 0x1 DUP3 AND DUP1 PUSH2 0x1892 JUMPI PUSH1 0x7F DUP3 AND SWAP2 POP JUMPDEST PUSH1 0x20 DUP3 LT DUP2 EQ ISZERO PUSH2 0x18A6 JUMPI PUSH2 0x18A5 PUSH2 0x1984 JUMP JUMPDEST JUMPDEST POP SWAP2 SWAP1 POP JUMP JUMPDEST PUSH2 0x18B5 DUP3 PUSH2 0x19E2 JUMP JUMPDEST DUP2 ADD DUP2 DUP2 LT PUSH8 0xFFFFFFFFFFFFFFFF DUP3 GT OR ISZERO PUSH2 0x18D4 JUMPI PUSH2 0x18D3 PUSH2 0x19B3 JUMP JUMPDEST JUMPDEST DUP1 PUSH1 0x40 MSTORE POP POP POP JUMP JUMPDEST PUSH1 0x0 PUSH2 0x18E8 DUP3 PUSH2 0x182E JUMP JUMPDEST SWAP2 POP PUSH32 0xFFFFFFFFFFFFFFFFFFFFFFFFFFFFFFFFFFFFFFFFFFFFFFFFFFFFFFFFFFFFFFFF DUP3 EQ ISZERO PUSH2 0x191B JUMPI PUSH2 0x191A PUSH2 0x1926 JUMP JUMPDEST JUMPDEST PUSH1 0x1 DUP3 ADD SWAP1 POP SWAP2 SWAP1 POP JUMP JUMPDEST PUSH32 0x4E487B7100000000000000000000000000000000000000000000000000000000 PUSH1 0x0 MSTORE PUSH1 0x11 PUSH1 0x4 MSTORE PUSH1 0x24 PUSH1 0x0 REVERT JUMPDEST PUSH32 0x4E487B7100000000000000000000000000000000000000000000000000000000 PUSH1 0x0 MSTORE PUSH1 0x12 PUSH1 0x4 MSTORE PUSH1 0x24 PUSH1 0x0 REVERT JUMPDEST PUSH32 0x4E487B7100000000000000000000000000000000000000000000000000000000 PUSH1 0x0 MSTORE PUSH1 0x22 PUSH1 0x4 MSTORE PUSH1 0x24 PUSH1 0x0 REVERT JUMPDEST PUSH32 0x4E487B7100000000000000000000000000000000000000000000000000000000 PUSH1 0x0 MSTORE PUSH1 0x41 PUSH1 0x4 MSTORE PUSH1 0x24 PUSH1 0x0 REVERT JUMPDEST PUSH1 0x0 PUSH1 0x1F NOT PUSH1 0x1F DUP4 ADD AND SWAP1 POP SWAP2 SWAP1 POP JUMP JUMPDEST PUSH32 0x54686973207265717565737420686173206E6F74206265656E20617070726F76 PUSH1 0x0 DUP3 ADD MSTORE PUSH32 0x656420627920616E796F6E652E00000000000000000000000000000000000000 PUSH1 0x20 DUP3 ADD MSTORE POP JUMP JUMPDEST PUSH32 0x5468697320726571756573742077617320616C726561647920636F6D706C6574 PUSH1 0x0 DUP3 ADD MSTORE PUSH32 0x65642E0000000000000000000000000000000000000000000000000000000000 PUSH1 0x20 DUP3 ADD MSTORE POP JUMP JUMPDEST PUSH32 0x596F7520617474656D707420746F2066696E616C697A652061206E6F6E2D6578 PUSH1 0x0 DUP3 ADD MSTORE PUSH32 0x697374656E7420726571756573742E20436865636B2074686520726571756573 PUSH1 0x20 DUP3 ADD MSTORE PUSH32 0x7420696E64657821000000000000000000000000000000000000000000000000 PUSH1 0x40 DUP3 ADD MSTORE POP JUMP JUMPDEST PUSH32 0x4F6E6C79206D616E6167657220697320616C6C6F77656420746F2063616C6C65 PUSH1 0x0 DUP3 ADD MSTORE PUSH32 0x6420746869732066756E6374696F6E2E00000000000000000000000000000000 PUSH1 0x20 DUP3 ADD MSTORE POP JUMP JUMPDEST PUSH32 0x596F7520616C726561647920766F746564210000000000000000000000000000 PUSH1 0x0 DUP3 ADD MSTORE POP JUMP JUMPDEST PUSH32 0x526571756573742076616C75652069732067726561746572207468616E206361 PUSH1 0x0 DUP3 ADD MSTORE PUSH32 0x6D706169676E2062616C616E6365212100000000000000000000000000000000 PUSH1 0x20 DUP3 ADD MSTORE POP JUMP JUMPDEST PUSH32 0x596F752068617665206E6F7420646F6E6174656420746F207468652070726F6A PUSH1 0x0 DUP3 ADD MSTORE PUSH32 0x6563742E00000000000000000000000000000000000000000000000000000000 PUSH1 0x20 DUP3 ADD MSTORE POP JUMP JUMPDEST PUSH32 0x596F7520617474656D707420746F20617070726F76652061206E6F6E2D657869 PUSH1 0x0 DUP3 ADD MSTORE PUSH32 0x7374656E7420726571756573742E20436865636B207468652072657175657374 PUSH1 0x20 DUP3 ADD MSTORE PUSH32 0x20696E6465782100000000000000000000000000000000000000000000000000 PUSH1 0x40 DUP3 ADD MSTORE POP JUMP JUMPDEST PUSH32 0x4D696E696E756D20636F6E747269627574696F6E206973206E6F74206D65742E PUSH1 0x0 DUP3 ADD MSTORE POP JUMP JUMPDEST PUSH32 0x417070726F76616C2072617465206C65737320207468616E2035302500000000 PUSH1 0x0 DUP3 ADD MSTORE POP JUMP JUMPDEST PUSH2 0x1CEC DUP2 PUSH2 0x17DE JUMP JUMPDEST DUP2 EQ PUSH2 0x1CF7 JUMPI PUSH1 0x0 DUP1 REVERT JUMPDEST POP JUMP JUMPDEST PUSH2 0x1D03 DUP2 PUSH2 0x17F0 JUMP JUMPDEST DUP2 EQ PUSH2 0x1D0E JUMPI PUSH1 0x0 DUP1 REVERT JUMPDEST POP JUMP JUMPDEST PUSH2 0x1D1A DUP2 PUSH2 0x182E JUMP JUMPDEST DUP2 EQ PUSH2 0x1D25 JUMPI PUSH1 0x0 DUP1 REVERT JUMPDEST POP JUMP INVALID LOG2 PUSH5 0x6970667358 0x22 SLT KECCAK256 SWAP9 0xA5 0xC7 SUB 0x2D 0xBC 0x29 SLOAD SSTORE DUP1 0x5D 0xDC PC BALANCE CHAINID 0x2F 0xD6 SWAP14 0xF8 TIMESTAMP 0xDF 0xC8 0xCB 0xB8 0xE1 SDIV 0xDF 0xDD 0xE2 JUMP 0xDC BALANCE PUSH5 0x736F6C6343 STOP ADDMOD DIV STOP CALLER LOG2 PUSH5 0x6970667358 0x22 SLT KECCAK256 0xA8 JUMPI 0xBC DUP1 0x4D 0xAB 0x49 POP 0x27 INVALID GASPRICE STATICCALL 0xC5 0xCA EXP 0xE SAR 0xAB 0xC PUSH9 0x249932E8FF774D71FE BLOCKHASH CALLCODE PUSH17 0x64736F6C63430008040033000000000000 "},"gasEstimates":{"creation":{"codeDepositCost":"2355200","executionCost":"23389","totalCost":"2378589"},"external":{"campaignFactoryManager()":"1214","campaignManagerMapper(address)":"infinite","createCampaign(uint256,string,string)":"infinite","deployedCampaigns(uint256)":"2401","getCampaignsByManager(address)":"infinite","getDeployedCampaigns()":"infinite","getManagerByCampaign(address)":"infinite","managerCampaignsMapper(address,uint256)":"infinite"}},"methodIdentifiers":{"campaignFactoryManager()":"b5608396","campaignManagerMapper(address)":"2d0d8a5d","createCampaign(uint256,string,string)":"fad4dee3","deployedCampaigns(uint256)":"339d50a5","getCampaignsByManager(address)":"25c501ff","getDeployedCampaigns()":"4acb9d4f","getManagerByCampaign(address)":"bed21344","managerCampaignsMapper(address,uint256)":"d4b7d4a0"}},"storageLayout":{"storage":[{"astId":5,"contract":"Campaign.sol:CampaignFactory","label":"deployedCampaigns","offset":0,"slot":"0","type":"t_array(t_address)dyn_storage"},{"astId":7,"contract":"Campaign.sol:CampaignFactory","label":"campaignFactoryManager","offset":0,"slot":"1","type":"t_address"},{"astId":12,"contract":"Campaign.sol:CampaignFactory","label":"managerCampaignsMapper","offset":0,"slot":"2","type":"t_mapping(t_address,t_array(t_address)dyn_storage)"},{"astId":16,"contract":"Campaign.sol:CampaignFactory","label":"campaignManagerMapper","offset":0,"slot":"3","type":"t_mapping(t_address,t_address)"}],"types":{"t_address":{"encoding":"inplace","label":"address","numberOfBytes":"20"},"t_array(t_address)dyn_storage":{"base":"t_address","encoding":"dynamic_array","label":"address[]","numberOfBytes":"32"},"t_mapping(t_address,t_address)":{"encoding":"mapping","key":"t_address","label":"mapping(address => address)","numberOfBytes":"32","value":"t_address"},"t_mapping(t_address,t_array(t_address)dyn_storage)":{"encoding":"mapping","key":"t_address","label":"mapping(address => address[])","numberOfBytes":"32","value":"t_array(t_address)dyn_storage"}}},"userdoc":{"kind":"user","methods":{},"version":1}}